:100000000C94DF040C94C9190C94A2190C940705E4
:100010000C9407050C9407050C9407050C94070530
:100020000C9407050C9407050C9407050C94070520
:100030000C9407050C9407050C9407050C94070510
:100040000C9458190C9407050C94161A0C94F0197A
:100050000C9407050C9407050C9407050C940705F0
:100060000C94481A0C940705000000002400270097
:100070002A0000000000250028002B0000000000DE
:1000800023002600290004040404040404040202DA
:100090000202020203030303030301020408102007
:1000A0004080010204081020010204081020000012
:1000B0000008000201000003040700000000000027
:1000C00000006002040304050103050C1600FC0E89
:1000D000FC10FE02D4061E08DC20096C833FFEFFE4
:1000E0002500210E6C833F76A2FAF78844E5B1041F
:1000F00022156C833FAC889888988898889888984F
:10010000883CFE7700231D6C833F56226222420703
:100110002307432262224207230743226222F2F886
:10012000140024216C833FB4A8A0D541CC84C4889A
:100130009E4DC89DDD498C89E8644262E620CA5024
:10014000541E01251F6C833F56073107227A312246
:100150005223427576452253223221A2373442F28D
:10016000D801261E6C833F566547334232432253E3
:10017000768474264A4C646846880E8448E4B1024A
:10018000270B6C833FB4A8DEE37F0928106C833F04
:10019000BCE4E096A2FAE94EE5A101290F6C833F89
:1001A000ACE84EF597835BCA23012A166C833F7631
:1001B000A262224A0E86CC8C0E46341395C7C70025
:1001C0002B116C833F5E886A7630723026AA3DDE42
:1001D000002C106C833FFE534942CA51C9C1A5810E
:1001E000002D0B6C833FFEC4CC1E7F042E0D6C8350
:1001F0003FFE5349424A799C012F1B6C833F1A51A1
:10020000495149514951495149514951495149511E
:100210004951510030246C833F56560731432352D5
:100220002342243225221322122322352244225330
:100230002243330751F6D80131116C833F76A27205
:100240004DF567072307F3580132176C833F565665
:100250000731432362A29283FBF060E4601E2B000F
:10026000331C6C833F56560731432362A29272843B
:10027000A5A322622243330751F6D801341B6C83B5
:100280003F96928374651352234233428A0E460E80
:10029000064505CDECB102351B6C833F36072307BD
:1002A00023A2A2074107A2A39A88890CCD1C44D996
:1002B0006307361F6C833F56564793A207410732A8
:1002C0005223622262226222622243330751F6D80D
:1002D0000137126C833F36072307A35A0E6E29AAF3
:1002E0007B2C0138216C833F565607314323622211
:1002F000623242525607314323622262224333075D
:1003000051F6D801391F6C833F565607314323629B
:10031000226222622262225332074207A19243578D
:10032000F6D8013A126C833F5E4B1252CA239224D4
:10033000A494C719003B146C833F5E4B1252CA232E
:100340009224A41C951C5C1A083C0F6C833FB69247
:10035000837B39BAA7F258013D126C833F3E3B18AC
:100360003998873D183998C787003E0E6C833F56F1
:10037000A2FB72702FE5B1053F176C833F565607FD
:1003800031432362A292835BCA231295C7120040B5
:100390001E6C833F565607314323622232252226A4
:1003A000FA89890C8DE8E881D0413C5600411F6CE8
:1003B000833F769284742262225242DA88891C8CAE
:1003C0001C8C88898889888988C9630542246C8344
:1003D0003F360741073252236222622252320741DE
:1003E00007325223622262225223073207F1D801D8
:1003F00043186C833F5656073143236222A2FA4CBE
:100400006468E620CA1E3B0044246C833F360741E3
:100410000732522362226222622262226222622216
:10042000622262225223073207F1D80145196C83F8
:100430003F3607230723A29A1E041D04896A7A30D7
:1004400072308F150046156C833F3607230723A2B1
:100450009A1E041D0489EA3DD600471F6C833F564F
:1004600056073143236222A28A488448C444C444C4
:10047000C44486660EA2ECB10348246C833F366206
:100480002262226222622262226222072307236200
:1004900022622262226222622262F2580149136CB5
:1004A000833F3607230763A2FA67072307F3580140
:1004B0004A166C833FB6A2FA899888988898C8D063
:1004C000CC41943D76004B216C833F36522342331E
:1004D00032432253126375847512632253324342AE
:1004E00033522362F258014C0F6C833F36A2FA9FBD
:1004F0001E8C1CCC63054D1F6C833F366222432348
:100500004C0E46242844F49F8988898889888988E4
:100510008988C963054E256C833F36622253224485
:1005200022352212234A2644644A8448A446C444FD
:10053000C444C444C444C4E4B1024F226C833F5653
:1005400056073143236222622262226222622262C1
:10055000226222622243330751F6D801501B6C837A
:100560003F3607410732522362226222522307326A
:100570000741A27A8F350051236C833F56560731CD
:100580004323622262226222622262226222622269
:100590009A4CD81C449D8ECAC30252246C833F36A9
:1005A0000741073252236222622252320741073248
:1005B0005223622262226222622262F25801531C9A
:1005C0006C833F5656073143236222A2A367A7A339
:1005D00022622243330751F6D801540F6C833F3611
:1005E00007230763A2FADF630955236C833F366252
:1005F00022622262226222622262226222622262DB
:10060000226222622243330751F6D801561E6C83C0
:100610003F36622262226222622262226232425AA1
:10062000898889C811528ACA6309571F6C833F366B
:10063000622262226222622262226222FA2F28440D
:100640000E46980C8D88C9630558206C833F36622E
:100650002262226222433323537684745623334327
:10066000236222622262F25801591B6C833F366278
:10067000226222622262226222433323537694A2B0
:10068000BAC712005A156C833F36072307A392831B
:10069000FBA5E8C1C8C13C56005B0F6C833F342109
:1006A000A1A8FE9F12D243035C196C833FA85A5144
:1006B00059515951595159515951595159515951EA
:1006C000015D0D6C833F2C21A9FE3F648F005E12FB
:1006D0006C833F769274562333433361F1F8C7003D
:1006E0005F0B6C833FFE7F7FF06000600C6C833F8C
:1006F000ACE85279FCBF01611D6C833F3E3C8839F8
:1007000010991211131113911A112219A9B1102263
:1007100091C70A00621E6C833F36A29A1E041DC850
:10072000488D8889888988898889488D1CC81CC417
:10073000630763176C833F3EB43A88191A1113118B
:10074000553A7A2074108F1500641E6C833FB6A250
:100750001A1DC41C884C8988898889888988894C95
:10076000C91C081DC46305651A6C833F3EB43A88F2
:10077000191A111339183918111D3D103A88C70A72
:100780000066116C833F96746593826686A2FA3D7B
:100790009600671F6C833F3E3C88391099121113F5
:1007A000111311131113999239103A08951CBA328A
:1007B00002681E6C833F36A29A1E041DC8488D88AD
:1007C000898889888988898889888988C963056929
:1007D000116C833F76A2F2480849F5A1993D760055
:1007E0006A116C833F76A2F2480849F52FC7EA08E0
:1007F000016B1C6C833F36A23A9A91191299921898
:1008000033BB1A19129A911A1193C70A006C0E6C15
:10081000833F5684A4FA0FCDECB1036D136C833F74
:100820003E3B083A90119118D1FFFF7BAC006E1D42
:100830006C833F3E132192B0291921129912111392
:100840001113111311131193C70A006F1B6C833F0F
:100850003EB43A88191A1113111311131113199A6E
:100860003988B2C70E00701E6C833F3E3B083A9039
:10087000911A1113111311131113911A3990390888
:1008800012D51400711D6C833F3E3C8839109912BB
:100890001113111311131113999239103A08D50934
:1008A0000072146C833F3E132192B02919211299D2
:1008B00014D53DD60073176C833F3E3C8839101128
:1008C000953DBB151539903988C70E0074126C839D
:1008D0003F76A21A9A198AEA74B4901E2B00751CEE
:1008E0006C833F3E532226222622262226223522B0
:1008F000443252632144228F150076176C833F3EA9
:10090000532226222623A495C894881C21A53C9610
:100910000077116C833F3E13D1FFFF6F0EA244E4BA
:10092000B10378186C833F3E533234333265474805
:10093000673532333422268F1500791E6C833F3E93
:1009400053222622262226222622262226322573DA
:100950002074102A397465047A126C833F3E3B1868
:100960003918DC87072307F358017B136C839BE45A
:10097000E0A4A85E0E4E8E8EEAD3A542007C0B6CDE
:10098000833FB4A8FEFF3D027D126C838BE8527D4D
:10099000BA727052542F072705017E106C833F3EB8
:1009A000149229515223248F3F027F096C833FFE0A
:1009B000FF250000000004FFFF000000671B11245A
:1009C0001FBECFEFD8E0DEBFCDBF12E0A0E0B1E0A8
:1009D000E4E9F8E402C005900D92AA37B107D9F70F
:1009E00025E0AAE7B2E001C01D92A93EB207E1F7F7
:1009F00014E0CFEDD4E004C02197FE010E94E52170
:100A0000CE3DD107C9F70E94A81C0C9448240C9431
:100A10000000662329F06A3019F0862F90E00895CF
:100A20008FEF9FEF0895AF92BF92CF92DF92EF9238
:100A3000FF920F93CF93DF93EC01DA017901942FAA
:100A40009770E1E0F0E09F01092E01C0220F0A94A7
:100A5000EAF7522F6E018AE8C80ED11CF601808198
:100A600040E0823018F4422F813049F15D01F8EF07
:100A7000AF22E8ADF9AD28813981D90150968C912A
:100A80008A9D90018B9D300D1124620F731FDF0131
:100A9000A60FB71F01111AC0EA0EFB1E8C91842B02
:100AA00085278D93AE15BF05C9F7DF91CF910F91C3
:100AB000FF90EF90DF90CF90BF90AF90089550E0FF
:100AC000D5CF440F550FE114F10479F33C91342B49
:100AD00035273C939F5F9770E1E0EE1AF108911182
:100AE000F0CF2CAD3DADA20FB31FF6018081823057
:100AF00028F4813009F051E041E0E5CF51E0E3CF47
:100B000080E0089590E080E008958093E1050895E5
:100B10008091B1059091B205892BA1F18091D10509
:100B20008093DD054091D2054093DE059091DC0570
:100B3000992341F1913069F49091D305891714F408
:100B40009093DD058091D4058417E4F48093DE054D
:100B500008953091CE052091D005082E000C990BF8
:100B6000622F022E000C770B630F711D37FD7A95F3
:100B7000861797071CF4320F3093DD05241714F401
:100B80002093DE0508958091030390910403891B4F
:100B9000990B0895CF92DF92EF92FF920F931F93DC
:100BA00020913C0530913D052130310534F0233052
:100BB000310554F023303105D1F11F910F91FF9091
:100BC000EF90DF90CF900895C0903F05D090400502
:100BD000E0904105F09042058B019C0152E0000F2E
:100BE000111F221F331F5A95D1F743E0C422DD2481
:100BF000EE24FF240C291D292E293F2900933F05AF
:100C000010934005209341053093420560934305BE
:100C1000709344058093450590934605609347057E
:100C2000709348058093490590934A05C6CFC090BC
:100C30003F05D0904005E0904105F09042058B01C2
:100C40009C01000F111F221F331F41E0C422DD242D
:100C5000EE24FF24CFCF9B01DC011896ED91FC918F
:100C600041E067E10994833081F028F4813099F004
:100C70008230A9F008958730A9F08830C9F0843017
:100C8000B1F4809180008F7D03C0809180008F77C8
:100C900080938000089584B58F7784BD089584B5CE
:100CA0008F7DFBCF8091B0008F778093B000089547
:100CB0008091B0008F7DF9CFCF93DF93282F30E064
:100CC000F901E255FF4F8491F901E656FF4FD491A7
:100CD000F901EA57FF4FC491CC23A1F081110E9482
:100CE0003306EC2FF0E0EE0FFF1FE458FF4FA59105
:100CF000B491EC91ED2381E090E009F480E0DF9184
:100D0000CF91089580E090E0FACF1F93CF93DF93C7
:100D1000282F30E0F901E255FF4F8491F901E656A2
:100D2000FF4FD491F901EA57FF4FC491CC23A9F0AA
:100D3000162F81110E943306EC2FF0E0EE0FFF1FFB
:100D4000EE58FF4FA591B4918FB7F894EC91111123
:100D500008C0D095DE23DC938FBFDF91CF911F9128
:100D60000895DE2BF8CFCF93DF9390E0FC01E65699
:100D7000FF4F24918A579F4FFC0184918823D1F023
:100D800090E0880F991FFC01E859FF4FA591B4919D
:100D9000FC01EE58FF4FC591D491623071F49FB7BA
:100DA000F8943C91822F809583238C93E8812E2B9D
:100DB00028839FBFDF91CF9108958FB7F894EC916E
:100DC0002E2B2C938FBFF6CF3FB7F8948091FF0264
:100DD00090910003A0910103B091020326B5A89B56
:100DE00005C02F3F19F00196A11DB11D3FBFBA2FBD
:100DF000A92F982F8827BC01CD01620F711D811D7D
:100E0000911D42E0660F771F881F991F4A95D1F701
:100E100008958F929F92AF92BF92CF92DF92EF92FE
:100E2000FF926B017C010E94E4064B015C01C1143E
:100E3000D104E104F104B9F00E94E40668197909CB
:100E40008A099B09683E73408105910580F321E082
:100E5000C21AD108E108F10888EE880E83E0981ED6
:100E6000A11CB11CE4CFFF90EF90DF90CF90BF901A
:100E7000AF909F908F9008952FB7F8946091FB02E8
:100E80007091FC028091FD029091FE022FBF0895A7
:100E90000F931F93809138050E945C06182F809154
:100EA0003A050E945C06880F991F812B90913E05A0
:100EB000891709F46DC0E0913E0500913F0510913E
:100EC0004005209141053091420594E0E902F0018E
:100ED0001124482F082E000C550BE42BF52BE65956
:100EE000FE4F9081492F990F550B660B770B400FE2
:100EF000511F621F731F40933F055093400560933D
:100F000041057093420580933E0520913C05309148
:100F10003D0522303105D1F123303105E1F1213099
:100F20003105B1F58330A1F580913F0590914005E1
:100F3000A0914105B091420532E0B595A7959795EE
:100F400087953A95D1F78093430590934405A093F4
:100F50004505B093460580914B0590914C05A091B5
:100F60004D05B0914E0580934F0590935005A09389
:100F70005105B09352050E943C0760934B05709356
:100F80004C0580934D0590934E0502C0882361F275
:100F90001F910F910895882311F08330C9F7809134
:100FA0003F0590914005A0914105B0914205B5954E
:100FB000A79597958795C7CF0C94480708950895EE
:100FC0000895AF92BF92CF92DF92EF92FF920F936C
:100FD0001F93CF93DF936C017B018B01040F151FCF
:100FE000EB015E01AE18BF08C017D10759F0699137
:100FF000D601ED91FC910190F081E02DC60109959B
:10100000892B79F7C501DF91CF911F910F91FF9047
:10101000EF90DF90CF90BF90AF900895FC01538D7B
:10102000448D252F30E0842F90E0821B930B5417C2
:1010300010F0CF96089501970895FC01918D828D4F
:10104000981761F0A28DAE0FBF2FB11D5D968C91E8
:10105000928D9F5F9F73928F90E008958FEF9FEF27
:101060000895FC01918D828D981731F0828DE80FE3
:10107000F11D858D90E008958FEF9FEF0895FC019D
:10108000918D228D892F90E0805C9F4F821B91096A
:101090008F73992708958FE893E00E943F0821E01D
:1010A000892B09F420E0822F089580E090E0892BBD
:1010B00029F00E944B0881110C9400000895FC0156
:1010C000A48DA80FB92FB11DA35ABF4F2C91848DA9
:1010D00090E001968F739927848FA689B7892C9306
:1010E000A089B1898C91837080648C93938D848D59
:1010F000981306C00288F389E02D80818F7D80835C
:101100000895EF92FF920F931F93CF93DF93EC011B
:1011100081E0888F9B8D8C8D98131AC0E889F9899E
:10112000808185FF15C09FB7F894EE89FF896083A1
:10113000E889F98980818370806480839FBF81E022
:1011400090E0DF91CF911F910F91FF90EF90089564
:10115000F62E0B8D10E00F5F1F4F0F731127E02E3F
:101160008C8D8E110CC00FB607FCFACFE889F98977
:10117000808185FFF5CFCE010E945F08F1CFEB8D16
:10118000EC0FFD2FF11DE35AFF4FF0829FB7F8944B
:101190000B8FEA89FB8980818062CFCFCF93DF9369
:1011A000EC01888D8823B9F0AA89BB89E889F9897F
:1011B0008C9185FD03C0808186FD0DC00FB607FCB4
:1011C000F7CF8C9185FFF2CF808185FFEDCFCE01E7
:1011D0000E945F08E9CFDF91CF910895DC011A9654
:1011E000ED91FC9130E020E00994462FDC0114964B
:1011F000ED91FC9130E020E06BE00994DC01169663
:10120000ED91FC9130E020E040E069E10994DC01DF
:101210001696ED91FC9130E020E040E068E1099401
:101220009A01DC011696ED91FC91462F67E1099435
:10123000EF92FF920F931F93CF93DF931F92CDB73F
:10124000DEB77C018B01D8016C91673129F150F434
:101250006531A0F40F90DF91CF911F910F91FF9016
:10126000EF9008956A3118F16E3FA1F7F8014181BE
:10127000498369E2C7010E94EE080BC0F801418171
:101280004983D7011696ED91FC9130E020E0C7012B
:1012900009950E5F1F4FD7CFF80181818983AE0179
:1012A0004F5F5F4F61E0C7010E941009F2CF0F5FEF
:1012B0001F4FD7011696ED91FC9130E020E040E001
:1012C000C7010995C0CF462FDC011696ED91FC9120
:1012D00030E020E066E10994462FDC011696ED919E
:1012E000FC9130E020E065E10994EF92FF920F93CA
:1012F0001F93CF93DF93EC01042F79016D3009F434
:1013000046C050F46B30C9F1693009F49FC06A30AF
:1013100009F465C080E046C06E3009F452C06F30F9
:1013200099F70E940709F7011381110F110F110F8F
:101330006C89160F60E4CE010E946C09612F6295E2
:101340006F706061CE010E946C09612F6F70CE01D9
:101350000E946309F7016481606BCE010E946309FA
:10136000F701408151816281660F660F660FCE01E1
:101370000E9410090150A1F72EC068E171E04423DA
:1013800011F063E171E0CE010E9418090AC0411119
:1013900010C06CE071E00E941809E881F98182892F
:1013A0008C8B81E0DF91CF911F910F91FF90EF9097
:1013B000089565E071E00E941809E881F981838948
:1013C000EFCF0E94070961E8CE010E946C09602FEF
:1013D000CE010E946309CE010E94FE08E2CFEA8599
:1013E000FB8530E020E040E068E2CE010995EE8127
:1013F000FF8130E020E040E064E1CE01099541E06A
:101400006BE4CE010E94EE08E881F981448169E233
:10141000CE010E94EE0840E06BE4CE010E94EE088F
:10142000E881F981448169E2CE010E94EE0841E041
:101430006BE4CE010E94EE08E881F981458169E202
:10144000CE010E94EE086DE171E09DCF82E591E052
:10145000998388831C8AA5CFDC011896ED91FC91B5
:1014600030E020E040E069E10994DC011896ED915C
:10147000FC9130E020E040E068E10994CF93DF93F5
:101480001F92CDB7DEB76983BE016F5F7F4F0E94A9
:101490002B060F90DF91CF910895EF92FF921F934B
:1014A000CF93DF93EC01162F7A010E94350A60E496
:1014B000CE010E943E0AE885F9859701412F67E138
:1014C000CE010995CE01DF91CF911F91FF90EF9052
:1014D0000C942C0AEF92FF921F93CF93DF93EC01B1
:1014E000142F7901663181F138F4643109F44BC06D
:1014F000653179F080E022C06831C9F150F169317D
:10150000C9F78091E202882391F1CE010E942C0A52
:101510002EC08091E202882319F0CE010E942C0A8D
:10152000CE010E94350A60E0CE010E943E0A612F82
:10153000CE010E943E0A81E08093E202DF91CF91CA
:101540001F91FF90EF900895642F0E943E0A81E062
:10155000F5CF8091E202882319F0CE010E942C0A77
:10156000A701193138F4612FCE010E944D0A109263
:10157000E202EDCF68E1CE010E944D0A185188E1E8
:10158000E80EF11CEDCF8E898F3F11F488E78E8B2A
:10159000E885F9859701412F64E1CE01DF91CF9174
:1015A0001F91FF90EF9009940F93FC01E85BFF4FB0
:1015B0000190F081E02DDF01A41BB50BAD01FC0112
:1015C000EA5BFF4F0190F081E02DDF01A61BB70B16
:1015D000BD01011113C041505109621B730BFC0185
:1015E000E05CFF4F0190F081E02D4E1B5F0BDC01B2
:1015F000D496ED91FC9109950F910895013079F7FA
:1016000061507109421B530BEACFCF93DF93FC016A
:10161000A081B18182AD90E09C0143E0220F331F95
:101620004A95E1F737AF26AF50962C91509748E096
:10163000249F9001112435AF24AF23AD30E0B901D0
:1016400053E0660F771F5A95E1F7EF01C05CDF4F5B
:101650007983688351964C915197E901C80FD91F3E
:1016600050E04C175D0718F4CA01821B930BEF0181
:10167000CE5BDF4F79836883229623E0880F991F22
:101680002A95E1F7860F971F9983888322965496AF
:101690008D919C91559799838883E85BFF4F56966F
:1016A0008D919C9191838083DF91CF9108950F93C9
:1016B0001F93FC01E25BFF4F0190F081E02DDC0104
:1016C000A05BBF4F0D90BC91A02D4A175B0740F463
:1016D000E017F10748F00417150730F080E019C053
:1016E000E017F107C0F3FACFFC01E65BFF4F408142
:1016F0005181845B9F4FFC0180819181681779073C
:1017000058F481E04217530720F081E0261737078D
:1017100028F71F910F91089542175307B0F3DECFBA
:101720002F923F924F925F926F927F928F929F92F1
:10173000AF92BF92CF92DF92EF92FF920F931F93DF
:10174000CF93DF93CDB7DEB728970FB6F894DEBFFF
:101750000FBECDBF98878F83865B9F4F9A83898307
:10176000FC0111821082EF81F885EA5BFF4F208037
:1017700031802F813885245B3F4F3C832B83F901D7
:1017800031822082EF80F884FEE4EF0EF11CF70135
:1017900011821082EF81F885E85BFF4F4080518015
:1017A000EF81F885EC5BFF4F2081318142165306B3
:1017B00030F0C201821B930BF70191838083EF818C
:1017C000F885EE5BFF4F20813181421A530A2F8149
:1017D0003885205B3F4F3E832D83F9015182408243
:1017E000EF81F885E85AFF4F60807180EF81F885BE
:1017F000EC5AFF4FA080B180EF81F885EA5AFF4F85
:10180000C080D180EF81F885EE5AFF4F80809180B3
:1018100083019501A601B4018F8198850E94570B21
:101820002F8138852C573F4F38872F8381111BC05C
:10183000F901108228960FB6F894DEBF0FBECDBF17
:10184000DF91CF911F910F91FF90EF90DF90CF909C
:10185000BF90AF909F908F907F906F905F904F90D0
:101860003F902F90089581E0EF81F8858083811467
:10187000910421F0E981FA8191828082A214B3045B
:1018800020F4EB81FC81B182A082F70180819181FB
:101890008C159D0510F4D182C0826414750450F635
:1018A000ED81FE8171826082C5CF0F93CF93DF936C
:1018B000E02FDC01AC57BF4FFC91FF2309F460C05F
:1018C0002115310509F45CC02230310538F00230B1
:1018D00009F04AC06F5F7F4F621B730B0E2F0170C0
:1018E000E0FD52C0FC01E25BFF4F0190F081E02D72
:1018F0004E175F0708F444C0FC01E05BFF4F019006
:10190000F081E02D4E175F07D8F5FC01E45BFF4F37
:101910000190F081E02DDC01A65BBF4F0D90BC91E2
:10192000A02D260F371F2617370738F56E177F07AC
:1019300018F59F0121503109A217B30708F56A175E
:101940007B0708F4BD012E173F0708F4F901E61BD9
:10195000F70BEC01AEA9BFA914960D90BC91A02D78
:101960009F01FD0109950CC0033009F0B7CF4F5F0F
:101970005F4F421B530BB2CFBD016E177F07E0F2E2
:10198000DF91CF910F910895FC01E65BFF4F01902D
:10199000F081E02D6E177F0798F3FC01E45BFF4FA9
:1019A0000190F081E02D6E177F0750F7FC01E05B9E
:1019B000FF4F0190F081E02DDC01A25BBF4F0D9045
:1019C000BC91A02D240F351F24173507A8F44E17FE
:1019D0005F0788F49F0121503109A217B30780F6F1
:1019E0004A175B0708F4AD012E173F0708F4F90109
:1019F000E41BF50BAECFAD014E175F0708F6EDCF38
:101A0000213069F038F0223079F0840F911D47FDC4
:101A10009A950895860F911D67FD9A950895841BE8
:101A2000910947FD93950895861B910967FD93954C
:101A30000895213069F038F0223079F0861B910941
:101A400067FD93950895840F911D47FD9A9508951C
:101A5000860F911D67FD9A950895841B910947FD96
:101A6000939508953F924F925F926F927F928F92DB
:101A70009F92AF92BF92CF92DF92EF92FF920F931D
:101A80001F93CF93DF937C01162F442EEC01C25A93
:101A9000DF4F5E806F806C018AE8C80ED11C7884AD
:101AA0007518312E711608F4372C8C809D800E85A8
:101AB000202F462D652D8A819B810E94000D5C019F
:101AC000202F462D652DC4010E94190DAC01442024
:101AD00079F08C85F6018083232D30E0B501C701B4
:101AE0000E94550C171548F017196394512CD7CF45
:101AF0008B858111F7CF8D85EDCF150D1E836F82FC
:101B0000DF91CF911F910F91FF90EF90DF90CF90D9
:101B1000BF90AF909F908F907F906F905F904F900D
:101B20003F900895DC011A964C911A97ED91FC9123
:101B30001197249130E0042E02C0359527950A9420
:101B4000E2F7842F860F883068F031961196FC9367
:101B5000EE93E49198E0941B01C0EE0F9A95EAF79A
:101B60002E2B88501A968C938FEF9FEF01C0880F11
:101B70006A95EAF7809582230895FC01E60FF11D2E
:101B8000849190E0982F88273196E4918E0F911DD3
:101B90000895E2ECF0E0E491E093C405E3ECF0E0BA
:101BA000E491E093C505E4ECF0E0E491E093C60530
:101BB000E5ECF0E0E491E093C705E6ECF0E0E491B9
:101BC000E093C805E7ECF0E0E491E093C905E8ECA8
:101BD000F0E0E491E093CA05E9ECF0E0E491E093F1
:101BE000CB05EAECF0E0E491E093CC05EBECF0E01F
:101BF000E491E093CD05ECECF0E0E491E093CE05C8
:101C0000EDECF0E0E491E093CF05EEECF0E0E49150
:101C1000E093D005EFECF0E0E491E093D105E0ED46
:101C2000F0E0E491E093D205E1EDF0E0E491E0939F
:101C3000D305E2EDF0E0E491E093D40561E182ECBC
:101C400090E00E94BD0D9093D6058093D50563E189
:101C500082EC90E00E94BD0D9093D8058093D7054B
:101C600065E182EC90E00E94BD0D9093DA058093CF
:101C7000D90508954F925F926F927F928F929F92B3
:101C8000AF92BF92CF92DF92EF92FF920F931F938A
:101C9000CF93DF93EC016B018A017901FC01E459D8
:101CA000FF4F8081813009F44BC008F43EC0823080
:101CB00009F451C0833009F459C0FE01E05AFF4FC6
:101CC000D182C082329611830083389780819181BE
:101CD00047962FEFE216F10411F008F0F2C0E1E6AA
:101CE000EE16F10408F44DC0FE01E058FF4F2081CC
:101CF0003181820F931F9C012F5F3F4FF901449167
:101D0000411148C090E080E0DF91CF911F910F9189
:101D1000FF90EF90DF90CF90BF90AF909F908F900B
:101D20007F906F905F904F900895FE01E45AFF4FAF
:101D30000190F081E02DCE010995080F191FBDCF4C
:101D4000FE01E45AFF4F0190F081E02DCE0109958C
:101D5000C81AD90AB2CFFE01E45AFF4F0190F081B0
:101D6000E02DCE010995081B190BA7CFFE01E45AFF
:101D7000FF4F0190F081E02DCE010995C80ED91ECC
:101D80009CCFF1E4EF16F10408F4B5CFFE01E25860
:101D9000FF4FADCFFC0144914E151F0409F08CC0DC
:101DA0000296009709F4AECF7E01FEE5EF0EF11C1E
:101DB000F70191838083128673966081C7010E9428
:101DC000920DF701808774966081C7010E94920D81
:101DD000982EF70181875E01FAE8AF0EB11CF5017C
:101DE0009081F701948781E0911180E0F701858768
:101DF000FE01ED58FF4FC0806C2DC7010E94920D6F
:101E0000582EFE01EC58FF4FD0806D2DC7010E9467
:101E1000920D482EFE01EB58FF4F1081612FC70134
:101E20000E94920D9FEF910F01E010E0980101C018
:101E3000220F9A95EAF7882E821AF7016084161409
:101E40000CF0ADC0CA94C80101C0880FCA94EAF76B
:101E5000581A7684490CDA94A80101C0440FDA9428
:101E6000EAF7F42FF4194F2E272D4F2F652DF70188
:101E7000828193810E94000D6C01F701938382831C
:101E8000272D442D652D848195810E94190DF70120
:101E900095838483F1E07F1609F485C07F1608F4EA
:101EA0003FC022E0721609F48DC0E3E07E1609F40B
:101EB0009DC0BC0196013EC0F9012491820F911D85
:101EC0001ACFFE01EE57FF4F00811181080F191F35
:101ED000680160E0C6010E94BD0D080F191F62E095
:101EE000C6010E94BD0DF4E0CF0ED11C8E159F05DA
:101EF00080F3F801849190E0982F88273196E4913F
:101F00008E2B009709F4FECEE816F90619F4C801E5
:101F1000039647CFF8013296E4910E0F111DE9CFD9
:101F20009601260D311D67FC3A95BC01690D711DA6
:101F300097FC7A958B01AC01B601CE010E94570B3C
:101F4000882369F1F701168217828E0101591F4F0C
:101F50006E01F0E7CF0ED11CF8016081C7010E942D
:101F6000920D682EF6016081C7010E94920D782EB5
:101F700040E0662DCE010E94320D41E0672DCE017A
:101F80000E94320D61E0C7010E94920D8111F0CFD5
:101F9000F7018781891504F38485F5018083882DF5
:101FA000880C990BB1CE0919110997FC139596016C
:101FB0002F5F3F4FBC01660D711D67FC7A95C00E07
:101FC000D11EB8CFA8014619510967FC5395960157
:101FD0002F5F3F4F0919110997FC1395BC016F5FE3
:101FE0007F4F800F911FC40ED51EA4CF9601290DDF
:101FF000311D97FC3A950619110967FC1395BC0130
:102000006F5F7F4F800F911F95CFCF92DF92EF923E
:10201000FF920F931F93CF93DF9310926F056C0184
:10202000F12CE12C0EE010E0D0E0C0E0F60161916F
:102030006F01E0915905F0915A0587E595E0099502
:102040008F3F980719F18E3F2FEF920779F39C018C
:10205000A801BE0187E595E00E943A0E2091C305D4
:10206000213059F038F0223059F0233061F0E80E79
:10207000F91EDCCFC80FD91FFACF080F191FF7CFF1
:10208000C81BD90BF4CF081B190BF1CFC701DF9187
:10209000CF911F910F91FF90EF90DF90CF90089517
:1020A000CF93DF93EC016BAFEEA9FFA90190F08114
:1020B000E02D0995EEA9FFA90280F381E02DCE0164
:1020C000DF91CF910994AF92BF92CF92DF92EF92BE
:1020D000FF920F931F93CF93DF9300D000D01F92F6
:1020E000CDB7DEB78C01DC01DA96AC90DA97DB96DF
:1020F000EC90DB97ED91FC91B188FE2CD12CC12C9A
:10210000D801ED91FC9111978089D8962D913C9141
:102110001C82FD828B83B8E08B9FC00111248C9DB3
:10212000A0018D9D500D9C9D500D1124240F351F35
:102130003A832983D8011496ED91FC919E012F5F7B
:102140003F4F41E06FE0C8010995F3948F2D8E1940
:102150008A1528F4BFEFCB1ADB0AFB1488F20F9024
:102160000F900F900F900F90DF91CF911F910F91D3
:10217000FF90EF90DF90CF90BF90AF9008950F93B6
:102180001F93CF93DF938C01C62F642FCC32E8F4DA
:10219000CA3208F041C0C83271F1C93209F442C0F4
:1021A00080E0C034D0F1CF73F801EC0FF11D868DC3
:1021B0008F3F91F1C031E0F00E945C0621E0892B55
:1021C00009F420E0F801218F27C0CD3289F140F3D6
:1021D00084EB8C0F823020F7CF73C00FD12FD11D2D
:1021E0008E8D411133C061E00E94B30660E08E8D98
:1021F0000E94850611C0025E1F4FD0E0F801819158
:102200008F018F3F31F061E0D03108F062E00E9431
:10221000B306DF5FD63191F781E0DF91CF911F9157
:102220000F91089570E090E080E00E940907F4CFDC
:1022300085E090E0433010F082E090E0880F991F35
:10224000880F991F05970197F1F7E6CF62E00E948A
:10225000B306E2CF2091BF02260F3327331F21326E
:102260003105ECF420915F03FC0190E080E0243024
:1022700069F082E00895A091BF022191AC0141561E
:102280005D4FA40FB52FB11D2C930196861798F3BF
:102290008091BF02680F6093BF0280E0089581E0E3
:1022A000089510925F0381E080935E0310923903DA
:1022B00061E082E10E94850661E083E10E9485067B
:1022C000E9EBF0E080818E7F808380818D7F808349
:1022D00088E48093B80085E48093BC000895CF9390
:1022E000DF9391E090939E028823B9F0C091B800EB
:1022F000D091BA008091BC008A7B8093BC0060E0E2
:1023000082E10E94850660E083E10E9485060E94CA
:102310005111D093BA00C093B800DF91CF910895C6
:102320008F929F92AF92BF92CF92DF92EF92FF92E5
:102330000F931F93CF93DF93D0918803D13208F08E
:10234000D7C0182FC09187030E94E4066B017C015F
:1023500080915F0381116BC082E080935F031093D3
:102360005E038FEF80935D0310925C03D0935B0359
:10237000A7E6B3E0EBE3F3E080E0D81391C010925E
:102380003A0380913A03CC0FC82BC0933A03809153
:102390003903813009F088C0109239030E94E406A5
:1023A0006B017C0180913A038093BB0080916103B3
:1023B00090916203A0916303B0916403892B8A2BEF
:1023C0008B2BA1F00E94E40600916103109162033F
:1023D00020916303309164036C197D098E099F0974
:1023E000061717072807390708F442C08091BC0078
:1023F00083FDD8CF85EC8093BC000E94E4066B017E
:102400007C0180915F03823009F450C080915D03AC
:102410008F3F09F46FC080915D03803209F46CC076
:1024200080915D03803309F469C084E026C0809107
:10243000610390916203A0916303B0916403892BBF
:102440008A2B8B2B09F484CF0E94E40680906103D1
:1024500090906203A0906303B09064036C197D09AF
:102460008E099F0986169706A806B90608F070CF50
:10247000809160030E946F1185E0109266031092B4
:10248000880310926503DF91CF911F910F91FF9008
:10249000EF90DF90CF90BF90AF909F908F90089576
:1024A0009D9191938F5F69CF85EEA5CF8091610358
:1024B00090916203A0916303B0916403892B8A2BEE
:1024C0008B2B09F49ECF0E94E406009161031091CA
:1024D000620320916303309164036C197D098E09B6
:1024E0009F09061717072807390708F08ACFC0CFBA
:1024F00081E0C3CF80E0C1CF82E0BFCF83E0BDCF1A
:102500000895E091040380910303E81730F4F0E0AC
:10251000EB5FFC4F808190E008958FEF9FEF08956F
:1025200090910403809103032FEF3FEF981748F435
:10253000E92FF0E0EB5FFC4F208130E09F5F90934C
:102540000403C9010895CF92DF92EF92FF920F9397
:102550001F93CF93DF937C01CB018A012091650308
:10256000222389F0EB016B01C40ED51ECC15DD05CD
:1025700069F06991D701ED91FC910190F081E02D16
:10258000C7010995F3CF642F0E942A11C801DF917A
:10259000CF911F910F91FF90EF90DF90CF90089512
:1025A000CF93DF93EC01962F683109F445C0B90150
:1025B000993130F4943199F0973159F080E006C0A8
:1025C000993109F45BC09032C9F781E0DF91CF9176
:1025D000089550E08CE294E00E94A312F6CF8C851F
:1025E0009D85AE85BF85892B8A2B8B2B71F4E88165
:1025F000F981A585B0E020EA36E841E050E00E948C
:10260000EB216C877D878E879F8710920403109241
:10261000030310926603109288030E9451118EEDFD
:1026200097E09093E4028093E3028FED97E090931C
:10263000E6028093E502C9CF2C853D854E855F85F6
:1026400060E074E284EF90E00E94C32120513109E0
:102650004109510956954795379527952093B8001C
:102660008E8990E09595879591E09093650380938E
:1026700087031092660310928803A7CF81E00E941F
:102680009011A3CFCF93DF931F92CDB7DEB76983AD
:10269000209165032223F9F020918803203258F01D
:1026A00021E030E0FC013383228390E080E00F9052
:1026B000DF91CF91089580916603E82FF0E0E9590A
:1026C000FC4F998190838F5F80936603809388038A
:1026D00081E090E0ECCF61E0CE0101960E942A11EA
:1026E000F7CFCF93C82F81E08093650310928703C3
:1026F000109266031092880361E08CE294E00E94DD
:10270000421362E08CE294E00E9442136C2F8CE250
:1027100094E00E9442136DEF6C1B8CE294E00E94E7
:10272000421381E0CF910C9490110F931F93CF939C
:10273000DF93082F162FD72FC2E0C80FC60FC70F81
:1027400081E08093650310928703109266031092D4
:10275000880362E08CE294E00E944213602F8CE2D6
:1027600094E00E944213612F8CE294E00E94421395
:102770006D2F8CE294E00E9442136C2F61958CE2E5
:1027800094E00E94421381E0DF91CF911F910F915D
:102790000C949011CF92DF92EF92FF920F931F93C0
:1027A000CF93DF936C01EB017B01E40EF51E10E08B
:1027B00000E0CE15DF0561F06991D601ED91FC9145
:1027C0000190F081E02DC6010995080F191FF1CF86
:1027D000C801DF91CF911F910F91FF90EF90DF9093
:1027E000CF900895CF92DF92EF92FF920F931F93B5
:1027F000CF93DF93EC016C0124E0C20ED11CFC01ED
:10280000E057FF4F0190F081E02DC60109958E3F02
:10281000EFEF9E07D8F48E010C561F4FF801408150
:1028200051817E01F2E9EF0EF11CF70160817181A7
:102830009C01C6010E943A0EC059DF4F2881213009
:10284000C1F078F02230B9F02330E9F081E090E077
:10285000DF91CF911F910F91FF90EF90DF90CF907C
:102860000895F70120813181820F931F9183808326
:10287000EDCFF801F7CFF70120813181281B390B0B
:1028800031832083E3CFF801F7CF089590E080E013
:102890000895FF920F931F93CF93DF9309E813E0FE
:1028A000D0E0C0E0F801F1908F01CE010E949921A3
:1028B000F81621F06F2DCE010E94A1212196C6307D
:1028C000D10581F789E893E0DF91CF911F910F91B6
:1028D000FF900895CF92DF92EF92FF920F931F9394
:1028E000CF93DF93C82F81E0809365038FE08093BF
:1028F0008703109266031092880362E08CE294E0F2
:102900000E9442136C2F8CE294E00E9442136FEEFF
:102910006C1B8CE294E00E94421380E00E949011B4
:102920000E94E4066B017C0180915F03811165C008
:1029300081E080935F0380935E039FEF90935D033C
:1029400010925C0394E090935B0380933A03809130
:102950003A038E6180933A0380913903813009F004
:102960008CC0109239030E94E4066B017C018091B7
:102970003A038093BB008091610390916203A09120
:102980006303B0916403892B8A2B8B2BA1F00E94E7
:10299000E40600916103109162032091630330917A
:1029A00064036C197D098E099F090617170728070C
:1029B000390708F443C08091BC0083FDD8CF85EC73
:1029C0008093BC000E94E4066B017C0180915F0350
:1029D000813009F454C080915C03C5E0853010F467
:1029E000C0915C03ABE3B3E0E5E0F3E080E08C177B
:1029F00051F19D9191938F5FFACF809161039091F6
:102A00006203A0916303B0916403892B8A2B8B2B03
:102A100009F48ACF0E94E4060091610310916203D9
:102A200020916303309164036C197D098E099F091D
:102A3000061717072807390708F076CF809160033B
:102A40000E946F11C0E010920403C09303038CE254
:102A500094E00E949012D82F182F45E2E42E43E014
:102A6000F42E80910403C81761F18CE294E00E9477
:102A70009012F70181937F01F4CF85EEA1CF809171
:102A8000610390916203A0916303B0916403892B69
:102A90008A2B8B2B09F49ACF0E94E40600916103E4
:102AA0001091620320916303309164036C197D09D6
:102AB0008E099F09061717072807390708F086CFE0
:102AC000BDCF2091260380912503422F480F552723
:102AD000551F20912703240F352F311D8091280386
:102AE000280F311D80912903820F932F911D8D0F87
:102AF000911D91958195910940912A039C0133275D
:102B00004217130639F420912B03892F9927281790
:102B1000190611F01D2F1061812FDF91CF911F91A8
:102B20000F91FF90EF90DF90CF900895FB010190FF
:102B30000020E9F73197AF01461B570BDC01ED91FF
:102B4000FC910280F381E02D09948F929F92AF92C5
:102B5000BF92EF92FF920F931F93CF93DF93CDB766
:102B6000DEB7A1970FB6F894DEBF0FBECDBF7C01D4
:102B7000FA01CB0119A2223008F42AE08E010F5D80
:102B80001F4F822E912CB12CA12CBF01A5019401C5
:102B90000E94C321F901CA016A300CF5605DD801B9
:102BA0006E938D01232B242B252B79F790E080E069
:102BB000109721F0BD01C7010E949615A1960FB68E
:102BC000F894DEBF0FBECDBFDF91CF911F910F9163
:102BD000FF90EF90BF90AF909F908F900895695CA9
:102BE000DECFCF92DF92EF92FF92CF93DF936B0114
:102BF0007C016DE28FE893E00E948108EC0144279C
:102C00005527BA014C195D096E097F092AE08FE842
:102C100093E00E94A5158C0F9D1FDF91CF91FF902F
:102C2000EF90DF90CF9008954F925F926F927F92D6
:102C30008F929F92AF92BF92CF92DF92EF92FF92CC
:102C40000F931F93CF936B017C01742EAC019B01FA
:102C50000E943C2460EB71E0811126C046015701BF
:102C6000E894B7F82FEF3FEF4FE75FE7C501B401F6
:102C70000E943C2481110CC02FEF3FEF4FE75FE72C
:102C8000C501B4010E94722264EB71E0181664F071
:102C90002FEF3FEF4FE75FE4C701B6010E94CA2361
:102CA0001816ACF468EB71E083E595E0CF911F91C5
:102CB0000F91FF90EF90DF90CF90BF90AF909F90DB
:102CC0008F907F906F905F904F900C9496152FEFA0
:102CD0003FEF4FE75FECC701B6010E94722287FD0C
:102CE000E1CF20E030E0A901C701B6010E947222C5
:102CF00010E000E087FF0AC06DE283E595E00E94E6
:102D0000F2138C01F7FAF094F7F8F094C0E060E069
:102D100070E080E09FE37C1641F020E030E040E28C
:102D200051E40E947722CF5FF6CFA70196010E945F
:102D300006222B013C010E94E9224B015C012AE0A2
:102D4000BC01A40183E595E00E94A5157C01E00E7D
:102D5000F11ECC23D1F1C501B4010E9418239B01BF
:102D6000AC01C301B2010E9405224B015C016EE27D
:102D700083E595E00E94F213E80EF91EC15028F198
:102D800020E030E040E251E4C501B4010E94CF23CD
:102D90002B013C010E94E9224B01B12CA12C2AE01D
:102DA000B501A40183E595E00E94A515E80EF91E82
:102DB000C501B4010E9418239B01AC01C301B201FB
:102DC0000E9405224B015C01D9CFC701CF911F9111
:102DD0000F91FF90EF90DF90CF90BF90AF909F90BA
:102DE0008F907F906F905F904F900895CF93DF9377
:102DF000BC018FE893E00E949615EC016CEB71E04A
:102E00008FE893E00E9496158C0F9D1FDF91CF9164
:102E100008950C949615FC01A081B18150962C91D7
:102E200082AD38E0839FC0011124289FA001299F13
:102E3000500D112470E060E080AD91AD0C94412400
:102E40001F93CF93DF93EC010E9463101BAD8AADFB
:102E5000180FE881F9818189181768F0EC81FD81EC
:102E600030E020E040E060E1CE01099580E0DF91B4
:102E7000CF911F910895FE01E557FF4F8081882370
:102E800019F0CE010E940B17612FCE010E94501045
:102E900081E0EDCFCF93DF93EC01FC01E557FF4FCD
:102EA0008081882319F0CE010E940B1760E0CE01CB
:102EB000DF91CF910C9450102F923F924F925F92DE
:102EC0006F927F928F929F92AF92BF92CF92DF923A
:102ED000EF92FF920F931F93CF93DF93182FEA0186
:102EE00090E080E00E94182320E030E048EC52E4BB
:102EF0000E9477222B013C01BE0190E080E00E94FD
:102F0000182320E030E048EC52E40E9477226B0165
:102F10007C0187E595E00E944A1782EC882E80E0CC
:102F2000982E99E0292E95E0392EC9E2D0E02FE3C2
:102F3000A22EB12C8091B1059091B205825C904097
:102F400041F09092B2058092B1050E94C90D0E9495
:102F5000880530925A05209259058FEB91E00E9426
:102F6000051000E020E830E044E150E070E060E06F
:102F700087E595E00E94550C1092C0051092E60579
:102F80001092E505D093E805C093E70568EC71E081
:102F900083E595E00E94091781E0113009F480E093
:102FA0000E94850520E030E040E251E4C301B20117
:102FB0000E94722287FF06C062ED71E083E595E012
:102FC0000E94091742E0C301B2010E94141681E079
:102FD0000E9485056CEC71E083E595E00E9409177D
:102FE0001092E6051092E505B092E805A092E7057B
:102FF00060ED71E083E595E00E94091781E01230F1
:1030000009F480E00E94850520E030E040E251E4D0
:10301000C701B6010E94722287FF06C062ED71E00F
:1030200083E595E00E94091742E0C701B6010E94BE
:10303000141681E00E94850564ED71E083E595E05A
:103040000E94091787E595E00E942017811172CF31
:10305000DF91CF911F910F91FF90EF90DF90CF9074
:10306000BF90AF909F908F907F906F905F904F90A8
:103070003F902F9008952F923F924F925F926F92C0
:103080007F928F929F92AF92BF92CF92DF92EF92F8
:10309000FF920F93CF93DF93EC0186E00E946A14B6
:1030A00060912603862F90E0982F88276091250352
:1030B000680F792F711D072E000C880B990B0E9449
:1030C0001A2320E030E048EC52E40E9477222B01E2
:1030D0003C0188E00E946A1460912603862F90E0EC
:1030E000982F882760912503680F792F711D072E6F
:1030F000000C880B990B0E941A2320E030E048EC6A
:1031000052E40E9477226B017C0187E595E00E94E2
:103110004A1742EC842E40E0942E59E2252E312CA1
:103120006FE3A62EB12C8091B1059091B205825C1F
:10313000904041F09092B2058092B1050E94C90D75
:103140000E94880589E095E090935A05809359057F
:10315000CE010E94051000E020E830E044E150E09C
:1031600070E060E087E595E00E94550C1092E6055E
:103170001092E5053092E8052092E70568EC71E0D1
:1031800083E595E00E94091720E030E040E251E439
:10319000C301B2010E94722287FF06C062ED71E096
:1031A00083E595E00E94091742E0C301B2010E9445
:1031B00014166CEC71E083E595E00E9409171092FB
:1031C000E6051092E505B092E805A092E70560EDEE
:1031D00071E083E595E00E94091720E030E040E2CD
:1031E00051E4C701B6010E94722287FF06C062ED5A
:1031F00071E083E595E00E94091742E0C701B6013E
:103200000E94141664ED71E083E595E00E940917B1
:1032100087E595E00E942017811185CFDF91CF913E
:103220000F91FF90EF90DF90CF90BF90AF909F9065
:103230008F907F906F905F904F903F902F90089568
:1032400085ED8093BC008091610390916203A09111
:103250006303B09164030796A11DB11D23E0B695E9
:10326000A795979587952A95D1F72091BC0024FDC5
:1032700003C010925F03089540916103509162036F
:103280006091630370916403452B462B472B69F3D0
:103290000097A105B10541F02AE22A95F1F700C097
:1032A0000197A109B109E1CF809160030C946F11DE
:1032B0001F920F920FB60F9211242F933F938F936B
:1032C0009F93AF93BF938091FB029091FC02A091DA
:1032D000FD02B091FE023091FA0223E0230F2D3758
:1032E00058F50196A11DB11D2093FA028093FB02AF
:1032F0009093FC02A093FD02B093FE028091FF0226
:1033000090910003A0910103B09102030196A11DC9
:10331000B11D8093FF0290930003A0930103B0932B
:103320000203BF91AF919F918F913F912F910F9089
:103330000FBE0F901F90189526E8230F0296A11D2F
:10334000B11DD2CF1F920F920FB60F9211242F935F
:103350003F934F935F936F937F938F939F93AF931D
:10336000BF93EF93FF93E0910201F0910301099560
:10337000FF91EF91BF91AF919F918F917F916F914D
:103380005F914F913F912F910F900FBE0F901F9023
:1033900018951F920F920FB60F9211242F933F93FF
:1033A0004F935F936F937F938F939F93AF93BF934D
:1033B000EF93FF93E0910001F09101010995FF91D6
:1033C000EF91BF91AF919F918F917F916F915F919D
:1033D0004F913F912F910F900FBE0F901F90189516
:1033E0001F920F920FB60F9211242F933F934F937A
:1033F0005F936F937F938F939F93AF93BF93EF935D
:10340000FF938FE893E00E945F08FF91EF91BF91D7
:10341000AF919F918F917F916F915F914F913F916C
:103420002F910F900FBE0F901F9018951F920F9223
:103430000FB60F9211242F938F939F93EF93FF93C7
:10344000E0919F03F091A0038081E091A503F091AA
:10345000A60382FD1BC090818091A8038F5F8F73AC
:103460002091A903821741F0E091A803F0E0E15711
:10347000FC4F958F8093A803FF91EF919F918F91BF
:103480002F910F900FBE0F901F9018958081F4CF51
:103490001F920F920FB60F9211242F933F934F93C9
:1034A0005F936F937F938F939F93AF93BF93EF93AC
:1034B000FF938091B900887F803609F44AC0F0F507
:1034C000883209F4A7C018F5803109F49BC0B8F41C
:1034D000882309F4F9C0883009F494C0FF91EF9172
:1034E000BF91AF919F918F917F916F915F914F911C
:1034F0003F912F910F900FBE0F901F90189588311C
:1035000009F488C0803251F780935D0314C0803481
:1035100009F49DC040F48033B9F38833F9F6809301
:103520005D0385ECB0C0803509F485C0883509F4A9
:1035300096C0883499F60E942019D0CF883909F4B2
:103540008CC038F5883729F050F4883611F0803770
:1035500029F683E080935F031092E10257C0883818
:1035600009F47BC0803919F0803809F0B7CF809119
:10357000E102803208F071C0E091E10281E08E0F3B
:103580008093E1028091BB00F0E0EF53FD4F808318
:103590003DC0803B39F0E0F4803A09F479C0883AC4
:1035A00009F09CCF84E080935F031092C0021092D8
:1035B000BF02E091E302F091E40209958091BF021D
:1035C00081110FC081E08093BF0210929F0209C059
:1035D000803C09F4A6CF883C09F4A3CF883B09F0CE
:1035E0007DCFE091C00281E08E0F8093C002F0E0B9
:1035F000E156FD4F80818093BB009091C002809185
:10360000BF0229C080913A038093BB0085EC809370
:10361000BC0064CF90915C0380915B03981758F5D0
:10362000E0915C0381E08E0F80935C03F0E0E55C49
:10363000FC4F8081E9CFE0915C0381E08E0F8093A5
:103640005C038091BB00F0E0E55CFC4F80839091CF
:103650005C0380915B039817C8F285E8D8CFE091AE
:103660005C0381E08E0F80935C038091BB00F0E0EF
:10367000E55CFC4F808380915E0381115CCF81E02B
:103680008093390384EA8093BC0010925F0326CFB5
:1036900085EC8093BC0010925F038091E102803240
:1036A00030F4E091E102F0E0EF53FD4F10826091C1
:1036B000E10270E0E091E502F091E60281EC92E037
:1036C00009951092E1020ACF10925D0334CFCF9397
:1036D000109292031092910388EE93E0A0E0B0E084
:1036E0008093930390939403A0939503B0939603D0
:1036F0002EE731E03093900320938F0325EC30E0E8
:1037000030939C0320939B0324EC30E030939E0382
:1037100020939D0320EC30E03093A00320939F037F
:1037200021EC30E03093A2032093A10322EC30E09F
:103730003093A4032093A30326EC30E03093A60338
:103740002093A5031092A8031092A9031092AA0334
:103750001092AB0310922F0410922E048093300429
:1037600090933104A0933204B093330480E991E044
:1037700090932D0480932C041092560510925505B9
:1037800089E095E09093E4058093E3051092E605C7
:103790001092E5051092E8051092E70510926F056A
:1037A00082EA91E090935405809353051092580556
:1037B0001092570510926C051092630510926405E3
:1037C00010926505109266058FEF80936D058093CA
:1037D0007105E5E7F5E08BE895E0CFEFC1938E1733
:1037E0009F07E1F785E799E090935C0580935B057F
:1037F0008AE69AE090935E0580935D0580ED92E104
:103800009093600580935F058FEB90E19093620544
:103810008093610530E020E040E069E087E595E0D5
:103820000E9475091092B2051092B10583E195E0EE
:1038300090938C0580938B0588E394E0909390059A
:1038400080938F0582E080939105109292051092EB
:10385000C0051092E0051092DC0581E08093E1053F
:103860008093E2058AEA91E090938E0580938D051E
:1038700087E595E00E94050B1092AA051092A90514
:103880001092AE051092AD058FEF9FEF9093AC05AF
:103890008093AB059093B0058093AF05E0918D05C3
:1038A000F0918E050280F381E02D87E595E0099582
:1038B00082E895E09093B4058093B3051092C30518
:1038C000C0938005C0938105C093820583E090E09A
:1038D000909339058093380582E090E090933B0502
:1038E00080933A0581E090E090933D0580933C05FC
:1038F00062E083E00E94B30662E082E00E94B306C9
:10390000809138050E945C06C82F80913A050E947C
:103910005C06880F991F8C2B80933E0510923F0503
:1039200010924005109241051092420510924305F5
:1039300010924405109245051092460510924705D5
:10394000109248051092490510924A05CF910895AA
:10395000789484B5826084BD84B5816084BD85B56A
:10396000826085BD85B5816085BD80916E00816076
:1039700080936E001092810080918100826080931C
:10398000810080918100816080938100809180001E
:103990008160809380008091B10084608093B10049
:1039A0008091B00081608093B00080917A00846043
:1039B00080937A0080917A00826080937A0080916F
:1039C0007A00816080937A0080917A008068809389
:1039D0007A001092C1001092040310920303109217
:1039E0006603109288030E9451118EED97E0909328
:1039F000E4028093E3028FED97E09093E6028093D8
:103A0000E502E0919F03F091A00382E08083E091C2
:103A10009B03F0919C031082E0919D03F0919E0323
:103A200080E180831092A703E091A303F091A403A7
:103A300086E08083E091A103F091A2038081806100
:103A40008083E091A103F091A2038081886080834C
:103A5000E091A103F091A203808180688083E091CE
:103A6000A103F091A20380818F7D808362E084E0D6
:103A70000E94B3062CED37E030930301209302013E
:103A800080916900837F846080936900E99A309314
:103A9000010120930001809169008C7F81608093F7
:103AA0006900E89A80E593ECA0E0B0E080936305BC
:103AB00090936405A0936505B0936605E0915B055E
:103AC000F0915C0530E020E040E06AE087E595E0B9
:103AD000099587E595E00E944A1787E595E00E94E1
:103AE00020178111FACF60E087E595E00E94501021
:103AF00060E087E595E00E94F50887E595E00E9483
:103B00004A1702EC10E0C9E0D5E08091B105909130
:103B1000B205825C904041F01093B2050093B1056C
:103B20000E94C90D0E948805D0935A05C09359057B
:103B300088ED91E00E94051087E595E00E9420172E
:103B40008111E3CF68EE73E080E090E00E94090706
:103B500009E813E0D0E0C0E0CE010E949921F8010D
:103B600081938F012196C630D105B1F780918903E9
:103B700090918A0381319742A0F080EC92E190937A
:103B80008A03809389038AE698E190938C0380935B
:103B90008B038CE097E190938E0380938D030E94BA
:103BA000491460918B0370918C038AE00E949513F5
:103BB00060918D0370918E038EE00E94951384E0D6
:103BC0000E9471130E943C076093F6027093F70203
:103BD0008093F8029093F90215E0212E312C03E036
:103BE000E02EF12C86E0C82ED12C92E0A92EB12C2B
:103BF00027E0822E912C08E010E084E00E945C0611
:103C0000009709F0E8C00E943C076093F6027093A9
:103C1000F7028093F8029093F9028091F5028111E6
:103C2000B8C00E943C076093F1027093F202809347
:103C3000F3029093F40281E08093F5021092F00277
:103C40000E9448078091430590914405A091450545
:103C5000B0914605EC012091ED023091EE02821701
:103C6000930709F480C040914B0550914C05609139
:103C70004D0570914E0540904F0550905005609055
:103C80005105709052054419550966097709423368
:103C900051056105710588F4821B930B4AE0489F2A
:103CA000E001499FD00D1124C20FD31FBE010D2E7C
:103CB000000C880B990B0E94CA050E943C07609378
:103CC000F6027093F7028093F8029093F9026CE188
:103CD00072E08FE893E00E940917AE010D2E000CF0
:103CE000660B770B77FF8BC0CB01BA010E94F115F1
:103CF00061E272E08FE893E00E9409174091470566
:103D0000509148056091490570914A05809143059D
:103D100090914405A0914505B091460584179507FB
:103D2000A607B7070CF071C0809143059091440538
:103D3000A0914505B09146058093470590934805AD
:103D4000A0934905B0934A056FEF7FEFCB010E9426
:103D5000F1156CEB71E08FE893E00E949615D0931B
:103D6000EE02C093ED02E091EB02F091EC02EA303A
:103D7000F10508F0EEC0E154F14E0C94E521491F25
:103D8000E81F43208520A91FB020CF20D420D720B2
:103D90004D218091F002811153CF0E943C07409049
:103DA000F1025090F2026090F3027090F4026419F4
:103DB000750986099709683E73408105910508F4E5
:103DC0003FCF84EE91E00E94F61681E08093F002EE
:103DD0008093EF0235CF019709F032CF8091F50241
:103DE000882309F42DCF1092F5028091F002811101
:103DF00027CF80E092E00E94F61681E0E9CF2AE02A
:103E00008FE893E00E94A51573CF4091470550912C
:103E100048056091490570914A058091430590914C
:103E20004405A0914505B0914605481759076A0712
:103E30007B07E4F48091430590914405A0914505EA
:103E4000B09146058093470590934805A093490596
:103E5000B0934A0541E050E0052E000C660B770B4D
:103E60002AE08FE893E00E94A51573CF8091430567
:103E700090914405A0914505B09146058093470572
:103E800090934805A0934905B0934A0550E040E05F
:103E9000E3CF0E943C07209104014090F60250902D
:103EA000F7026090F8027090F902641975098609AA
:103EB000970961367A4E8105910508F457C022238F
:103EC00059F061E087E595E00E94F5081092040141
:103ED00087E292E00E94F61686E00E946A148091C2
:103EE000260390E0982F882720912503820F911DAB
:103EF000813E904170F16AEF70E080E090E00E94B6
:103F0000090786E00E946A146091260370E0762F0C
:103F1000662780912503680F711D613EF0E17F07E0
:103F2000C0F07093EA026093E90280918B03909154
:103F30008C039093E8028093E7028CE00E94951333
:103F400082E00E94711321E030E03093EC02209374
:103F5000EB0280E090E0892B09F44FCE0E944B08E1
:103F6000882309F439CE0E94000036CE21110CC0FE
:103F700060E087E595E00E94F50881E08093040108
:103F800083E392E00E94F6168EE392E00E943B18D3
:103F90008091EF02882309F49FCF6091890370918B
:103FA0008A0390E080E00E94CA05809143059091C9
:103FB0004405A0914505B09146059093EE0280938B
:103FC000ED021093EC020093EB021092EF0284CF0B
:103FD00086E492E00E943B1886E00E946A14C09139
:103FE000E902D091EA028091260390E0982F882779
:103FF00020912503820F911DC817D90740F484E052
:104000000E9471139092EC028092EB02A2CF88E0A2
:104010000E946A148091260390E0982F88272091AF
:104020002503820F911D2091E7023091E802A9013A
:10403000440F551F4817590740F484E00E9471133C
:10404000D092EC02C092EB0284CF8217930788F4DF
:10405000BE01665F7F4F7093EA026093E9028CE0D5
:104060000E9495136AEF70E080E090E00E940907DB
:1040700070CF2597D093EA02C093E902B092EC0288
:10408000A092EB0266CF8EE492E00E943B1888E09B
:104090000E946A148091260390E0982F882720912F
:1040A0002503820F911D2091E7023091E802A901BA
:1040B000440F551F4817590708F4BFCF82179307BD
:1040C00098F46091E9027091EA026F5F7F4F7093FC
:1040D000EA026093E9028CE00E9495136AEF70E0B7
:1040E00080E090E00E9409072091890330918A03C3
:1040F0008091E9029091EA028217930708F429CF90
:10410000F092EC02E092EB0224CF88E592E00E946C
:104110003B1888E00E946A142091260330E0322F79
:10412000222780912503280F311D8091E70290916D
:10413000E802AC01440F551F4217530708F47DCF26
:104140006AE070E00E94AF212617370708F001CF20
:1041500084E00E9471133092EC022092EB02F9CEBF
:1041600082E692E00E943B1886E00E946A148091E9
:10417000260390E0982F882720912503820F911D18
:10418000803E904108F0E5CE68EE73E080E090E07C
:104190000E9409071092EC021092EB02DACE88E638
:1041A00092E00E943B18D5CE81E792E0FACF409191
:1041B0004305509144056091450570914605493A83
:1041C000E6E15E07C8F028EA36E130938A032093DF
:1041D000890368EA76E180E090E00E94CA05809158
:1041E000430590914405A0914505B09146059093F3
:1041F000EE028093ED0209C0403E30E1530708F41F
:1042000041C050938A034093890340918B0350919E
:104210008C036091890370918A0381E00E945C178E
:104220006091890370918A038CE00E9495138091BC
:10423000EF02882309F48DCE6091890370918A037F
:1042400082E70E9495130E94491460918B0370913C
:104250008C0390E080E00E94CA0580914305909114
:104260004405A0914505B09146059093EE028093D8
:10427000ED021092EF02E9E0F0E0F093EC02E0933F
:10428000EB0267CE80EE90E190938A0380938903DE
:1042900060EE70E180E090E0A0CF809143059091C6
:1042A0004405A0914505B09146058B36F8E19F077E
:1042B00038F590938C0380938B0340918B0350913E
:1042C0008C036091890370918A0382E00E945C17DD
:1042D00060918B0370918C038AE00E94951380910A
:1042E000EF02882309F435CE60918B0370918C0323
:1042F00084E70E9495130E9449141092EF024ACF5E
:104300002AE638E130938C0320938B036AE678E148
:1043100080E090E00E94CA05809143059091440599
:10432000A0914505B09146059093EE028093ED0271
:10433000C4CFF999FECF92BD81BDF89A992780B577
:104340000895262FF999FECF1FBA92BD81BD20BDD9
:104350000FB6F894FA9AF99A0FBE01960895AA1B1F
:10436000BB1B51E107C0AA1FBB1FA617B70710F060
:10437000A61BB70B881F991F5A95A9F78095909592
:10438000BC01CD010895A1E21A2EAA1BBB1BFD01A1
:104390000DC0AA1FBB1FEE1FFF1FA217B307E40724
:1043A000F50720F0A21BB30BE40BF50B661F771F7C
:1043B000881F991F1A9469F760957095809590955C
:1043C0009B01AC01BD01CF010895EE0FFF1F0590C9
:1043D000F491E02D09940E94F621A59F900DB49FC1
:1043E000900DA49F800D911D11240895A29FB001EE
:1043F000B39FC001A39F700D811D1124911DB29F19
:10440000700D811D1124911D08955058BB27AA27B6
:104410000E941D220C9490230E94822338F00E9457
:10442000892320F039F49F3F19F426F40C947F235C
:104430000EF4E095E7FB0C947923E92F0E94A12369
:1044400058F3BA17620773078407950720F079F4C9
:10445000A6F50C94C3230EF4E0950B2EBA2FA02DD5
:104460000B01B90190010C01CA01A0011124FF2721
:10447000591B99F0593F50F4503E68F11A16F0401C
:10448000A22F232F342F4427585FF3CF469537951B
:104490002795A795F0405395C9F77EF41F16BA0BE0
:1044A000620B730B840BBAF09150A1F0FF0FBB1F8E
:1044B000661F771F881FC2F70EC0BA0F621F731FD7
:1044C000841F48F4879577956795B795F7959E3F34
:1044D00008F0B0CF9395880F08F09927EE0F9795C5
:1044E000879508950E94552308F481E008950E945D
:1044F0008B220C9490230E94892358F00E948223DF
:1045000040F029F45F3F29F00C94792351110C9469
:10451000C4230C947F230E94A12368F39923B1F351
:10452000552391F3951B550BBB27AA2762177307D9
:10453000840738F09F5F5F4F220F331F441FAA1F6D
:10454000A9F335D00E2E3AF0E0E832D09150504029
:10455000E695001CCAF72BD0FE2F29D0660F771FD7
:10456000881FBB1F261737074807AB07B0E809F0BD
:10457000BB0B802DBF01FF2793585F4F3AF09E3F42
:10458000510578F00C9479230C94C4235F3FE4F335
:10459000983ED4F3869577956795B795F7959F5F85
:1045A000C9F7880F911D9695879597F90895E1E0D1
:1045B000660F771F881FBB1F621773078407BA0730
:1045C00020F0621B730B840BBA0BEE1F88F7E0958B
:1045D00008950E94A92388F09F5798F0B92F992732
:1045E000B751B0F0E1F0660F771F881F991F1AF0DE
:1045F000BA95C9F714C0B13091F00E94C323B1E05D
:1046000008950C94C323672F782F8827B85F39F05B
:10461000B93FCCF3869577956795B395D9F73EF476
:1046200090958095709561957F4F8F4F9F4F08951E
:10463000E89409C097FB3EF490958095709561953C
:104640007F4F8F4F9F4F9923A9F0F92F96E9BB27F2
:104650009395F695879577956795B795F111F8CF6E
:10466000FAF4BB0F11F460FF1BC06F5F7F4F8F4FD9
:104670009F4F16C0882311F096E911C0772321F0CF
:104680009EE8872F762F05C0662371F096E8862F67
:1046900070E060E02AF09A95660F771F881FDAF7BE
:1046A000880F9695879597F90895990F0008550FEB
:1046B000AA0BE0E8FEEF16161706E807F907C0F0A8
:1046C00012161306E407F50798F0621B730B840BB0
:1046D000950B39F40A2661F0232B242B252B21F48A
:1046E00008950A2609F4A140A6958FEF811D811D2A
:1046F000089597F99F6780E870E060E008959FEF64
:1047000080EC089500240A94161617061806090668
:10471000089500240A941216130614060506089537
:10472000092E0394000C11F4882352F0BB0F40F4BF
:10473000BF2B11F460FF04C06F5F7F4F8F4F9F4FFF
:10474000089557FD9058440F551F59F05F3F71F081
:104750004795880F97FB991F61F09F3F79F08795E8
:104760000895121613061406551FF2CF4695F1DF71
:1047700008C0161617061806991FF1CF8695710501
:10478000610508940895E894BB2766277727CB0135
:1047900097F908950E94552308F48FEF08950E9419
:1047A000E2230C9490230E94822338F00E948923F4
:1047B00020F0952311F00C9479230C947F2311247D
:1047C0000C94C4230E94A12370F3959FC1F3950F0D
:1047D00050E0551F629FF001729FBB27F00DB11D85
:1047E000639FAA27F00DB11DAA1F649F6627B00D15
:1047F000A11D661F829F2227B00DA11D621F739FFE
:10480000B00DA11D621F839FA00D611D221F749F0B
:104810003327A00D611D231F849F600D211D822F52
:10482000762F6A2F11249F5750409AF0F1F0882379
:104830004AF0EE0FFF1FBB1F661F771F881F9150A6
:104840005040A9F79E3F510580F00C9479230C94B9
:10485000C4235F3FE4F3983ED4F38695779567953C
:10486000B795F795E7959F5FC1F7FE2B880F911DD0
:104870009695879597F908950E945523880B990B73
:104880000895DC0101C06D9341505040E0F7089558
:04489000F894FFCFCA
:10489400E007E007011815A015C019FF1815A115A8
:1048A400C819FF1815AE19FF1815AF19FF1815AE62
:1048B40015D5168015A8163F15D316001540158D6D
:1048C40016141520160015A115C815DA161215812F
:1048D40016CF15D916F115DB1640152E15A415A6FD
:1048E40019FF0001140A6464323200127A000004D1
:1048F4002896100800008000400000FF010001001D
:1049040000FFFF0000010001FF000000000081081B
:10491400E1070E08CE083F081D083108000000001A
:104924004213A31246148012C30590128112000090
:104934000000F213CA1346144514050B900BD40A55
:104944006E616E00696E66006F7666000D0A005334
:10495400657474696E677300553A20002056200010
:10496400493A2000204120004650322D43686172AC
:10497400676572004C616E6765722054617374657B
:104984006E647275636B2065726B616E6E742E005B
:104994004B75727A65722054617374656E647275B6
:1049A400636B2065726B616E6E742E00706F733A68
:1049B40000206469723A00446973706C6179206FF5
:1049C400666600446973706C6179206F6E00436F92
:1049D4006E6E6563740052616D705F757000434361
:1049E4002D43686172672E0043562D4368617267D8
:1049F4002E005265616479004F432D4572726F72C7
:0A4A0400004E432D4572726F7200E0
:00000001FF
