:100000000C944E080C94DF1D0C94B81D0C947608CB
:100010000C9476080C9476080C9476080C94760868
:100020000C9476080C9476080C9476080C94760858
:100030000C9476080C9476080C9476080C94760848
:100040000C946E1D0C9476080C942C1E0C94061EB9
:100050000C9476080C9476080C9476080C94760828
:100060000C945E1E0C9476086002030304050103E1
:1000700005091100FD0BFD0DFE023904B006C2207A
:100080000919271FFFFFCF00210D19271F27B97E50
:100090004792CB7103221219271F26114A8412A1FD
:1000A000442891E3FF2300231119271F6F12D9E978
:1000B00026919D6E1239FE00241319271F2A17134B
:1000C0004D125DBBE893912C978301251319271FCF
:1000D00017D345175A955AA3E869248BE3042616CB
:1000E00019271F1731512413C924D229492221A9C4
:1000F000DD28721C270B19271F2AD71DFF5F012837
:100100001219271F2ED65DDF2172881C2287C88115
:1001100000291219271F2687C82172881C22D76739
:10012000DD51002A1319271F27A144E510A3D20E81
:10013000118D72FC09002B1019271F9FE58A87C8B3
:10014000212857C72B002C0C19271FFFDFC6EB6295
:1001500065002D0B19271FFFAD58C7BF012E0B19C6
:10016000271FFFDFC6EBB8012F1519271F492E9651
:100170008BE562B9582E968BE562B91C00301719D1
:10018000271F17A24928914D44142D24C94C22142D
:1001900019E93801310E19271F2729BB3E1E228776
:1001A000380E321119271F17A24928118AF57C88A9
:1001B0001CE238331619271F17A24928110AA97300
:1001C000884828118A8C749C00341419271F47F121
:1001D00094289189D44487C8212CA6D2713514194A
:1001E000271FF3217288C86D77885C452832D27149
:1001F00002361519271F979A496E3B0925428950E7
:10020000221419E93801370F19271FF32172882B9F
:100210006BD71D3700381519271F17A24928118AD7
:100220008C449350221419E93801391519271F17E6
:10023000A24928114A8412A1E86617D9EA38013A7E
:100240000D19271FBF8FD7B18DD771033B0E19270B
:100250001FBF8FD7B18DD7C5CA003C1219271F57B2
:10026000B1DE2172881C2287C821721C3D1119271A
:100270001FBF1E228738EC1039C4F133003E13191A
:10028000271FBB1C2287C82172881C22D63BAE00C8
:100290003F1219271F17A24928118AB5C7D1E47246
:1002A000DC00401619271F17A24928115124155D9B
:1002B0002AA2911C72B3E300411719271F27319519
:1002C000289289142587C8212294082542390E4294
:1002D0001519271FB3ED24940825279B92502294CB
:1002E0009CEC3801431419271F17A24928114AE42E
:1002F0001A254291918E1300441819271FB3ED243B
:100300009408254289502294082542C9C98E1300B9
:10031000451319271FF3217288C8E5369B5CFD1031
:1003200039C471461119271FF3217288C8E5369B1D
:100330005C779C01471719271F17A24928114AE427
:10034000228A8822940845463A4E00481A19271FE7
:10035000B3502294082542C9217288082542895049
:10036000229408E538491019271FF3217208CAF5AD
:10037000F11039C4714A1119271F57B95E8412A1AF
:10038000442832D271024B1619271FB3502213A9E9
:100390004984D431552214C99484721C4C0D1927F8
:1003A0001FB35C7F3F440E711C4D1619271FB350BD
:1003B000329A1C228788FEA34428114A84721C4E5C
:1003C0001919271FB350329390243A516413A14452
:1003D00028114A8412A11C074F1819271F17A24978
:1003E00028114A8412A14428114A8422231D27007F
:1003F000501119271FB3ED24940825279B5C779C87
:1004000001511919271F17A24928114A8412A14422
:1004100028D18964ACCB21721800521619271FB35A
:10042000ED24940825279B92502294082542390EEA
:10043000531519271F17A249289143AAF58950225D
:100440001419E93801540E19271FF3217208CAF54F
:1004500077DC00551919271FB350229408254289CB
:10046000502294082542895064A4E30456171927A2
:100470001FB35022940825428950A4261252C972F3
:10048000396E00571719271FB35022940825428947
:10049000FEE51039444613A11C07581619271FB34F
:1004A00050229408458A643151A428114A84721C50
:1004B000591419271FB3502294082542C96864248F
:1004C000CBB5E3065A1019271FF32172888BF5FD6F
:1004D0001039C4715B0D19271FCA2AD77FA7D28193
:1004E000005C1A19271F249743E472885C0E91CB95
:1004F000217239442E87C8E510B9005D0C19271FF9
:1005000046A5EB7F6507035E0F19271FB7F8542236
:10051000538AC6F1BF025F0A19271FFFFFD3E140CC
:10052000600F19271F1687C82172481CFF7F0161C1
:100530001319271FBF9B2E428950229B8858642283
:10054000390E621419271FB35CDD76124A8412A19A
:10055000442839D97102631119271FBF134D4289ED
:10056000502297436E761C641419271F57B99AE9D5
:100570002294082542895074B3E300651219271F9D
:10058000BF134D42C9217288C821373B0E660F192F
:10059000271FC729514C25CBF58E1B00671419273F
:1005A0001FBF9B2E4289502294084537BBAC48039D
:1005B000681519271FB35CDD76124A8412A14428FE
:1005C000114A84721C690F19271F27B91C4EA5EB0D
:1005D0006AB3E3026A0F19271F27B91C4EA5EB4720
:1005E000EA18006B1319271FB35C9B484D22A41611
:1005F000453225A11C076C0D19271F3B95AE5F6D79
:10060000765C006D0D19271FBFDA4E12FDFF3B0E01
:100610006E1619271FBF8A641212493293082542A9
:1006200089502294E3006F1319271FBF134D42898D
:100630005022940845463A4E00701419271FBFDA1D
:100640004E42895022940825279B5C1D0071131986
:10065000271FBF9B2E4289502294084537BB1600A6
:10066000721119271FBF8A641212493293C8B5E369
:100670000C731119271FBF5B0E11B9D52E3944EC2D
:100680003801740F19271F27B932952CD70E21CFA7
:1006900071751519271FBF0A254289502294C82653
:1006A000221699488E03761319271FBF0A254289FF
:1006B00050A4261252C972DC00770F19271FBF4AB7
:1006C000F4FF2F87903A2E00781119271FBF0A4593
:1006D0008A64B998285294E300791619271FBF0A33
:1006E000254289502294082542D1CD2E2BD2007A62
:1006F0000D19271FBF9ECE3A9FEEB8007B11192718
:10070000533C96EBAC0E9143E4BACF65007C0B19D9
:10071000271F2AD7FF7730007D1019274B3ED73B84
:10072000440E11ABEB3C96027E0E19271F3FCF22E1
:100730005A6273FC47007F0919271FFFFFCF000093
:10074000000004FFFF00006002040304050103052C
:100750000C1600FC0EFC10FE02D4061E08DC20095C
:100760006C833FFEFF2500210E6C833F76A2FAF7D3
:100770008844E5B10422156C833FAC88988898883A
:100780009888988898883CFE7700231D6C833F5694
:1007900022622242072307432262224207230743A1
:1007A000226222F2F8140024216C833FB4A8A0D561
:1007B00041CC84C4889E4DC89DDD498C89E8644243
:1007C00062E620CA50541E01251F6C833F56073134
:1007D00007227A3122522342757645225322322152
:1007E000A2373442F2D801261E6C833F5665473348
:1007F0004232432253768474264A4C646846880EFB
:100800008448E4B102270B6C833FB4A8DEE37F0980
:1008100028106C833FBCE4E096A2FAE94EE5A10102
:10082000290F6C833FACE84EF597835BCA23012AFE
:10083000166C833F76A262224A0E86CC8C0E46341A
:100840001395C7C7002B116C833F5E886A763072A0
:100850003026AA3DDE002C106C833FFE534942CA6D
:1008600051C9C1A581002D0B6C833FFEC4CC1E7FF6
:10087000042E0D6C833FFE5349424A799C012F1B85
:100880006C833F1A51495149514951495149514984
:1008900051495149514951510030246C833F5656BA
:1008A00007314323522342243225221322122322CA
:1008B00035224422532243330751F6D80131116CBB
:1008C000833F76A2724DF567072307F3580132176D
:1008D0006C833F56560731432362A29283FBF0603C
:1008E000E4601E2B00331C6C833F565607314323B4
:1008F00062A2927284A5A322622243330751F6D8E2
:1009000001341B6C833F96928374651352234233E8
:10091000428A0E460E064505CDECB102351B6C83AE
:100920003F3607230723A2A2074107A2A39A88897B
:100930000CCD1C44D96307361F6C833F5656479332
:10094000A2074107325223622262226222622243BC
:10095000330751F6D80137126C833F36072307A3BC
:100960005A0E6E29AA7B2C0138216C833F565607FC
:1009700031432362226232425256073143236222BC
:10098000622243330751F6D801391F6C833F565614
:1009900007314323622262226222622253320742DB
:1009A00007A1924357F6D8013A126C833F5E4B126F
:1009B00052CA239224A494C719003B146C833F5E4F
:1009C0004B1252CA239224A41C951C5C1A083C0F9B
:1009D0006C833FB692837B39BAA7F258013D126C03
:1009E000833F3E3B183998873D183998C787003EAA
:1009F0000E6C833F56A2FB72702FE5B1053F176C5A
:100A0000833F56560731432362A292835BCA231267
:100A100095C71200401E6C833F5656073143236230
:100A20002232252226FA89890C8DE8E881D0413CC2
:100A30005600411F6C833F76928474226222524298
:100A4000DA88891C8C1C8C88898889888988C96384
:100A50000542246C833F36074107325223622262EB
:100A60002252320741073252236222622252230766
:100A70003207F1D80143186C833F565607314323A0
:100A80006222A2FA4C6468E620CA1E3B0044246C31
:100A9000833F36074107325223622262226222627A
:100AA0002262226222622262225223073207F1D896
:100AB0000145196C833F3607230723A29A1E041DA4
:100AC00004896A7A3072308F150046156C833F3680
:100AD00007230723A29A1E041D0489EA3DD6004776
:100AE0001F6C833F5656073143236222A28A4884F3
:100AF00048C444C444C44486660EA2ECB1034824EE
:100B00006C833F3662226222622262226222622269
:100B1000072307236222622262226222622262F299
:100B2000580149136C833F3607230763A2FA67070E
:100B30002307F358014A166C833FB6A2FA899888B6
:100B4000988898C8D0CC41943D76004B216C833F67
:100B50003652234233324322531263758475126333
:100B6000225332434233522362F258014C0F6C83BA
:100B70003F36A2FA9F1E8C1CCC63054D1F6C833F31
:100B800036622243234C0E46242844F49F898889E8
:100B900088898889888988C963054E256C833F3692
:100BA000622253224422352212234A2644644A8474
:100BB00048A446C444C444C444C444C4E4B1024F39
:100BC000226C833F565607314323622262226222FF
:100BD0006222622262226222622243330751F6D8E5
:100BE00001501B6C833F3607410732522362226259
:100BF00022522307320741A27A8F350051236C839A
:100C00003F565607314323622262226222622262E9
:100C100022622262229A4CD81C449D8ECAC3025280
:100C2000246C833F360741073252236222622252EC
:100C3000320741073252236222622262226222621A
:100C4000F25801531C6C833F5656073143236222EE
:100C5000A2A367A7A322622243330751F6D8015407
:100C60000F6C833F3607230763A2FADF630955231E
:100C70006C833F36622262226222622262226222F8
:100C80006222622262226222622243330751F6D834
:100C900001561E6C833F3662226222622262226209
:100CA000226232425A898889C811528ACA63095716
:100CB0001F6C833F366222622262226222622262BB
:100CC00022FA2F28440E46980C8D88C963055820B7
:100CD0006C833F366222622262224333235376843E
:100CE0007456233343236222622262F25801591B55
:100CF0006C833F3662226222622262226222433386
:100D000023537694A2BAC712005A156C833F360754
:100D10002307A39283FBA5E8C1C8C13C56005B0F23
:100D20006C833F3421A1A8FE9F12D243035C196C4F
:100D3000833FA85A515951595159515951595159F3
:100D40005159515951015D0D6C833F2C21A9FE3F32
:100D5000648F005E126C833F769274562333433364
:100D600061F1F8C7005F0B6C833FFE7F7FF060008E
:100D7000600C6C833FACE85279FCBF01611D6C8351
:100D80003F3E3C883910991211131113911A112208
:100D900019A9B1102291C70A00621E6C833F36A2C6
:100DA0009A1E041DC8488D88898889888988894841
:100DB0008D1CC81CC4630763176C833F3EB43A881C
:100DC000191A111311553A7A2074108F1500641EE8
:100DD0006C833FB6A21A1DC41C884C8988898889F7
:100DE000888988894CC91C081DC46305651A6C83F1
:100DF0003F3EB43A88191A111339183918111D3D9C
:100E0000103A88C70A0066116C833F967465938216
:100E10006686A2FA3D9600671F6C833F3E3C883988
:100E20001099121113111311131113999239103AC9
:100E300008951CBA3202681E6C833F36A29A1E04C3
:100E40001DC8488D88898889888988898889888982
:100E500088C9630569116C833F76A2F2480849F599
:100E6000A1993D76006A116C833F76A2F248084949
:100E7000F52FC7EA08016B1C6C833F36A23A9A91A2
:100E8000191299921833BB1A19129A911A1193C711
:100E90000A006C0E6C833F5684A4FA0FCDECB103AC
:100EA0006D136C833F3E3B083A90119118D1FFFFC0
:100EB0007BAC006E1D6C833F3E132192B02919213B
:100EC00012991211131113111311131193C70A0060
:100ED0006F1B6C833F3EB43A88191A11131113111A
:100EE000131113199A3988B2C70E00701E6C833F14
:100EF0003E3B083A90911A111311131113111391DB
:100F00001A3990390812D51400711D6C833F3E3C8C
:100F10008839109912111311131113111399923961
:100F2000103A08D5090072146C833F3E132192B029
:100F3000291921129914D53DD60073176C833F3EB1
:100F40003C88391011953DBB151539903988C70E6D
:100F50000074126C833F76A21A9A198AEA74B490CC
:100F60001E2B00751C6C833F3E5322262226222610
:100F70002226223522443252632144228F150076E4
:100F8000176C833F3E532226222623A495C89488BB
:100F90001C21A53C960077116C833F3E13D1FFFFC7
:100FA0006F0EA244E4B10378186C833F3E53323491
:100FB0003332654748673532333422268F1500793E
:100FC0001E6C833F3E5322262226222622262226DC
:100FD00022263225732074102A397465047A126C23
:100FE000833F3E3B183918DC87072307F358017B02
:100FF000136C839BE4E0A4A85E0E4E8E8EEAD3A50C
:1010000042007C0B6C833FB4A8FEFF3D027D126C56
:10101000838BE8527DBA727052542F072705017EE8
:10102000106C833F3E149229515223248F3F027F3C
:10103000096C833FFEFF250000000004FFFF000055
:1010400000000000240027002A0000000000250006
:1010500028002B00000000002300260029000404C3
:101060000404040404040202020202020303030350
:10107000030301020408102040800102040810202C
:101080000102040810200000000800020100000313
:10109000040700000000000000007D1F11241FBE97
:1010A000CFEFD8E0DEBFCDBF12E0A0E0B1E0EAEFC5
:1010B000F2E502C005900D92A83AB107D9F726E0F3
:1010C000A8EAB2E001C01D92AE31B207E1F718E024
:1010D000CEE4D8E004C02197FE010E941827CD3449
:1010E000D107C9F70E94BE200C947B290C94000004
:1010F000662329F06A3019F0862F90E008958FEF6B
:101100009FEF0895AF92BF92CF92DF92EF92FF923E
:101110000F93CF93DF93EC01DA017901942F97704D
:10112000E1E0F0E09F01092E01C0220F0A94EAF7E6
:10113000522F6E018AE8C80ED11CF601808140E072
:10114000823018F4422F813049F15D01F8EFAF226F
:10115000E8ADF9AD28813981D90150968C918A9DED
:1011600090018B9D300D1124620F731FDF01A60FBC
:10117000B71F01111AC0EA0EFB1E8C91842B852724
:101180008D93AE15BF05C9F7DF91CF910F91FF90F9
:10119000EF90DF90CF90BF90AF90089550E0D5CF03
:1011A000440F550FE114F10479F33C91342B3527AA
:1011B0003C939F5F9770E1E0EE1AF1089111F0CF38
:1011C0002CAD3DADA20FB31FF6018081823028F413
:1011D000813009F051E041E0E5CF51E0E3CF80E01C
:1011E000089590E080E00895809316060895809118
:1011F000350390913603891B990B0895CF92DF92A6
:10120000EF92FF920F931F93209171053091720519
:101210002130310534F02330310554F023303105CD
:10122000D1F11F910F91FF90EF90DF90CF90089533
:10123000C0907405D0907505E0907605F090770524
:101240008B019C0152E0000F111F221F331F5A9582
:10125000D1F743E0C422DD24EE24FF240C291D290C
:101260002E293F2900937405109375052093760568
:1012700030937705609378057093790580937A05AC
:1012800090937B0560937C0570937D0580937E052C
:1012900090937F05C6CFC0907405D0907505E090FF
:1012A0007605F09077058B019C01000F111F221F1E
:1012B000331F41E0C422DD24EE24FF24CFCF9B0165
:1012C000DC011896ED91FC9141E067E109948330CF
:1012D00081F028F4813099F08230A9F008958730A8
:1012E000A9F08830C9F08430B1F4809180008F7DFE
:1012F00003C0809180008F7780938000089584B52B
:101300008F7784BD089584B58F7DFBCF8091B00029
:101310008F778093B00008958091B0008F7DF9CFD2
:10132000CF93DF93282F30E0F901EA57FF4E8491E5
:10133000F901EE58FF4ED491F901E25AFF4EC491E3
:10134000CC23A1F081110E946709EC2FF0E0EE0F91
:10135000FF1FEC5AFF4EA591B491EC91ED2381E073
:1013600090E009F480E0DF91CF91089580E090E073
:10137000FACF1F93CF93DF93282F30E0F901EA577C
:10138000FF4E8491F901EE58FF4ED491F901E25AD3
:10139000FF4EC491CC23A9F0162F81110E9467093A
:1013A000EC2FF0E0EE0FFF1FE65BFF4EA591B4912E
:1013B0008FB7F894EC91111108C0D095DE23DC931F
:1013C0008FBFDF91CF911F910895DE2BF8CFCF9380
:1013D000DF9390E0FC01EE58FF4E2491825A9F4E1D
:1013E000FC0184918823D1F090E0880F991FFC01C3
:1013F000E05CFF4EA591B491FC01E65BFF4EC59108
:10140000D491623071F49FB7F8943C91822F80950B
:1014100083238C93E8812E2B28839FBFDF91CF916C
:1014200008958FB7F894EC912E2B2C938FBFF6CFA5
:101430003FB7F8948091310390913203A091330328
:10144000B091340326B5A89B05C02F3F19F0019633
:10145000A11DB11D3FBFBA2FA92F982F8827BC010E
:10146000CD01620F711D811D911D42E0660F771F36
:10147000881F991F4A95D1F708958F929F92AF9236
:10148000BF92CF92DF92EF92FF926B017C010E949C
:10149000180A4B015C01C114D104E104F104B9F054
:1014A0000E94180A681979098A099B09683E7340E5
:1014B0008105910580F321E0C21AD108E108F10805
:1014C00088EE880E83E0981EA11CB11CE4CFFF902B
:1014D000EF90DF90CF90BF90AF909F908F90089546
:1014E0002FB7F89460912D0370912E0380912F03F4
:1014F000909130032FBF08950F931F93CF93DF93E5
:1015000080916D050E949009182F80916F050E94AF
:101510009009EC010E94700AAB01BC01CC0FDD1FE9
:10152000C12B80917305C81709F46AC0E091730557
:10153000009174051091750520917605309177051D
:1015400084E0E802F00111248C2F0C2E000C990B82
:10155000E82BF92BE659FE4F9081892F990F990BB3
:10156000AA0BBB0B800F911FA21FB31F80937405A2
:1015700090937505A0937605B0937705C093730596
:10158000809171059091720582309105B9F1833097
:101590009105D9F10197A1F5C33091F580917405BA
:1015A00090917505A0917605B091770532E0B595DB
:1015B000A795979587953A95D1F78093780590935D
:1015C0007905A0937A05B0937B0580918005909171
:1015D0008105A0918205B091830580938405909345
:1015E0008505A0938605B0938705409380055093A9
:1015F0008105609382057093830502C0CC2371F24C
:10160000DF91CF911F910F910895CC2311F0C3303A
:10161000B9F78091740590917505A0917605B09108
:101620007705B595A79597958795C7CF0C947C0AB4
:10163000089508950895AF92BF92CF92DF92EF92EE
:10164000FF920F931F93CF93DF936C017B018B016C
:10165000040F151FEB015E01AE18BF08C017D107BC
:1016600059F06991D601ED91FC910190F081E02D46
:10167000C6010995892B79F7C501DF91CF911F919B
:101680000F91FF90EF90DF90CF90BF90AF900895B3
:10169000FC01538D448D252F30E0842F90E0821B78
:1016A000930B541710F0CF96089501970895FC01FD
:1016B000918D828D981761F0A28DAE0FBF2FB11D55
:1016C0005D968C91928D9F5F9F73928F90E00895AD
:1016D0008FEF9FEF0895FC01918D828D981731F067
:1016E000828DE80FF11D858D90E008958FEF9FEFBB
:1016F0000895FC01918D228D892F90E0805C9F4F91
:10170000821B91098F739927089584EC93E00E94BE
:10171000790B21E0892B09F420E0822F089580E0E5
:1017200090E0892B29F00E94850B81110C94000018
:101730000895FC01A48DA80FB92FB11DA35ABF4F66
:101740002C91848D90E001968F739927848FA689C0
:10175000B7892C93A089B1898C91837080648C9314
:10176000938D848D981306C00288F389E02D8081C3
:101770008F7D80830895EF92FF920F931F93CF93F5
:10178000DF93EC0181E0888F9B8D8C8D98131AC0BC
:10179000E889F989808185FF15C09FB7F894EE89A3
:1017A000FF896083E889F989808183708064808300
:1017B0009FBF81E090E0DF91CF911F910F91FF904B
:1017C000EF900895F62E0B8D10E00F5F1F4F0F73F3
:1017D0001127E02E8C8D8E110CC00FB607FCFACFAE
:1017E000E889F989808185FFF5CFCE010E94990BA8
:1017F000F1CFEB8DEC0FFD2FF11DE35AFF4FF0827F
:101800009FB7F8940B8FEA89FB8980818062CFCFE4
:10181000CF93DF93EC01888D8823B9F0AA89BB8927
:10182000E889F9898C9185FD03C0808186FD0DC012
:101830000FB607FCF7CF8C9185FFF2CF808185FF33
:10184000EDCFCE010E94990BE9CFDF91CF910895A2
:10185000DC011A96ED91FC9130E020E00994462FCE
:10186000DC011496ED91FC9130E020E06BE00994EE
:10187000DC011696ED91FC9130E020E040E069E15A
:101880000994DC011696ED91FC9130E020E040E0F7
:1018900068E109949A01DC011696ED91FC91462FBE
:1018A00067E10994EF92FF920F931F93CF93DF9319
:1018B0001F92CDB7DEB77C018B01D8016C916731E7
:1018C00029F150F46531A0F40F90DF91CF911F9171
:1018D0000F91FF90EF9008956A3118F16E3FA1F7D4
:1018E000F8014181498369E2C7010E94280C0BC0BD
:1018F000F80141814983D7011696ED91FC9130E0C2
:1019000020E0C70109950E5F1F4FD7CFF8018181F5
:101910008983AE014F5F5F4F61E0C7010E944A0CAF
:10192000F2CF0F5F1F4FD7011696ED91FC9130E07B
:1019300020E040E0C7010995C0CF462FDC01169694
:10194000ED91FC9130E020E066E10994462FDC0146
:101950001696ED91FC9130E020E065E10994EF925C
:10196000FF920F931F93CF93DF93EC01042F790124
:101970006D3009F446C050F46B30C9F1693009F498
:101980009FC06A3009F465C080E046C06E3009F43B
:1019900052C06F3099F70E94410CF7011381110F6B
:1019A000110F110F6C89160F60E4CE010E94A60C76
:1019B000612F62956F706061CE010E94A60C612F4D
:1019C0006F70CE010E949D0CF7016481606BCE01A7
:1019D0000E949D0CF701408151816281660F660F64
:1019E000660FCE010E944A0C0150A1F72EC068E19B
:1019F00071E0442311F063E171E0CE010E94520CCA
:101A00000AC0411110C06CE071E00E94520CE881E4
:101A1000F98182898C8B81E0DF91CF911F910F91A9
:101A2000FF90EF90089565E071E00E94520CE8810C
:101A3000F9818389EFCF0E94410C61E8CE010E94B9
:101A4000A60C602FCE010E949D0CCE010E94380C86
:101A5000E2CFEA85FB8530E020E040E068E2CE019D
:101A60000995EE81FF8130E020E040E064E1CE01A5
:101A7000099541E06BE4CE010E94280CE881F981D0
:101A8000448169E2CE010E94280C40E06BE4CE0163
:101A90000E94280CE881F981448169E2CE010E940C
:101AA000280C41E06BE4CE010E94280CE881F9810A
:101AB000458169E2CE010E94280C6DE171E09DCF65
:101AC00082E591E0998388831C8AA5CFDC01189672
:101AD000ED91FC9130E020E040E069E10994DC0107
:101AE0001896ED91FC9130E020E040E068E1099427
:101AF000CF93DF931F92CDB7DEB76983BE016F5FCF
:101B00007F4F0E945F090F90DF91CF910895EF9270
:101B1000FF921F93CF93DF93EC01162F7A010E945F
:101B20006F0D60E4CE010E94780DE885F98597017C
:101B3000412F67E1CE010995CE01DF91CF911F9131
:101B4000FF90EF900C94660DEF92FF921F93CF934E
:101B5000DF93EC01142F7901663181F138F464319F
:101B600009F44BC0653179F080E022C06831C9F1D9
:101B700050F16931C9F780911003882391F1CE01AA
:101B80000E94660D2EC080911003882319F0CE01AB
:101B90000E94660DCE010E946F0D60E0CE010E9492
:101BA000780D612FCE010E94780D81E080931003A3
:101BB000DF91CF911F91FF90EF900895642F0E94C5
:101BC000780D81E0F5CF80911003882319F0CE01C4
:101BD0000E94660DA701193138F4612FCE010E94D1
:101BE000870D10921003EDCF68E1CE010E94870DA2
:101BF000185188E1E80EF11CEDCF8E898F3F11F46A
:101C000088E78E8BE885F9859701412F64E1CE0145
:101C1000DF91CF911F91FF90EF9009940F93FC01FA
:101C2000E85BFF4F0190F081E02DDF01A41BB50BB5
:101C3000AD01FC01EA5BFF4F0190F081E02DDF0177
:101C4000A61BB70BBD01011113C041505109621B06
:101C5000730BFC01E05CFF4F0190F081E02D4E1B07
:101C60005F0BDC01D496ED91FC9109950F910895DD
:101C7000013079F761507109421B530BEACFCF93C2
:101C8000DF93FC01A081B18182AD90E09C0143E033
:101C9000220F331F4A95E1F737AF26AF50962C91AC
:101CA000509748E0249F9001112435AF24AF23AD15
:101CB00030E0B90153E0660F771F5A95E1F7EF0165
:101CC000C05CDF4F7983688351964C915197E9014D
:101CD000C80FD91F50E04C175D0718F4CA01821BCA
:101CE000930BEF01CE5BDF4F79836883229623E06D
:101CF000880F991F2A95E1F7860F971F998388838C
:101D0000229654968D919C91559799838883E85B90
:101D1000FF4F56968D919C9191838083DF91CF9157
:101D200008950F931F93FC01E25BFF4F0190F08138
:101D3000E02DDC01A05BBF4F0D90BC91A02D4A1798
:101D40005B0740F4E017F10748F00417150730F07F
:101D500080E019C0E017F107C0F3FACFFC01E65BA1
:101D6000FF4F40815181845B9F4FFC0180819181B5
:101D70006817790758F481E04217530720F081E093
:101D80002617370728F71F910F9108954217530719
:101D9000B0F3DECF2F923F924F925F926F927F927D
:101DA0008F929F92AF92BF92CF92DF92EF92FF926B
:101DB0000F931F93CF93DF93CDB7DEB728970FB65E
:101DC000F894DEBF0FBECDBF98878F83865B9F4F91
:101DD0009A838983FC0111821082EF81F885EA5B86
:101DE000FF4F208031802F813885245B3F4F3C831B
:101DF0002B83F90131822082EF80F884FEE4EF0E1C
:101E0000F11CF70111821082EF81F885E85BFF4F2A
:101E100040805180EF81F885EC5BFF4F208131815C
:101E20004216530630F0C201821B930BF7019183D7
:101E30008083EF81F885EE5BFF4F20813181421A6C
:101E4000530A2F813885205B3F4F3E832D83F90154
:101E500051824082EF81F885E85AFF4F608071809F
:101E6000EF81F885EC5AFF4FA080B180EF81F885B3
:101E7000EA5AFF4FC080D180EF81F885EE5AFF4FBC
:101E80008080918083019501A601B4018F8198859E
:101E90000E94910E2F8138852C573F4F38872F8312
:101EA00081111BC0F901108228960FB6F894DEBF8D
:101EB0000FBECDBFDF91CF911F910F91FF90EF909B
:101EC000DF90CF90BF90AF909F908F907F906F905A
:101ED0005F904F903F902F90089581E0EF81F885BB
:101EE00080838114910421F0E981FA8191828082BA
:101EF000A214B30420F4EB81FC81B182A082F7012B
:101F0000808191818C159D0510F4D182C08264146A
:101F1000750450F6ED81FE8171826082C5CF0F930A
:101F2000CF93DF93E02FDC01AC57BF4FFC91FF2331
:101F300009F460C02115310509F45CC02230310577
:101F400038F0023009F04AC06F5F7F4F621B730B9D
:101F50000E2F0170E0FD52C0FC01E25BFF4F0190CB
:101F6000F081E02D4E175F0708F444C0FC01E05BF0
:101F7000FF4F0190F081E02D4E175F07D8F5FC016F
:101F8000E45BFF4F0190F081E02DDC01A65BBF4FC9
:101F90000D90BC91A02D260F371F2617370738F557
:101FA0006E177F0718F59F0121503109A217B3075B
:101FB00008F56A177B0708F4BD012E173F0708F4E0
:101FC000F901E61BF70BEC01AEA9BFA914960D9021
:101FD000BC91A02D9F01FD0109950CC0033009F0B3
:101FE000B7CF4F5F5F4F421B530BB2CFBD016E1790
:101FF0007F07E0F2DF91CF910F910895FC01E65B3E
:10200000FF4F0190F081E02D6E177F0798F3FC01E0
:10201000E45BFF4F0190F081E02D6E177F0750F7D2
:10202000FC01E05BFF4F0190F081E02DDC01A25B41
:10203000BF4F0D90BC91A02D240F351F24173507DD
:10204000A8F44E175F0788F49F0121503109A217A9
:10205000B30780F64A175B0708F4AD012E173F0758
:1020600008F4F901E41BF50BAECFAD014E175F0785
:1020700008F6EDCF213069F038F0223079F0840F86
:10208000911D47FD9A950895860F911D67FD9A95BC
:102090000895841B910947FD93950895861B910926
:1020A00067FD93950895213069F038F0223079F07A
:1020B000861B910967FD93950895840F911D47FD37
:1020C0009A950895860F911D67FD9A950895841B32
:1020D000910947FD939508953F924F925F926F92B9
:1020E0007F928F929F92AF92BF92CF92DF92EF92A8
:1020F000FF920F931F93CF93DF937C01162F442EF3
:10210000EC01C25ADF4F5E806F806C018AE8C80E16
:10211000D11C78847518312E711608F4372C8C80F8
:102120009D800E85202F462D652D8A819B810E94E2
:102130003A105C01202F462D652DC4010E945310DA
:10214000AC01442079F08C85F6018083232D30E0AA
:10215000B501C7010E948F0F171548F01719639436
:10216000512CD7CF8B858111F7CF8D85EDCF150DF4
:102170001E836F82DF91CF911F910F91FF90EF909F
:10218000DF90CF90BF90AF909F908F907F906F9097
:102190005F904F903F900895DC011A964C911A97EA
:1021A000ED91FC911197249130E0042E02C03595F9
:1021B00027950A94E2F7842F860F883068F03196CD
:1021C0001196FC93EE93E49198E0941B01C0EE0FFE
:1021D0009A95EAF72E2B88501A968C938FEF9FEFE3
:1021E00001C0880F6A95EAF7809582230895FC0163
:1021F000E60FF11D849190E0982F88273196E491A5
:102200008E0F911D0895CF93DF932091E6053091B5
:10221000E7052817390709F490C0EC019093E7050A
:102220008093E605FC0184918093F9053196E49151
:10223000E093FA05FE013296E491E093FB05FE017E
:102240003396E491E093FC05FE013496E491E0932B
:10225000FD05FE013596E491E093FE05FE013696FC
:10226000E491E093FF05FE013796E491E0930006C8
:10227000FE013896E491E0930106FE013996E4915F
:10228000E0930206FE013A96E491E0930306FE0114
:102290003B96E491E0930406FE013C96E491E093C2
:1022A0000506FE013D96E491E0930606FE013E968A
:1022B000E491E0930706FE013F96E491E09308065F
:1022C000FE017096E491E093090661E1CE010E945F
:1022D000F71090930B0680930A0663E1CE010E94EB
:1022E000F71090930D0680930C0665E1CE010E94D5
:1022F000F71090930F0680930E068091E60590915B
:10230000E705892BD1F08091060680931206409153
:1023100007064093130690911106992371F09130AE
:1023200079F490910806891714F49093120680911D
:102330000906841714F480931306DF91CF91089552
:102340003091030620910506082E000C990B622F90
:10235000022E000C770B630F711D37FD7A958617DF
:1023600097071CF4320F30931206241734F720938A
:102370001306E3CF4F925F926F927F928F929F925C
:10238000AF92BF92CF92DF92EF92FF920F931F9383
:10239000CF93DF93EC016B018A017901FC01E459D1
:1023A000FF4F8081813009F44BC008F43EC0823079
:1023B00009F451C0833009F459C0FE01E05AFF4FBF
:1023C000D182C082329611830083389780819181B7
:1023D00047962FEFE216F10411F008F0F2C0E1E6A3
:1023E000EE16F10408F44DC0FE01E058FF4F2081C5
:1023F0003181820F931F9C012F5F3F4FF901449160
:10240000411148C090E080E0DF91CF911F910F9182
:10241000FF90EF90DF90CF90BF90AF909F908F9004
:102420007F906F905F904F900895FE01E45AFF4FA8
:102430000190F081E02DCE010995080F191FBDCF45
:10244000FE01E45AFF4F0190F081E02DCE01099585
:10245000C81AD90AB2CFFE01E45AFF4F0190F081A9
:10246000E02DCE010995081B190BA7CFFE01E45AF8
:10247000FF4F0190F081E02DCE010995C80ED91EC5
:102480009CCFF1E4EF16F10408F4B5CFFE01E25859
:10249000FF4FADCFFC0144914E151F0409F08CC0D5
:1024A0000296009709F4AECF7E01FEE5EF0EF11C17
:1024B000F70191838083128673966081C7010E9421
:1024C000CC10F701808774966081C7010E94CC1000
:1024D000982EF70181875E01FAE8AF0EB11CF50175
:1024E0009081F701948781E0911180E0F701858761
:1024F000FE01ED58FF4FC0806C2DC7010E94CC102B
:10250000582EFE01EC58FF4FD0806D2DC7010E9460
:10251000CC10482EFE01EB58FF4F1081612FC701F0
:102520000E94CC109FEF910F01E010E0980101C0D4
:10253000220F9A95EAF7882E821AF7016084161402
:102540000CF0ADC0CA94C80101C0880FCA94EAF764
:10255000581A7684490CDA94A80101C0440FDA9421
:10256000EAF7F42FF4194F2E272D4F2F652DF70181
:10257000828193810E943A106C01F70193838283D8
:10258000272D442D652D848195810E945310F701DC
:1025900095838483F1E07F1609F485C07F1608F4E3
:1025A0003FC022E0721609F48DC0E3E07E1609F404
:1025B0009DC0BC0196013EC0F9012491820F911D7E
:1025C0001ACFFE01EE57FF4F00811181080F191F2E
:1025D000680160E0C6010E94F710080F191F62E051
:1025E000C6010E94F710F4E0CF0ED11C8E159F0596
:1025F00080F3F801849190E0982F88273196E49138
:102600008E2B009709F4FECEE816F90619F4C801DE
:10261000039647CFF8013296E4910E0F111DE9CFD2
:102620009601260D311D67FC3A95BC01690D711D9F
:1026300097FC7A958B01AC01B601CE010E94910EF8
:10264000882369F1F701168217828E0101591F4F05
:102650006E01F0E7CF0ED11CF8016081C7010E9426
:10266000CC10682EF6016081C7010E94CC10782E34
:1026700040E0662DCE010E946C1041E0672DCE0136
:102680000E946C1061E0C7010E94CC108111F0CF54
:10269000F7018781891504F38485F5018083882DEE
:1026A000880C990BB1CE0919110997FC1395960165
:1026B0002F5F3F4FBC01660D711D67FC7A95C00E00
:1026C000D11EB8CFA8014619510967FC5395960150
:1026D0002F5F3F4F0919110997FC1395BC016F5FDC
:1026E0007F4F800F911FC40ED51EA4CF9601290DD8
:1026F000311D97FC3A950619110967FC1395BC0129
:102700006F5F7F4F800F911F95CFCF92DF92EF9237
:10271000FF920F931F93CF93DF93EC018B011092E5
:10272000A4057A01D12CC12CF70161917F01E091C0
:102730008E05F0918F058CE895E009958F3F9807FD
:1027400019F18E3F2FEF920779F39C01A801BE018A
:102750008CE895E00E94BA112091F805213059F0DB
:1027600038F0223059F0233061F0C80ED91EDCCF8A
:10277000C80FD91FFACF080F191FF7CFC81BD90BE5
:10278000F4CF081B190BF1CFC601DF91CF911F9138
:102790000F91FF90EF90DF90CF900895CF93DF934C
:1027A000EC016BAFEEA9FFA90190F081E02D099536
:1027B000EEA9FFA90280F381E02DCE01DF91CF9138
:1027C0000994AF92BF92CF92DF92EF92FF920F9354
:1027D0001F93CF93DF9300D000D01F92CDB7DEB709
:1027E0008C01DC01DA96AC90DA97DB96EC90DB9703
:1027F000ED91FC91B188FE2CD12CC12CD801ED912A
:10280000FC9111978089D8962D913C911C82FD8274
:102810008B83B8E08B9FC00111248C9DA0018D9DFE
:10282000500D9C9D500D1124240F351F3A83298390
:10283000D8011496ED91FC919E012F5F3F4F41E02E
:102840006FE0C8010995F3948F2D8E198A1528F42D
:10285000BFEFCB1ADB0AFB1488F20F900F900F909A
:102860000F900F90DF91CF911F910F91FF90EF90FC
:10287000DF90CF90BF90AF9008950F931F93CF93A9
:10288000DF938C01C62F642FCC32B0F4CA32D0F55E
:10289000C83239F1C932E1F180E0C034A0F1CF7320
:1028A000F801EC0FF11D868D8F3F61F1C03108F00A
:1028B00045C00E94B90926C0CD3281F168F384EB8E
:1028C0008C0F823048F7CF73C00FD12FD11D8E8D62
:1028D000411132C00E94B90961E08E8D0E94E70962
:1028E00011C0025E1F4FD0E0F80181918F018F3F30
:1028F00031F061E0D03108F062E00E94E709DF5F6B
:10290000D63191F781E0DF91CF911F910F9108951A
:1029100070E090E080E00E943D0AF4CF85E090E016
:10292000433010F082E090E0880F991F880F991FC4
:1029300005970197F1F7E6CF62E0D0CF0E949009AA
:1029400021E0892B09F420E0F801218FDBCF2091D1
:10295000ED02260F3327331F21323105ECF420918D
:102960009103FC0190E080E0243069F082E008955A
:10297000A091ED022191AC0143535D4FA40FB52FFF
:10298000B11D2C930196861798F38091ED02680F84
:102990006093ED0280E0089581E008951092910324
:1029A00081E08093900310926B0361E082E10E94CA
:1029B000B90961E083E10E94B909E9EBF0E08081A7
:1029C0008E7F808380818D7F808388E48093B800B0
:1029D00085E48093BC000895CF93DF9391E09093BA
:1029E000CC028823B9F0C091B800D091BA00809190
:1029F000BC008A7B8093BC0060E082E10E94B90940
:102A000060E083E10E94B9090E94CE14D093BA001D
:102A1000C093B800DF91CF9108958F929F92AF92AB
:102A2000BF92CF92DF92EF92FF920F931F93CF93BB
:102A3000DF93D091BA03D13208F0D7C0182FC091DC
:102A4000B9030E94180A6B017C01809191038111E6
:102A50006BC082E080939103109390038FEF80937B
:102A60008F0310928E03D0938D03A9E9B3E0EDE6B6
:102A7000F3E080E0D81391C010926C0380916C0356
:102A8000CC0FC82BC0936C0380916B03813009F08D
:102A900088C010926B030E94180A6B017C01809120
:102AA0006C038093BB008091930390919403A09159
:102AB0009503B0919603892B8A2B8B2BA1F00E9452
:102AC000180A00919303109194032091950330917B
:102AD00096036C197D098E099F09061717072807A9
:102AE000390708F442C08091BC0083FDD8CF85EC43
:102AF0008093BC000E94180A6B017C0180919103B5
:102B0000823009F450C080918F038F3F09F46FC069
:102B100080918F03803209F46CC080918F038033E1
:102B200009F469C084E026C08091930390919403D6
:102B3000A0919503B0919603892B8A2B8B2B09F4D6
:102B400084CF0E94180A8090930390909403A090E1
:102B50009503B09096036C197D098E099F0986161E
:102B60009706A806B90608F070CF809192030E94DC
:102B7000EC1485E0109298031092BA031092970318
:102B8000DF91CF911F910F91FF90EF90DF90CF9049
:102B9000BF90AF909F908F9008959D9191938F5F7C
:102BA00069CF85EEA5CF8091930390919403A09176
:102BB0009503B0919603892B8A2B8B2B09F49ECF1A
:102BC0000E94180A00919303109194032091950399
:102BD000309196036C197D098E099F090617170716
:102BE0002807390708F08ACFC0CF81E0C3CF80E043
:102BF000C1CF82E0BFCF83E0BDCF0895E09136031F
:102C000080913503E81730F4F0E0E95CFC4F8081F7
:102C100090E008958FEF9FEF089590913603809193
:102C200035032FEF3FEF981748F4E92FF0E0E95C08
:102C3000FC4F208130E09F5F90933603C9010895D7
:102C4000CF92DF92EF92FF920F931F93CF93DF9378
:102C50007C01CB018A0120919703222389F0EB01AB
:102C60006B01C40ED51ECC15DD0569F06991D70145
:102C7000ED91FC910190F081E02DC7010995F3CF12
:102C8000642F0E94A714C801DF91CF911F910F916B
:102C9000FF90EF90DF90CF900895CF93DF93EC01FA
:102CA000962F683109F445C0B901993130F4943157
:102CB00099F0973159F080E006C0993109F45BC072
:102CC0009032C9F781E0DF91CF91089550E081E61D
:102CD00094E00E942016F6CF8C859D85AE85BF8539
:102CE000892B8A2B8B2B71F4E881F981A585B0E0C3
:102CF00020EA36E841E050E00E941E276C877D877D
:102D00008E879F8710923603109235031092980396
:102D10001092BA030E94CE1488E19BE090931203B4
:102D20008093110389E19BE0909314038093130334
:102D3000C9CF2C853D854E855F8560E074E284EFC8
:102D400090E00E94F626205131094109510956951B
:102D50004795379527952093B8008E8990E09595F3
:102D6000879591E0909397038093B903109298030D
:102D70001092BA03A7CF81E00E940D15A3CFCF9385
:102D8000DF931F92CDB7DEB769832091970322238B
:102D9000F9F02091BA03203258F021E030E0FC0134
:102DA0003383228390E080E00F90DF91CF910895EC
:102DB00080919803E82FF0E0E756FC4F99819083CB
:102DC0008F5F809398038093BA0381E090E0ECCF0B
:102DD00061E0CE0101960E94A714F7CFCF93C82FD0
:102DE00081E0809397031092B90310929803109298
:102DF000BA0361E081E694E00E94BF1662E081E6DA
:102E000094E00E94BF166C2F81E694E00E94BF16EA
:102E10006DEF6C1B81E694E00E94BF1681E0CF91BC
:102E20000C940D150F931F93CF93DF93082F162F3C
:102E3000D72FC2E0C80FC60FC70F81E0809397035A
:102E40001092B903109298031092BA0362E081E6DF
:102E500094E00E94BF16602F81E694E00E94BF16A6
:102E6000612F81E694E00E94BF166D2F81E694E009
:102E70000E94BF166C2F619581E694E00E94BF16F8
:102E800081E0DF91CF911F910F910C940D15CF929E
:102E9000DF92EF92FF920F931F93CF93DF936C011A
:102EA000EB017B01E40EF51E10E000E0CE15DF051E
:102EB00061F06991D601ED91FC910190F081E02DD6
:102EC000C6010995080F191FF1CFC801DF91CF91F5
:102ED0001F910F91FF90EF90DF90CF900895CF92C8
:102EE000DF92EF92FF920F931F93CF93DF93EC014A
:102EF0006C0124E0C20ED11CFC01E057FF4F019091
:102F0000F081E02DC60109958E3FEFEF9E07D8F4C2
:102F10008E010C561F4FF801408151817E01F2E96C
:102F2000EF0EF11CF701608171819C01C6010E94C6
:102F3000BA11C059DF4F28812130C1F078F022301A
:102F4000B9F02330E9F081E090E0DF91CF911F915B
:102F50000F91FF90EF90DF90CF900895F7012081BF
:102F60003181820F931F91838083EDCFF801F7CFDA
:102F7000F70120813181281B390B31832083E3CF76
:102F8000F801F7CF089590E080E00895FF920F9345
:102F90001F93CF93DF930BEB13E0D0E0C0E0F80179
:102FA000F1908F01CE010E94CC26F81621F06F2DF2
:102FB000CE010E94D4262196C930D10581F78BEB32
:102FC00093E0DF91CF911F910F91FF900895CF92E1
:102FD000DF92EF92FF920F931F93CF93DF93C82F4F
:102FE00081E0809397038FE08093B9031092980358
:102FF0001092BA0362E081E694E00E94BF166C2F43
:1030000081E694E00E94BF166FEE6C1B81E694E0AF
:103010000E94BF1680E00E940D150E94180A6B01E5
:103020007C0180919103811165C081E080939103BF
:10303000809390039FEF90938F0310928E0394E000
:1030400090938D0380936C0380916C038E618093C9
:103050006C0380916B03813009F08CC010926B037C
:103060000E94180A6B017C0180916C038093BB0065
:103070008091930390919403A0919503B09196034E
:10308000892B8A2B8B2BA1F00E94180A00919303A5
:103090001091940320919503309196036C197D094A
:1030A0008E099F09061717072807390708F443C038
:1030B0008091BC0083FDD8CF85EC8093BC000E943A
:1030C000180A6B017C0180919103813009F454C08E
:1030D00080918E03C5E0853010F4C0918E03ADE67B
:1030E000B3E0E7E3F3E080E08C1751F19D91919319
:1030F0008F5FFACF8091930390919403A0919503F1
:10310000B0919603892B8A2B8B2B09F48ACF0E94CE
:10311000180A009193031091940320919503309124
:1031200096036C197D098E099F0906171707280752
:10313000390708F076CF809192030E94EC14C0E02A
:1031400010923603C093350381E694E00E940D1679
:10315000D82F182F47E5E42E43E0F42E8091360354
:10316000C81761F181E694E00E940D16F701819382
:103170007F01F4CF85EEA1CF8091930390919403CA
:10318000A0919503B0919603892B8A2B8B2B09F480
:103190009ACF0E94180A00919303109194032091F2
:1031A0009503309196036C197D098E099F090617C6
:1031B00017072807390708F086CFBDCF209158039D
:1031C00080915703422F480F5527551F20915903CF
:1031D000240F352F311D80915A03280F311D809106
:1031E0005B03820F932F911D8D0F911D91958195FA
:1031F000910940915C039C0133274217130639F46F
:1032000020915D03892F99272817190611F01D2F8A
:103210001061812FDF91CF911F910F91FF90EF905F
:10322000DF90CF900895FB0101900020E9F73197DE
:10323000AF01461B570BDC01ED91FC910280F3813D
:10324000E02D09948F929F92AF92BF92EF92FF92DE
:103250000F931F93CF93DF93CDB7DEB7A1970FB630
:10326000F894DEBF0FBECDBF7C01FA01CB0119A2DD
:10327000223008F42AE08E010F5D1F4F822E912C20
:10328000B12CA12CBF01A50194010E94F626F901E1
:10329000CA016A300CF5605DD8016E938D01232B55
:1032A000242B252B79F790E080E0109721F0BD01C9
:1032B000C7010E941319A1960FB6F894DEBF0FBE86
:1032C000CDBFDF91CF911F910F91FF90EF90BF90F5
:1032D000AF909F908F900895695CDECFCF92DF9280
:1032E000EF92FF92CF93DF936B017C016DE284EC50
:1032F00093E00E94BB0BEC0144275527BA014C19FF
:103300005D096E097F092AE084EC93E00E9422198E
:103310008C0F9D1FDF91CF91FF90EF90DF90CF90AA
:1033200008954F925F926F927F928F929F92AF9289
:10333000BF92CF92DF92EF92FF920F931F93CF93A2
:103340006B017C01742EAC019B010E946F2960EB24
:1033500071E0811126C046015701E894B7F82FEFBC
:103360003FEF4FE75FE7C501B4010E946F2981116C
:103370000CC02FEF3FEF4FE75FE7C501B4010E949C
:10338000A52764EB71E0181664F02FEF3FEF4FE7CD
:103390005FE4C701B6010E94FD281816ACF468EB83
:1033A00071E088E895E0CF911F910F91FF90EF9029
:1033B000DF90CF90BF90AF909F908F907F906F9055
:1033C0005F904F900C9413192FEF3FEF4FE75FEC96
:1033D000C701B6010E94A52787FDE1CF20E030E0BC
:1033E000A901C701B6010E94A52710E000E087FFF0
:1033F0000AC06DE288E895E00E946F178C01F7FA29
:10340000F094F7F8F094C0E060E070E080E09FE3B3
:103410007C1641F020E030E040E251E40E94AA270F
:10342000CF5FF6CFA70196010E9439272B013C01FF
:103430000E941C284B015C012AE0BC01A40188E821
:1034400095E00E9422197C01E00EF11ECC23D1F1FF
:10345000C501B4010E944B289B01AC01C301B2011C
:103460000E9438274B015C016EE288E895E00E94DB
:103470006F17E80EF91EC15028F120E030E040E25D
:1034800051E4C501B4010E9402292B013C010E94B4
:103490001C284B01B12CA12C2AE0B501A40188E81D
:1034A00095E00E942219E80EF91EC501B4010E94A0
:1034B0004B289B01AC01C301B2010E9438274B018C
:1034C0005C01D9CFC701CF911F910F91FF90EF9071
:1034D000DF90CF90BF90AF909F908F907F906F9034
:1034E0005F904F900895CF93DF93BC0184EC93E0FD
:1034F0000E941319EC016CEB71E084EC93E00E94E4
:1035000013198C0F9D1FDF91CF9108950C941319FF
:10351000FC01A081B18150962C9182AD38E0839F4F
:10352000C0011124289FA001299F500D112470E093
:1035300060E080AD91AD0C9474291F93CF93DF931D
:10354000EC010E94E1131BAD8AAD180FE881F981EF
:103550008189181768F0EC81FD8130E020E040E0BF
:1035600060E1CE01099580E0DF91CF911F91089530
:10357000FE01E557FF4F8081882319F0CE010E949C
:10358000881A612FCE010E94CE1381E0EDCFCF9338
:10359000DF93EC01FC01E557FF4F8081882319F090
:1035A000CE010E94881A60E0CE01DF91CF910C9489
:1035B000CE134F925F926F927F92AF92BF92CF9253
:1035C000DF92EF92FF920F931F93CF93DF93182F09
:1035D000C42F90E080E00E944B2820E030E048ECCF
:1035E00052E40E94AA272B013C018CE895E00E943E
:1035F000C71AC13009F08CC0CFEBD1E088E7E82EC4
:1036000088E0F82E99E2C92ED12C2FE3A22EB12CFE
:1036100087E497E00E940311F0928F05E0928E05F7
:103620004CEC51E06EE070E090E080E00E94851389
:1036300000E020E830E044E150E070E060E08CE839
:1036400095E00E948F0F1092F50510921B061092C4
:103650001A06D0921D06C0921C0665ED71E088E83E
:1036600095E00E94861A81E0113009F480E00E9402
:10367000F40820E030E040E251E4C301B2010E94CE
:10368000A52787FF06C06FED71E088E895E00E94EE
:10369000861A42E0C301B2010E94911981E00E94A2
:1036A000F40869ED71E088E895E00E94861A1092AE
:1036B0001B0610921A06B0921D06A0921C066DED14
:1036C00071E088E895E00E94861A81E0123009F4E2
:1036D00080E00E94F408BE0188E895E00E94861A06
:1036E00081E00E94F4088CE895E00E949D1A811107
:1036F0008FCFDF91CF911F910F91FF90EF90DF90CF
:10370000CF90BF90AF907F906F905F904F90089553
:10371000C5ECD1E073CF4F925F926F927F928F9200
:103720009F92AF92BF92CF92DF92EF92FF920F9350
:103730001F93CF93DF93182FEA0190E080E00E945F
:103740004B2820E030E048EC52E40E94AA276B01AD
:103750007C01BE0190E080E00E944B2820E030E038
:1037600048EC52E40E94AA272B013C018CE895E02A
:103770000E94C71AC8E7D8E089E2A82EB12C9FE3BF
:10378000892E912C87E497E00E940311D0938F0536
:10379000C0938E054CEC51E06EE070E090E080E06C
:1037A0000E94851300E020E830E044E150E070E042
:1037B00060E08CE895E00E948F0F1092F505109262
:1037C0001B0610921A06B0921D06A0921C0661EE0E
:1037D00071E088E895E00E94861A81E0113009F4D2
:1037E00080E00E94F40820E030E040E251E4C701AC
:1037F000B6010E94A52787FF06C06FED71E088E83B
:1038000095E00E94861A42E0C701B6010E94911914
:1038100081E00E94F40869ED71E088E895E00E947B
:10382000861A10921B0610921A0690921D0680921C
:103830001C0665EE71E088E895E00E94861A81E03A
:10384000123009F480E00E94F40820E030E040E209
:1038500051E4C301B2010E94A52787FF06C06FEDA6
:1038600071E088E895E00E94861A42E0C301B20147
:103870000E94911981E00E94F40869EE71E088E8E5
:1038800095E00E94861A8CE895E00E949D1A8111AD
:1038900079CFDF91CF911F910F91FF90EF90DF9043
:1038A000CF90BF90AF909F908F907F906F905F90E0
:1038B0004F9008952F923F924F925F926F927F9216
:1038C0008F929F92AF92BF92CF92DF92EF92FF9230
:1038D0000F93CF93DF93EC0186E00E94E71760918E
:1038E0005803862F90E0982F882760915703680F20
:1038F000792F711D072E000C880B990B0E944D2803
:1039000020E030E048EC52E40E94AA272B013C0161
:1039100088E00E94E71760915803862F90E0982F67
:10392000882760915703680F792F711D072E000CAF
:10393000880B990B0E944D2820E030E048EC52E4BF
:103940000E94AA276B017C018CE895E00E94C71AAF
:1039500048E7242E48E0342E59E2A52EB12C6FE31F
:10396000862E912C87E497E00E94031130928F05F8
:1039700020928E05AE016EE070E090E080E00E9443
:10398000851300E020E830E044E150E070E060E0C2
:103990008CE895E00E948F0F10921B0610921A0679
:1039A000B0921D06A0921C0661EE71E088E895E0D9
:1039B0000E94861A20E030E040E251E4C301B201E7
:1039C0000E94A52787FF06C06FED71E088E895E0AB
:1039D0000E94861A42E0C301B2010E94911969ED6A
:1039E00071E088E895E00E94861A10921B061092FA
:1039F0001A0690921D0680921C0665EE71E088E81A
:103A000095E00E94861A20E030E040E251E4C701D0
:103A1000B6010E94A52787FF06C06FED71E088E818
:103A200095E00E94861A42E0C701B6010E949119F2
:103A300069EE71E088E895E00E94861A8CE895E0CE
:103A40000E949D1A81118ECFDF91CF910F91FF902F
:103A5000EF90DF90CF90BF90AF909F908F907F902E
:103A60006F905F904F903F902F90089585ED8093D9
:103A7000BC008091930390919403A0919503B09121
:103A800096030796A11DB11D23E0B695A7959795BE
:103A900087952A95D1F72091BC0024FD03C0109290
:103AA000910308954091930350919403609195037D
:103AB00070919603452B462B472B69F30097A10580
:103AC000B10541F02AE22A95F1F700C00197A1095A
:103AD000B109E1CF809192030C94EC141F920F92E4
:103AE0000FB60F9211242F933F938F939F93AF9311
:103AF000BF9380912D0390912E03A0912F03B0913D
:103B0000300330912C0323E0230F2D3758F5019615
:103B1000A11DB11D20932C0380932D0390932E03A0
:103B2000A0932F03B093300380913103909132031F
:103B3000A0913303B09134030196A11DB11D809370
:103B4000310390933203A0933303B0933403BF91B6
:103B5000AF919F918F913F912F910F900FBE0F903A
:103B60001F90189526E8230F0296A11DB11DD2CFF4
:103B70001F920F920FB60F9211242F933F934F93E2
:103B80005F936F937F938F939F93AF93BF93EF93C5
:103B9000FF93E0910201F09103010995FF91EF91EC
:103BA000BF91AF919F918F917F916F915F914F9155
:103BB0003F912F910F900FBE0F901F9018951F925D
:103BC0000F920FB60F9211242F933F934F935F9351
:103BD0006F937F938F939F93AF93BF93EF93FF93D5
:103BE000E0910001F09101010995FF91EF91BF91E2
:103BF000AF919F918F917F916F915F914F913F9185
:103C00002F910F900FBE0F901F9018951F920F923B
:103C10000FB60F9211242F933F934F935F936F939F
:103C20007F938F939F93AF93BF93EF93FF9384EC16
:103C300093E00E94990BFF91EF91BF91AF919F91FB
:103C40008F917F916F915F914F913F912F910F9045
:103C50000FBE0F901F9018951F920F920FB60F92E4
:103C600011242F938F939F93EF93FF93E091D403AD
:103C7000F091D5038081E091DA03F091DB0382FDBE
:103C80001BC090818091DD038F5F8F732091DE03D5
:103C9000821741F0E091DD03F0E0EC53FC4F958F8B
:103CA0008093DD03FF91EF919F918F912F910F9062
:103CB0000FBE0F901F9018958081F4CF1F920F9226
:103CC0000FB60F9211242F933F934F935F936F93EF
:103CD0007F938F939F93AF93BF93EF93FF938091C5
:103CE000B900887F803609F44AC0F0F5883209F4BB
:103CF000A7C018F5803109F49BC0B8F4882309F4F3
:103D0000F9C0883009F494C0FF91EF91BF91AF9151
:103D10009F918F917F916F915F914F913F912F91E3
:103D20000F900FBE0F901F901895883109F488C02E
:103D3000803251F780938F0314C0803409F49DC002
:103D400040F48033B9F38833F9F680938F0385EC20
:103D5000B0C0803509F485C0883509F496C0883430
:103D600099F60E94361DD0CF883909F48CC038F5F9
:103D7000883729F050F4883611F0803729F683E02F
:103D80008093910310920F0357C0883809F47BC0C9
:103D9000803919F0803809F0B7CF80910F03803255
:103DA00008F071C0E0910F0381E08E0F80930F0344
:103DB0008091BB00F0E0E151FD4F80833DC0803B2E
:103DC00039F0E0F4803A09F479C0883A09F09CCFE0
:103DD00084E0809391031092EE021092ED02E09144
:103DE0001103F091120309958091ED0281110FC02A
:103DF00081E08093ED021092CD0209C0803C09F46D
:103E0000A6CF883C09F4A3CF883B09F07DCFE09191
:103E1000EE0281E08E0F8093EE02F0E0E353FD4F5F
:103E200080818093BB009091EE028091ED0229C0C9
:103E300080916C038093BB0085EC8093BC0064CFC1
:103E400090918E0380918D03981758F5E0918E0321
:103E500081E08E0F80938E03F0E0E359FC4F808168
:103E6000E9CFE0918E0381E08E0F80938E038091E5
:103E7000BB00F0E0E359FC4F808390918E0380916A
:103E80008D039817C8F285E8D8CFE0918E0381E0C2
:103E90008E0F80938E038091BB00F0E0E359FC4FBE
:103EA00080838091900381115CCF81E080936B03CC
:103EB00084EA8093BC001092910326CF85EC809316
:103EC000BC001092910380910F03803230F4E09196
:103ED0000F03F0E0E151FD4F108260910F0370E09D
:103EE000E0911303F09114038FEE92E00995109284
:103EF0000F030ACF10928F0334CFCF931092C703D2
:103F00001092C60388EE93E0A0E0B0E08093C8036F
:103F10009093C903A093CA03B093CB032EE731E07B
:103F20003093C5032093C40325EC30E03093D103D4
:103F30002093D00324EC30E03093D3032093D203BA
:103F400020EC30E03093D5032093D40321EC30E013
:103F50003093D7032093D60322EC30E03093D9037B
:103F60002093D80326EC30E03093DB032093DA0370
:103F70001092DD031092DE031092DF031092E00333
:103F80001092640410926304809365049093660415
:103F9000A0936704B093680480E991E09093620471
:103FA0008093610410928B0510928A0588E798E04F
:103FB000909319068093180610921B0610921A0609
:103FC00010921D0610921C061092A40582EA91E040
:103FD000909389058093880510928D0510928C0529
:103FE0001092A105109298051092990510929A05C9
:103FF00010929B058FEF8093A2058093A605EAEAB5
:10400000F5E080EC95E0CFEFC1938E179F07E1F7C5
:104010008FEA9CE0909391058093900584EA9DE05F
:1040200090939305809392058DE496E19093950586
:10403000809394058DE394E1909397058093960582
:1040400030E020E040E069E08CE895E00E94AF0CB1
:104050001092E7051092E60582E898E09093C1057A
:104060008093C0058DE694E09093C5058093C405C8
:1040700082E08093C6051092C7051092F505109254
:1040800015061092110681E080931606809317069C
:104090008AEA91E09093C3058093C2058CE895E08D
:1040A0000E943F0E1092DF051092DE051092E3058C
:1040B0001092E2058FEF9FEF9093E1058093E0056A
:1040C0009093E5058093E405E091C205F091C30566
:1040D0000280F381E02D8CE895E0099581EF98E06E
:1040E0009093E9058093E8051092F805C093B50513
:1040F000C093B605C093B70583E090E090936E053A
:1041000080936D0582E090E09093700580936F0539
:1041100081E090E0909372058093710562E083E006
:104120000E94E70962E082E00E94E70980916D0544
:104130000E949009C82F80916F050E949009880FF6
:10414000991F8C2B8093730510927405109275053E
:1041500010927605109277051092780510927905E5
:1041600010927A0510927B0510927C0510927D05C5
:1041700010927E0510927F05CF910895789484B5B2
:10418000826084BD84B5816084BD85B5826085BD53
:1041900085B5816085BD80916E00816080936E00E1
:1041A00010928100809181008260809381008091D3
:1041B0008100816080938100809180008160809384
:1041C00080008091B10084608093B1008091B00044
:1041D00081608093B00080917A00846080937A003F
:1041E00080917A00826080937A0080917A00816069
:1041F00080937A0080917A00806880937A00109290
:10420000C100109236031092350310929803109259
:10421000BA030E94CE1488E19BE09093120380932E
:10422000110389E19BE09093140380931303E091C1
:10423000D403F091D50382E08083E091D003F09124
:10424000D1031082E091D203F091D30380E1808307
:104250001092DC03E091D803F091D90386E08083CB
:10426000E091D603F091D703808180618083E09153
:10427000D603F091D703808188608083E091D603D4
:10428000F091D703808180688083E091D603F0911C
:10429000D70380818F7D808362E084E00E94E709FC
:1042A00026E13BE0309303012093020180916900F5
:1042B000837F846080936900E99A309301012093A1
:1042C0000001809169008C7F816080936900E89A89
:1042D00080E593ECA0E0B0E0809398059093990579
:1042E000A0939A05B0939B05E0919005F0919105FC
:1042F00030E020E040E06AE08CE895E009958CE849
:1043000095E00E94C71A8CE895E00E949D1A8111E1
:10431000FACF60E08CE895E00E94CE1360E08CE874
:1043200095E00E942F0C8CE895E00E94C71AC8E720
:10433000D8E087E497E00E940311D0938F05C093E3
:104340008E054DEE51E06EE070E090E080E00E945E
:10435000851388E690E00E940311D0938F05C093E7
:104360008E0549EF51E06AE270E08AE090E00E9439
:1043700085138CE895E00E949D1A8111DACF68EED2
:1043800073E080E090E00E943D0A0BEB13E0D0E088
:10439000C0E0CE010E94CC26F80181938F012196C6
:1043A000C930D105B1F78091BB039091BC03813135
:1043B0009742D0F080EC92E19093BC038093BB03D2
:1043C0002AE638E13093BE032093BD032CE037E1A9
:1043D0003093C0032093BF039093C2038093C10323
:1043E0001092C3030E94C6172091C1033091C203EB
:1043F0008091BB039091BC03203E40E1340718F04C
:104400008217930760F4813CE2E19E0710F080EC94
:1044100092E19093C2038093C1030E94C6178091DA
:10442000C303823020F01092C3030E94C61760912C
:10443000BD037091BE038AE00E9412176091BF0312
:104440007091C0038EE00E94121784E00E94EE1665
:104450000E94700A609328037093290380932A03B3
:1044600090932B030AE010E0EE24E394F12C80EE0D
:10447000C82E80E1D82EA2E0AA2EB12CB3E02B2EBC
:10448000312CC8E08C2E912C84E00E94900900977A
:1044900009F0EBC00E94700A60932803709329030F
:1044A00080932A0390932B03809127038111BBC033
:1044B0000E94700A60932303709324038093250362
:1044C0009093260381E080932703109222030E9499
:1044D0007C0A8091780590917905A0917A05B09138
:1044E0007B05EC0120911F03309120038217930775
:1044F00009F480C04091800550918105609182054A
:1045000070918305409084055090850560908605E4
:10451000709087054419550966097709423351059A
:104520006105710588F4821B930B4AE0489FE00106
:10453000499FD00D1124C20FD31FBE010D2E000CB8
:10454000880B990B0E94FE080E94700A6093280352
:104550007093290380932A0390932B036EE372E0F8
:1045600084EC93E00E94861AAE010D2E000C660BBF
:10457000770B77FF8EC0CB01BA010E946E1963E4FE
:1045800072E084EC93E00E94861A40917C05509181
:104590007D0560917E0570917F05809178059091F1
:1045A0007905A0917A05B0917B0584179507A60738
:1045B000B7070CF074C08091780590917905A091AF
:1045C0007A05B0917B0580937C0590937D05A0933F
:1045D0007E05B0937F056FEF7FEFCB010E946E19D0
:1045E0006CEB71E084EC93E00E941319D0932003EC
:1045F000C0931F03E0911D03F0911E03ED30F10500
:1046000008F050C1EA5FFC4D0C941827932328242E
:104610006424B9240E255224272546254B254E25F2
:10462000CB252D268E2680912203811150CF0E940A
:10463000700A4090230350902403609025037090EB
:1046400026036419750986099709683E7340810538
:10465000910508F43CCF86E092E00E94731A81E055
:10466000809322038093210332CF019709F02FCF4B
:1046700080912703882309F42ACF10922703809181
:104680002203811124CF82E292E00E94731A81E01A
:10469000E9CF2AE084EC93E00E94221970CF409188
:1046A0007C0550917D0560917E0570917F0580911C
:1046B000780590917905A0917A05B0917B0548170E
:1046C00059076A077B07E4F4809178059091790592
:1046D000A0917A05B0917B0580937C0590937D0530
:1046E000A0937E05B0937F0541E050E0052E000CBD
:1046F000660B770B2AE084EC93E00E94221970CFBE
:104700008091780590917905A0917A05B0917B050B
:1047100080937C0590937D05A0937E05B0937F05E3
:1047200050E040E0E3CF0E94700A209104014090E5
:1047300028035090290360902A0370902B0364197A
:1047400075098609970961367A4E8105910508F445
:104750004BC0222359F061E08CE895E00E942F0CB9
:104760001092040189E492E00E94731A86E00E948C
:10477000E7178091580390E0982F882720915703DE
:10478000820F911D813E904108F48CC06AEF70E069
:1047900080E090E00E943D0A86E00E94E717609169
:1047A000580370E0762F662780915703680F711DBC
:1047B000613E80E1780708F475C070931C03609334
:1047C0001B038091BD039091BE0390931A038093C5
:1047D00019038CE00E94121782E00E94EE16F092FC
:1047E0001E03E0921D035EC021110CC060E08CE846
:1047F00095E00E942F0C81E08093040185E592E012
:104800000E94731A80E692E00E945A1C8091210354
:10481000882309F4ABCF6091BB037091BC0390E097
:1048200080E00E94FE088091780590917905A09122
:104830007A05B0917B059093200380931F0389E054
:1048400090E090931E0380931D03109221038ECF5E
:1048500088E692E00E945A1C88E00E94E717809147
:10486000580390E0982F882720915703820F911DBD
:104870002091190330911A038217930700F5609174
:104880001B0370911C03665F7F4F70931C03609342
:104890001B038CE00E9412176AEF70E080E090E04A
:1048A0000E943D0A80E090E0892B09F4EDCD0E9442
:1048B000850B882309F4DFCD0E940000DCCDB09287
:1048C0001E03A0921D03EECF80E792E00E945A1CC7
:1048D00088E00E94E7172091580330E0322F22270A
:1048E00080915703280F311D2115310541F484E0D3
:1048F0000E94EE1690921E0380921D03D3CF8091EA
:104900001B0390911C034091190350911A03241723
:10491000350768F5019690931C0380931B03C091A3
:104920001B03D0911C03BE018CE00E9412176AEF9A
:1049300070E080E090E00E943D0A6091BB037091BE
:10494000BC03C617D70708F4ADCF8CE00E9412173E
:104950000E94700A609315037093160380931703E7
:104960009093180330921E0320921D039BCF019752
:10497000D2CF8AE792E00E945A1C88E00E94E71793
:10498000C0915803D0E0DC2FCC2780915703C80F8B
:10499000D11D2091190330911A03C901B8010E9459
:1049A000E226C617D70770F484E00E94EE168091C5
:1049B000C303813081F584E090E090931E038093DF
:1049C0001D0370CFB90190E080E00E944B2820E0E9
:1049D00030E040EC5FE30E9402290E941C286C1723
:1049E0007D0720F4B0921E03A0921D030E94700A5E
:1049F00040901503509016036090170370901803B1
:104A00006419750986099709603477478B419105C8
:104A100008F448CFC9CF86E090E0CFCF84E892E099
:104A20000E945A1C86E00E94E7176091580370E0CC
:104A3000762F662780915703680F711D8091C103FF
:104A40009091C2038617970708F42CCFB6CE80E961
:104A500092E00E945A1C86E00E94E717809158035A
:104A600090E0982F882720915703820F911D803E58
:104A7000904108F017CF68EE73E080E090E00E946C
:104A80003D0A10921E0310921D030CCF86E992E09E
:104A90000E945A1C07CF8FE992E0FACF4091780527
:104AA0005091790560917A0570917B05493A26E12C
:104AB0005207C8F088EA96E19093BC038093BB0349
:104AC00068EA76E180E090E00E94FE088091780537
:104AD00090917905A0917A05B0917B059093200380
:104AE00080931F0309C0403EE0E15E0708F44AC01E
:104AF0005093BC034093BB036091BB037091BC0314
:104B00008091C1039091C2036817790720F47093D4
:104B1000C2036093C1034091BD035091BE0381E085
:104B20000E948B1B6091BB037091BC038CE00E94C0
:104B3000121780912103882309F4B4CE6091BB033E
:104B40007091BC0382E70E9412170E94C617609101
:104B5000BD037091BE0390E080E00E94FE0880914A
:104B6000780590917905A0917A05B0917B05909395
:104B7000200380931F031092210310931E030093C0
:104B80001D0390CED092BC03C092BB0360EE70E1D7
:104B900080E090E099CF8091780590917905A0917F
:104BA0007A05B0917B058B36F8E19F07E8F5909385
:104BB000BE038093BD034091BD035091BE0360913D
:104BC000BB037091BC0382E00E948B1B6091BD030C
:104BD0007091BE038AE00E941217809121038823FE
:104BE00009F460CE6091BD037091BE0384E70E941A
:104BF00012170E94C6176091C1037091C20390E022
:104C000080E00E94FE088091780590917905A0913E
:104C10007A05B0917B059093200380931F03109237
:104C200021038BE090E0C9CE2AE638E13093BE0341
:104C30002093BD036AE678E180E090E00E94FE08E0
:104C40008091780590917905A0917A05B0917B05C6
:104C50009093200380931F03AECF4091780550912D
:104C6000790560917A0570917B05CA015093C20362
:104C70004093C1036091BB037091BC03681779072F
:104C800008F040C07093C2036093C10390E080E0DD
:104C90000E94FE088091780590917905A0917A058F
:104CA000B0917B059093200380931F036091C10313
:104CB0007091C2034091C30381E00E94D91A809190
:104CC0002103882309F4EECD0E94C6171092210318
:104CD0006091C30370E090E080E00E94FE08809144
:104CE000780590917905A0917A05B0917B05909314
:104CF000200380931F032CE030E030931E032093A9
:104D00001D03D0CD803E904188F6D092C203C09260
:104D1000C10360EE70E180E090E0BACF4091780589
:104D20005091790560917A0570917B05423051056B
:104D300044F181E08093C30361E070E080E090E0A3
:104D40000E94FE088091780590917905A0917A05DE
:104D5000B0917B059093200380931F036091C10362
:104D60007091C2034091C30382E00E94D91A8091DE
:104D70002103882309F496CD0E94C61710922103BF
:104D800080CE57FF06C01092C30360E070E0CB01F5
:104D9000D7CF4093C303E2CFF999FECF92BD81BD37
:104DA000F89A992780B50895262FF999FECF1FBA52
:104DB00092BD81BD20BD0FB6F894FA9AF99A0FBE44
:104DC00001960895AA1BBB1B51E107C0AA1FBB1F78
:104DD000A617B70710F0A61BB70B881F991F5A9587
:104DE000A9F780959095BC01CD010895A1E21A2EF6
:104DF000AA1BBB1BFD010DC0AA1FBB1FEE1FFF1F7F
:104E0000A217B307E407F50720F0A21BB30BE40BCE
:104E1000F50B661F771F881F991F1A9469F7609515
:104E20007095809590959B01AC01BD01CF010895CF
:104E3000EE0FFF1F0590F491E02D09940E942927A1
:104E4000A59F900DB49F900DA49F800D911D1124DE
:104E50000895A29FB001B39FC001A39F700D811D53
:104E60001124911DB29F700D811D1124911D089573
:104E70005058BB27AA270E9450270C94C3280E9491
:104E8000B52838F00E94BC2820F039F49F3F19F46F
:104E900026F40C94B2280EF4E095E7FB0C94AC28B1
:104EA000E92F0E94D42858F3BA17620773078407C2
:104EB000950720F079F4A6F50C94F6280EF4E09509
:104EC0000B2EBA2FA02D0B01B90190010C01CA01C4
:104ED000A0011124FF27591B99F0593F50F4503E6F
:104EE00068F11A16F040A22F232F342F4427585F61
:104EF000F3CF469537952795A795F0405395C9F779
:104F00007EF41F16BA0B620B730B840BBAF0915030
:104F1000A1F0FF0FBB1F661F771F881FC2F70EC0CF
:104F2000BA0F621F731F841F48F4879577956795A2
:104F3000B795F7959E3F08F0B0CF9395880F08F08E
:104F40009927EE0F9795879508950E94882808F471
:104F500081E008950E94BE270C94C3280E94BC28BB
:104F600058F00E94B52840F029F45F3F29F00C94D6
:104F7000AC2851110C94F7280C94B2280E94D42824
:104F800068F39923B1F3552391F3951B550BBB2778
:104F9000AA2762177307840738F09F5F5F4F220FBD
:104FA000331F441FAA1FA9F335D00E2E3AF0E0E8B4
:104FB00032D091505040E695001CCAF72BD0FE2FFE
:104FC00029D0660F771F881FBB1F26173707480792
:104FD000AB07B0E809F0BB0B802DBF01FF2793584A
:104FE0005F4F3AF09E3F510578F00C94AC280C943A
:104FF000F7285F3FE4F3983ED4F38695779567955D
:10500000B795F7959F5FC9F7880F911D969587957E
:1050100097F90895E1E0660F771F881FBB1F62179D
:1050200073078407BA0720F0621B730B840BBA0B5B
:10503000EE1F88F7E09508950E94DC2888F09F57BE
:1050400098F0B92F9927B751B0F0E1F0660F771FAC
:10505000881F991F1AF0BA95C9F714C0B13091F0A2
:105060000E94F628B1E008950C94F628672F782F57
:105070008827B85F39F0B93FCCF386957795679567
:10508000B395D9F73EF490958095709561957F4FD3
:105090008F4F9F4F0895E89409C097FB3EF4909579
:1050A0008095709561957F4F8F4F9F4F9923A9F001
:1050B000F92F96E9BB279395F69587957795679590
:1050C000B795F111F8CFFAF4BB0F11F460FF1BC0D4
:1050D0006F5F7F4F8F4F9F4F16C0882311F096E967
:1050E00011C0772321F09EE8872F762F05C0662315
:1050F00071F096E8862F70E060E02AF09A95660FCE
:10510000771F881FDAF7880F9695879597F9089586
:10511000990F0008550FAA0BE0E8FEEF16161706C8
:10512000E807F907C0F012161306E407F50798F030
:10513000621B730B840B950B39F40A2661F0232B49
:10514000242B252B21F408950A2609F4A140A695C5
:105150008FEF811D811D089597F99F6780E870E0AA
:1051600060E008959FEF80EC089500240A941616DD
:10517000170618060906089500240A941216130645
:10518000140605060895092E0394000C11F48823D3
:1051900052F0BB0F40F4BF2B11F460FF04C06F5FEF
:1051A0007F4F8F4F9F4F089557FD9058440F551FC5
:1051B00059F05F3F71F04795880F97FB991F61F099
:1051C0009F3F79F087950895121613061406551F10
:1051D000F2CF4695F1DF08C0161617061806991F7C
:1051E000F1CF86957105610508940895E894BB2771
:1051F00066277727CB0197F908950E94882808F43D
:105200008FEF08950E9415290C94C3280E94B52899
:1052100038F00E94BC2820F0952311F00C94AC28A3
:105220000C94B22811240C94F7280E94D42870F30F
:10523000959FC1F3950F50E0551F629FF001729F3B
:10524000BB27F00DB11D639FAA27F00DB11DAA1F4A
:10525000649F6627B00DA11D661F829F2227B00D97
:10526000A11D621F739FB00DA11D621F839FA00D22
:10527000611D221F749F3327A00D611D231F849F72
:10528000600D211D822F762F6A2F11249F575040C9
:105290009AF0F1F088234AF0EE0FFF1FBB1F661F44
:1052A000771F881F91505040A9F79E3F510580F00D
:1052B0000C94AC280C94F7285F3FE4F3983ED4F3A9
:1052C000869577956795B795F795E7959F5FC1F7B1
:1052D000FE2B880F911D9695879597F908950E944A
:1052E0008828880B990B0895DC0101C06D9341500B
:0A52F0005040E0F70895F894FFCF56
:1052FA001A0B1A0B011815A015C019FF1815A115BC
:10530A00C819FF1815AE19FF1815AF19FF1815AEF1
:10531A0015D5168015A8163F15D316001540158DFC
:10532A0016141520160015A115C815DA16121581BE
:10533A0016CF15D916F115DB1640152E15A415A68C
:10534A0019FF0001140A6464323200127A00000460
:10535A002896100800008000400000FF01000100AC
:10536A0000FFFF0000010001FF0000000000BB0B6E
:10537A001B0B480B080C790B570B6B0B000000003A
:10538A00BF162016C317FD15F7080D16FE150000E7
:10539A0000006F174717C317C2173F0ECA0E0E0E2B
:1053AA006E616E00696E66006F7666000D0A004DCA
:1053BA00756C74690053696E676C65005365747423
:1053CA00696E677300523A200020562000433A2043
:1053DA0000553A2000493A20002041200046503228
:1053EA002D436861726765720056657273696F6EE4
:1053FA0020322E3030004C616E6765722054617322
:10540A0074656E647275636B2065726B616E6E741F
:10541A002E004B75727A65722054617374656E64DE
:10542A007275636B2065726B616E6E742E00706F9D
:10543A00733A00206469723A00446973706C617946
:10544A00206F666600446973706C6179206F6E0024
:10545A00436F6E6E6563740052616D705F757000A4
:10546A0043432D43686172672E0043562D4368619A
:10547A0072672E00576169742052656C6F6164000F
:10548A005265616479004F432D4572726F72004E06
:08549A00432D4572726F720090
:00000001FF
