:100000000C944E080C94521C0C942B1C0C947608E7
:100010000C9476080C9476080C9476080C94760868
:100020000C9476080C9476080C9476080C94760858
:100030000C9476080C9476080C9476080C94760848
:100040000C94E11B0C9476080C949F1C0C94791C66
:100050000C9476080C9476080C9476080C94760828
:100060000C94D11C0C947608600203030405010370
:1000700005091100FD0BFD0DFE023904B006C2207A
:100080000919271FFFFFCF00210D19271F27B97E50
:100090004792CB7103221219271F26114A8412A1FD
:1000A000442891E3FF2300231119271F6F12D9E978
:1000B00026919D6E1239FE00241319271F2A17134B
:1000C0004D125DBBE893912C978301251319271FCF
:1000D00017D345175A955AA3E869248BE3042616CB
:1000E00019271F1731512413C924D229492221A9C4
:1000F000DD28721C270B19271F2AD71DFF5F012837
:100100001219271F2ED65DDF2172881C2287C88115
:1001100000291219271F2687C82172881C22D76739
:10012000DD51002A1319271F27A144E510A3D20E81
:10013000118D72FC09002B1019271F9FE58A87C8B3
:10014000212857C72B002C0C19271FFFDFC6EB6295
:1001500065002D0B19271FFFAD58C7BF012E0B19C6
:10016000271FFFDFC6EBB8012F1519271F492E9651
:100170008BE562B9582E968BE562B91C00301719D1
:10018000271F17A24928914D44142D24C94C22142D
:1001900019E93801310E19271F2729BB3E1E228776
:1001A000380E321119271F17A24928118AF57C88A9
:1001B0001CE238331619271F17A24928110AA97300
:1001C000884828118A8C749C00341419271F47F121
:1001D00094289189D44487C8212CA6D2713514194A
:1001E000271FF3217288C86D77885C452832D27149
:1001F00002361519271F979A496E3B0925428950E7
:10020000221419E93801370F19271FF32172882B9F
:100210006BD71D3700381519271F17A24928118AD7
:100220008C449350221419E93801391519271F17E6
:10023000A24928114A8412A1E86617D9EA38013A7E
:100240000D19271FBF8FD7B18DD771033B0E19270B
:100250001FBF8FD7B18DD7C5CA003C1219271F57B2
:10026000B1DE2172881C2287C821721C3D1119271A
:100270001FBF1E228738EC1039C4F133003E13191A
:10028000271FBB1C2287C82172881C22D63BAE00C8
:100290003F1219271F17A24928118AB5C7D1E47246
:1002A000DC00401619271F17A24928115124155D9B
:1002B0002AA2911C72B3E300411719271F27319519
:1002C000289289142587C8212294082542390E4294
:1002D0001519271FB3ED24940825279B92502294CB
:1002E0009CEC3801431419271F17A24928114AE42E
:1002F0001A254291918E1300441819271FB3ED243B
:100300009408254289502294082542C9C98E1300B9
:10031000451319271FF3217288C8E5369B5CFD1031
:1003200039C471461119271FF3217288C8E5369B1D
:100330005C779C01471719271F17A24928114AE427
:10034000228A8822940845463A4E00481A19271FE7
:10035000B3502294082542C9217288082542895049
:10036000229408E538491019271FF3217208CAF5AD
:10037000F11039C4714A1119271F57B95E8412A1AF
:10038000442832D271024B1619271FB3502213A9E9
:100390004984D431552214C99484721C4C0D1927F8
:1003A0001FB35C7F3F440E711C4D1619271FB350BD
:1003B000329A1C228788FEA34428114A84721C4E5C
:1003C0001919271FB350329390243A516413A14452
:1003D00028114A8412A11C074F1819271F17A24978
:1003E00028114A8412A14428114A8422231D27007F
:1003F000501119271FB3ED24940825279B5C779C87
:1004000001511919271F17A24928114A8412A14422
:1004100028D18964ACCB21721800521619271FB35A
:10042000ED24940825279B92502294082542390EEA
:10043000531519271F17A249289143AAF58950225D
:100440001419E93801540E19271FF3217208CAF54F
:1004500077DC00551919271FB350229408254289CB
:10046000502294082542895064A4E30456171927A2
:100470001FB35022940825428950A4261252C972F3
:10048000396E00571719271FB35022940825428947
:10049000FEE51039444613A11C07581619271FB34F
:1004A00050229408458A643151A428114A84721C50
:1004B000591419271FB3502294082542C96864248F
:1004C000CBB5E3065A1019271FF32172888BF5FD6F
:1004D0001039C4715B0D19271FCA2AD77FA7D28193
:1004E000005C1A19271F249743E472885C0E91CB95
:1004F000217239442E87C8E510B9005D0C19271FF9
:1005000046A5EB7F6507035E0F19271FB7F8542236
:10051000538AC6F1BF025F0A19271FFFFFD3E140CC
:10052000600F19271F1687C82172481CFF7F0161C1
:100530001319271FBF9B2E428950229B8858642283
:10054000390E621419271FB35CDD76124A8412A19A
:10055000442839D97102631119271FBF134D4289ED
:10056000502297436E761C641419271F57B99AE9D5
:100570002294082542895074B3E300651219271F9D
:10058000BF134D42C9217288C821373B0E660F192F
:10059000271FC729514C25CBF58E1B00671419273F
:1005A0001FBF9B2E4289502294084537BBAC48039D
:1005B000681519271FB35CDD76124A8412A14428FE
:1005C000114A84721C690F19271F27B91C4EA5EB0D
:1005D0006AB3E3026A0F19271F27B91C4EA5EB4720
:1005E000EA18006B1319271FB35C9B484D22A41611
:1005F000453225A11C076C0D19271F3B95AE5F6D79
:10060000765C006D0D19271FBFDA4E12FDFF3B0E01
:100610006E1619271FBF8A641212493293082542A9
:1006200089502294E3006F1319271FBF134D42898D
:100630005022940845463A4E00701419271FBFDA1D
:100640004E42895022940825279B5C1D0071131986
:10065000271FBF9B2E4289502294084537BB1600A6
:10066000721119271FBF8A641212493293C8B5E369
:100670000C731119271FBF5B0E11B9D52E3944EC2D
:100680003801740F19271F27B932952CD70E21CFA7
:1006900071751519271FBF0A254289502294C82653
:1006A000221699488E03761319271FBF0A254289FF
:1006B00050A4261252C972DC00770F19271FBF4AB7
:1006C000F4FF2F87903A2E00781119271FBF0A4593
:1006D0008A64B998285294E300791619271FBF0A33
:1006E000254289502294082542D1CD2E2BD2007A62
:1006F0000D19271FBF9ECE3A9FEEB8007B11192718
:10070000533C96EBAC0E9143E4BACF65007C0B19D9
:10071000271F2AD7FF7730007D1019274B3ED73B84
:10072000440E11ABEB3C96027E0E19271F3FCF22E1
:100730005A6273FC47007F0919271FFFFFCF000093
:10074000000004FFFF00006002040304050103052C
:100750000C1600FC0EFC10FE02D4061E08DC20095C
:100760006C833FFEFF2500210E6C833F76A2FAF7D3
:100770008844E5B10422156C833FAC88988898883A
:100780009888988898883CFE7700231D6C833F5694
:1007900022622242072307432262224207230743A1
:1007A000226222F2F8140024216C833FB4A8A0D561
:1007B00041CC84C4889E4DC89DDD498C89E8644243
:1007C00062E620CA50541E01251F6C833F56073134
:1007D00007227A3122522342757645225322322152
:1007E000A2373442F2D801261E6C833F5665473348
:1007F0004232432253768474264A4C646846880EFB
:100800008448E4B102270B6C833FB4A8DEE37F0980
:1008100028106C833FBCE4E096A2FAE94EE5A10102
:10082000290F6C833FACE84EF597835BCA23012AFE
:10083000166C833F76A262224A0E86CC8C0E46341A
:100840001395C7C7002B116C833F5E886A763072A0
:100850003026AA3DDE002C106C833FFE534942CA6D
:1008600051C9C1A581002D0B6C833FFEC4CC1E7FF6
:10087000042E0D6C833FFE5349424A799C012F1B85
:100880006C833F1A51495149514951495149514984
:1008900051495149514951510030246C833F5656BA
:1008A00007314323522342243225221322122322CA
:1008B00035224422532243330751F6D80131116CBB
:1008C000833F76A2724DF567072307F3580132176D
:1008D0006C833F56560731432362A29283FBF0603C
:1008E000E4601E2B00331C6C833F565607314323B4
:1008F00062A2927284A5A322622243330751F6D8E2
:1009000001341B6C833F96928374651352234233E8
:10091000428A0E460E064505CDECB102351B6C83AE
:100920003F3607230723A2A2074107A2A39A88897B
:100930000CCD1C44D96307361F6C833F5656479332
:10094000A2074107325223622262226222622243BC
:10095000330751F6D80137126C833F36072307A3BC
:100960005A0E6E29AA7B2C0138216C833F565607FC
:1009700031432362226232425256073143236222BC
:10098000622243330751F6D801391F6C833F565614
:1009900007314323622262226222622253320742DB
:1009A00007A1924357F6D8013A126C833F5E4B126F
:1009B00052CA239224A494C719003B146C833F5E4F
:1009C0004B1252CA239224A41C951C5C1A083C0F9B
:1009D0006C833FB692837B39BAA7F258013D126C03
:1009E000833F3E3B183998873D183998C787003EAA
:1009F0000E6C833F56A2FB72702FE5B1053F176C5A
:100A0000833F56560731432362A292835BCA231267
:100A100095C71200401E6C833F5656073143236230
:100A20002232252226FA89890C8DE8E881D0413CC2
:100A30005600411F6C833F76928474226222524298
:100A4000DA88891C8C1C8C88898889888988C96384
:100A50000542246C833F36074107325223622262EB
:100A60002252320741073252236222622252230766
:100A70003207F1D80143186C833F565607314323A0
:100A80006222A2FA4C6468E620CA1E3B0044246C31
:100A9000833F36074107325223622262226222627A
:100AA0002262226222622262225223073207F1D896
:100AB0000145196C833F3607230723A29A1E041DA4
:100AC00004896A7A3072308F150046156C833F3680
:100AD00007230723A29A1E041D0489EA3DD6004776
:100AE0001F6C833F5656073143236222A28A4884F3
:100AF00048C444C444C44486660EA2ECB1034824EE
:100B00006C833F3662226222622262226222622269
:100B1000072307236222622262226222622262F299
:100B2000580149136C833F3607230763A2FA67070E
:100B30002307F358014A166C833FB6A2FA899888B6
:100B4000988898C8D0CC41943D76004B216C833F67
:100B50003652234233324322531263758475126333
:100B6000225332434233522362F258014C0F6C83BA
:100B70003F36A2FA9F1E8C1CCC63054D1F6C833F31
:100B800036622243234C0E46242844F49F898889E8
:100B900088898889888988C963054E256C833F3692
:100BA000622253224422352212234A2644644A8474
:100BB00048A446C444C444C444C444C4E4B1024F39
:100BC000226C833F565607314323622262226222FF
:100BD0006222622262226222622243330751F6D8E5
:100BE00001501B6C833F3607410732522362226259
:100BF00022522307320741A27A8F350051236C839A
:100C00003F565607314323622262226222622262E9
:100C100022622262229A4CD81C449D8ECAC3025280
:100C2000246C833F360741073252236222622252EC
:100C3000320741073252236222622262226222621A
:100C4000F25801531C6C833F5656073143236222EE
:100C5000A2A367A7A322622243330751F6D8015407
:100C60000F6C833F3607230763A2FADF630955231E
:100C70006C833F36622262226222622262226222F8
:100C80006222622262226222622243330751F6D834
:100C900001561E6C833F3662226222622262226209
:100CA000226232425A898889C811528ACA63095716
:100CB0001F6C833F366222622262226222622262BB
:100CC00022FA2F28440E46980C8D88C963055820B7
:100CD0006C833F366222622262224333235376843E
:100CE0007456233343236222622262F25801591B55
:100CF0006C833F3662226222622262226222433386
:100D000023537694A2BAC712005A156C833F360754
:100D10002307A39283FBA5E8C1C8C13C56005B0F23
:100D20006C833F3421A1A8FE9F12D243035C196C4F
:100D3000833FA85A515951595159515951595159F3
:100D40005159515951015D0D6C833F2C21A9FE3F32
:100D5000648F005E126C833F769274562333433364
:100D600061F1F8C7005F0B6C833FFE7F7FF060008E
:100D7000600C6C833FACE85279FCBF01611D6C8351
:100D80003F3E3C883910991211131113911A112208
:100D900019A9B1102291C70A00621E6C833F36A2C6
:100DA0009A1E041DC8488D88898889888988894841
:100DB0008D1CC81CC4630763176C833F3EB43A881C
:100DC000191A111311553A7A2074108F1500641EE8
:100DD0006C833FB6A21A1DC41C884C8988898889F7
:100DE000888988894CC91C081DC46305651A6C83F1
:100DF0003F3EB43A88191A111339183918111D3D9C
:100E0000103A88C70A0066116C833F967465938216
:100E10006686A2FA3D9600671F6C833F3E3C883988
:100E20001099121113111311131113999239103AC9
:100E300008951CBA3202681E6C833F36A29A1E04C3
:100E40001DC8488D88898889888988898889888982
:100E500088C9630569116C833F76A2F2480849F599
:100E6000A1993D76006A116C833F76A2F248084949
:100E7000F52FC7EA08016B1C6C833F36A23A9A91A2
:100E8000191299921833BB1A19129A911A1193C711
:100E90000A006C0E6C833F5684A4FA0FCDECB103AC
:100EA0006D136C833F3E3B083A90119118D1FFFFC0
:100EB0007BAC006E1D6C833F3E132192B02919213B
:100EC00012991211131113111311131193C70A0060
:100ED0006F1B6C833F3EB43A88191A11131113111A
:100EE000131113199A3988B2C70E00701E6C833F14
:100EF0003E3B083A90911A111311131113111391DB
:100F00001A3990390812D51400711D6C833F3E3C8C
:100F10008839109912111311131113111399923961
:100F2000103A08D5090072146C833F3E132192B029
:100F3000291921129914D53DD60073176C833F3EB1
:100F40003C88391011953DBB151539903988C70E6D
:100F50000074126C833F76A21A9A198AEA74B490CC
:100F60001E2B00751C6C833F3E5322262226222610
:100F70002226223522443252632144228F150076E4
:100F8000176C833F3E532226222623A495C89488BB
:100F90001C21A53C960077116C833F3E13D1FFFFC7
:100FA0006F0EA244E4B10378186C833F3E53323491
:100FB0003332654748673532333422268F1500793E
:100FC0001E6C833F3E5322262226222622262226DC
:100FD00022263225732074102A397465047A126C23
:100FE000833F3E3B183918DC87072307F358017B02
:100FF000136C839BE4E0A4A85E0E4E8E8EEAD3A50C
:1010000042007C0B6C833FB4A8FEFF3D027D126C56
:10101000838BE8527DBA727052542F072705017EE8
:10102000106C833F3E149229515223248F3F027F3C
:10103000096C833FFEFF250000000004FFFF000055
:1010400000000000240027002A0000000000250006
:1010500028002B00000000002300260029000404C3
:101060000404040404040202020202020303030350
:10107000030301020408102040800102040810202C
:101080000102040810200000000800020100000313
:1010900004070000000000000000F01D11241FBE26
:1010A000CFEFD8E0DEBFCDBF12E0A0E0B1E0EEE2CE
:1010B000FDE402C005900D92AE36B107D9F725E0E8
:1010C000AEE6B2E001C01D92A93DB207E1F718E01B
:1010D000CEE4D8E004C02197FE010E943D24CD3427
:1010E000D107C9F70E94311F0C9495260C9400007B
:1010F000662329F06A3019F0862F90E008958FEF6B
:101100009FEF0895AF92BF92CF92DF92EF92FF923E
:101110000F93CF93DF93EC01DA017901942F97704D
:10112000E1E0F0E09F01092E01C0220F0A94EAF7E6
:10113000522F6E018AE8C80ED11CF601808140E072
:10114000823018F4422F813049F15D01F8EFAF226F
:10115000E8ADF9AD28813981D90150968C918A9DED
:1011600090018B9D300D1124620F731FDF01A60FBC
:10117000B71F01111AC0EA0EFB1E8C91842B852724
:101180008D93AE15BF05C9F7DF91CF910F91FF90F9
:10119000EF90DF90CF90BF90AF90089550E0D5CF03
:1011A000440F550FE114F10479F33C91342B3527AA
:1011B0003C939F5F9770E1E0EE1AF1089111F0CF38
:1011C0002CAD3DADA20FB31FF6018081823028F413
:1011D000813009F051E041E0E5CF51E0E3CF80E01C
:1011E000089590E080E008958093D105089580915E
:1011F000F3029091F402891B990B0895CF92DF922C
:10120000EF92FF920F931F9320912C0530912D05A3
:101210002130310534F02330310554F023303105CD
:10122000D1F11F910F91FF90EF90DF90CF90089533
:10123000C0902F05D0903005E0903105F090320538
:101240008B019C0152E0000F111F221F331F5A9582
:10125000D1F743E0C422DD24EE24FF240C291D290C
:101260002E293F2900932F05109330052093310537
:1012700030933205609333057093340580933505C0
:101280009093360560933705709338058093390540
:1012900090933A05C6CFC0902F05D0903005E090CE
:1012A0003105F09032058B019C01000F111F221FA8
:1012B000331F41E0C422DD24EE24FF24CFCF9B0165
:1012C000DC011896ED91FC9141E067E109948330CF
:1012D00081F028F4813099F08230A9F008958730A8
:1012E000A9F08830C9F08430B1F4809180008F7DFE
:1012F00003C0809180008F7780938000089584B52B
:101300008F7784BD089584B58F7DFBCF8091B00029
:101310008F778093B00008958091B0008F7DF9CFD2
:10132000CF93DF93282F30E0F901EA57FF4E8491E5
:10133000F901EE58FF4ED491F901E25AFF4EC491E3
:10134000CC23A1F081110E946709EC2FF0E0EE0F91
:10135000FF1FEC5AFF4EA591B491EC91ED2381E073
:1013600090E009F480E0DF91CF91089580E090E073
:10137000FACF1F93CF93DF93282F30E0F901EA577C
:10138000FF4E8491F901EE58FF4ED491F901E25AD3
:10139000FF4EC491CC23A9F0162F81110E9467093A
:1013A000EC2FF0E0EE0FFF1FE65BFF4EA591B4912E
:1013B0008FB7F894EC91111108C0D095DE23DC931F
:1013C0008FBFDF91CF911F910895DE2BF8CFCF9380
:1013D000DF9390E0FC01EE58FF4E2491825A9F4E1D
:1013E000FC0184918823D1F090E0880F991FFC01C3
:1013F000E05CFF4EA591B491FC01E65BFF4EC59108
:10140000D491623071F49FB7F8943C91822F80950B
:1014100083238C93E8812E2B28839FBFDF91CF916C
:1014200008958FB7F894EC912E2B2C938FBFF6CFA5
:101430003FB7F8948091EF029091F002A091F102F1
:10144000B091F20226B5A89B05C02F3F19F0019676
:10145000A11DB11D3FBFBA2FA92F982F8827BC010E
:10146000CD01620F711D811D911D42E0660F771F36
:10147000881F991F4A95D1F708958F929F92AF9236
:10148000BF92CF92DF92EF92FF926B017C010E949C
:10149000180A4B015C01C114D104E104F104B9F054
:1014A0000E94180A681979098A099B09683E7340E5
:1014B0008105910580F321E0C21AD108E108F10805
:1014C00088EE880E83E0981EA11CB11CE4CFFF902B
:1014D000EF90DF90CF90BF90AF909F908F90089546
:1014E0002FB7F8946091EB027091EC028091ED02BD
:1014F0009091EE022FBF08950F931F93CF93DF9328
:10150000809128050E949009182F80912A050E9439
:101510009009EC010E94700AAB01BC01CC0FDD1FE9
:10152000C12B80912E05C81709F46AC0E0912E05E1
:1015300000912F0510913005209131053091320531
:1015400084E0E802F00111248C2F0C2E000C990B82
:10155000E82BF92BE559FE4F9081892F990F990BB4
:10156000AA0BBB0B800F911FA21FB31F80932F05E7
:1015700090933005A0933105B0933205C0932E05AA
:1015800080912C0590912D0582309105B9F1833021
:101590009105D9F10197A1F5C33091F580912F05FF
:1015A00090913005A0913105B091320532E0B595AA
:1015B000A795979587953A95D1F7809333059093A2
:1015C0003405A0933505B093360580913B05909185
:1015D0003C05A0913D05B0913E0580933F05909359
:1015E0004005A0934105B093420540933B055093BD
:1015F0003C0560933D0570933E0502C0CC2371F21B
:10160000DF91CF911F910F910895CC2311F0C3303A
:10161000B9F780912F0590913005A0913105B091D7
:101620003205B595A79597958795C7CF0C947C0AF9
:10163000089508950895AF92BF92CF92DF92EF92EE
:10164000FF920F931F93CF93DF936C017B018B016C
:10165000040F151FEB015E01AE18BF08C017D107BC
:1016600059F06991D601ED91FC910190F081E02D46
:10167000C6010995892B79F7C501DF91CF911F919B
:101680000F91FF90EF90DF90CF90BF90AF900895B3
:10169000FC01538D448D252F30E0842F90E0821B78
:1016A000930B541710F0CF96089501970895FC01FD
:1016B000918D828D981761F0A28DAE0FBF2FB11D55
:1016C0005D968C91928D9F5F9F73928F90E00895AD
:1016D0008FEF9FEF0895FC01918D828D981731F067
:1016E000828DE80FF11D858D90E008958FEF9FEFBB
:1016F0000895FC01918D228D892F90E0805C9F4F91
:10170000821B91098F73992708958FE793E00E94B8
:10171000790B21E0892B09F420E0822F089580E0E5
:1017200090E0892B29F00E94850B81110C94000018
:101730000895FC01A48DA80FB92FB11DA35ABF4F66
:101740002C91848D90E001968F739927848FA689C0
:10175000B7892C93A089B1898C91837080648C9314
:10176000938D848D981306C00288F389E02D8081C3
:101770008F7D80830895EF92FF920F931F93CF93F5
:10178000DF93EC0181E0888F9B8D8C8D98131AC0BC
:10179000E889F989808185FF15C09FB7F894EE89A3
:1017A000FF896083E889F989808183708064808300
:1017B0009FBF81E090E0DF91CF911F910F91FF904B
:1017C000EF900895F62E0B8D10E00F5F1F4F0F73F3
:1017D0001127E02E8C8D8E110CC00FB607FCFACFAE
:1017E000E889F989808185FFF5CFCE010E94990BA8
:1017F000F1CFEB8DEC0FFD2FF11DE35AFF4FF0827F
:101800009FB7F8940B8FEA89FB8980818062CFCFE4
:10181000CF93DF93EC01888D8823B9F0AA89BB8927
:10182000E889F9898C9185FD03C0808186FD0DC012
:101830000FB607FCF7CF8C9185FFF2CF808185FF33
:10184000EDCFCE010E94990BE9CFDF91CF910895A2
:10185000DC011A96ED91FC9130E020E00994462FCE
:10186000DC011496ED91FC9130E020E06BE00994EE
:10187000DC011696ED91FC9130E020E040E069E15A
:101880000994DC011696ED91FC9130E020E040E0F7
:1018900068E109949A01DC011696ED91FC91462FBE
:1018A00067E10994EF92FF920F931F93CF93DF9319
:1018B0001F92CDB7DEB77C018B01D8016C916731E7
:1018C00029F150F46531A0F40F90DF91CF911F9171
:1018D0000F91FF90EF9008956A3118F16E3FA1F7D4
:1018E000F8014181498369E2C7010E94280C0BC0BD
:1018F000F80141814983D7011696ED91FC9130E0C2
:1019000020E0C70109950E5F1F4FD7CFF8018181F5
:101910008983AE014F5F5F4F61E0C7010E944A0CAF
:10192000F2CF0F5F1F4FD7011696ED91FC9130E07B
:1019300020E040E0C7010995C0CF462FDC01169694
:10194000ED91FC9130E020E066E10994462FDC0146
:101950001696ED91FC9130E020E065E10994EF925C
:10196000FF920F931F93CF93DF93EC01042F790124
:101970006D3009F446C050F46B30C9F1693009F498
:101980009FC06A3009F465C080E046C06E3009F43B
:1019900052C06F3099F70E94410CF7011381110F6B
:1019A000110F110F6C89160F60E4CE010E94A60C76
:1019B000612F62956F706061CE010E94A60C612F4D
:1019C0006F70CE010E949D0CF7016481606BCE01A7
:1019D0000E949D0CF701408151816281660F660F64
:1019E000660FCE010E944A0C0150A1F72EC069E19A
:1019F00071E0442311F064E171E0CE010E94520CC9
:101A00000AC0411110C06DE071E00E94520CE881E3
:101A1000F98182898C8B81E0DF91CF911F910F91A9
:101A2000FF90EF90089566E071E00E94520CE8810B
:101A3000F9818389EFCF0E94410C61E8CE010E94B9
:101A4000A60C602FCE010E949D0CCE010E94380C86
:101A5000E2CFEA85FB8530E020E040E068E2CE019D
:101A60000995EE81FF8130E020E040E064E1CE01A5
:101A7000099541E06BE4CE010E94280CE881F981D0
:101A8000448169E2CE010E94280C40E06BE4CE0163
:101A90000E94280CE881F981448169E2CE010E940C
:101AA000280C41E06BE4CE010E94280CE881F9810A
:101AB000458169E2CE010E94280C6EE171E09DCF64
:101AC00083E591E0998388831C8AA5CFDC01189671
:101AD000ED91FC9130E020E040E069E10994DC0107
:101AE0001896ED91FC9130E020E040E068E1099427
:101AF000CF93DF931F92CDB7DEB76983BE016F5FCF
:101B00007F4F0E945F090F90DF91CF910895EF9270
:101B1000FF921F93CF93DF93EC01162F7A010E945F
:101B20006F0D60E4CE010E94780DE885F98597017C
:101B3000412F67E1CE010995CE01DF91CF911F9131
:101B4000FF90EF900C94660DEF92FF921F93CF934E
:101B5000DF93EC01142F7901663181F138F464319F
:101B600009F44BC0653179F080E022C06831C9F1D9
:101B700050F16931C9F78091D602882391F1CE01E5
:101B80000E94660D2EC08091D602882319F0CE01E6
:101B90000E94660DCE010E946F0D60E0CE010E9492
:101BA000780D612FCE010E94780D81E08093D602DE
:101BB000DF91CF911F91FF90EF900895642F0E94C5
:101BC000780D81E0F5CF8091D602882319F0CE01FF
:101BD0000E94660DA701193138F4612FCE010E94D1
:101BE000870D1092D602EDCF68E1CE010E94870DDD
:101BF000185188E1E80EF11CEDCF8E898F3F11F46A
:101C000088E78E8BE885F9859701412F64E1CE0145
:101C1000DF91CF911F91FF90EF9009940F93FC01FA
:101C2000E85BFF4F0190F081E02DDF01A41BB50BB5
:101C3000AD01FC01EA5BFF4F0190F081E02DDF0177
:101C4000A61BB70BBD01011113C041505109621B06
:101C5000730BFC01E05CFF4F0190F081E02D4E1B07
:101C60005F0BDC01D496ED91FC9109950F910895DD
:101C7000013079F761507109421B530BEACFCF93C2
:101C8000DF93FC01A081B18182AD90E09C0143E033
:101C9000220F331F4A95E1F737AF26AF50962C91AC
:101CA000509748E0249F9001112435AF24AF23AD15
:101CB00030E0B90153E0660F771F5A95E1F7EF0165
:101CC000C05CDF4F7983688351964C915197E9014D
:101CD000C80FD91F50E04C175D0718F4CA01821BCA
:101CE000930BEF01CE5BDF4F79836883229623E06D
:101CF000880F991F2A95E1F7860F971F998388838C
:101D0000229654968D919C91559799838883E85B90
:101D1000FF4F56968D919C9191838083DF91CF9157
:101D200008950F931F93FC01E25BFF4F0190F08138
:101D3000E02DDC01A05BBF4F0D90BC91A02D4A1798
:101D40005B0740F4E017F10748F00417150730F07F
:101D500080E019C0E017F107C0F3FACFFC01E65BA1
:101D6000FF4F40815181845B9F4FFC0180819181B5
:101D70006817790758F481E04217530720F081E093
:101D80002617370728F71F910F9108954217530719
:101D9000B0F3DECF2F923F924F925F926F927F927D
:101DA0008F929F92AF92BF92CF92DF92EF92FF926B
:101DB0000F931F93CF93DF93CDB7DEB728970FB65E
:101DC000F894DEBF0FBECDBF98878F83865B9F4F91
:101DD0009A838983FC0111821082EF81F885EA5B86
:101DE000FF4F208031802F813885245B3F4F3C831B
:101DF0002B83F90131822082EF80F884FEE4EF0E1C
:101E0000F11CF70111821082EF81F885E85BFF4F2A
:101E100040805180EF81F885EC5BFF4F208131815C
:101E20004216530630F0C201821B930BF7019183D7
:101E30008083EF81F885EE5BFF4F20813181421A6C
:101E4000530A2F813885205B3F4F3E832D83F90154
:101E500051824082EF81F885E85AFF4F608071809F
:101E6000EF81F885EC5AFF4FA080B180EF81F885B3
:101E7000EA5AFF4FC080D180EF81F885EE5AFF4FBC
:101E80008080918083019501A601B4018F8198859E
:101E90000E94910E2F8138852C573F4F38872F8312
:101EA00081111BC0F901108228960FB6F894DEBF8D
:101EB0000FBECDBFDF91CF911F910F91FF90EF909B
:101EC000DF90CF90BF90AF909F908F907F906F905A
:101ED0005F904F903F902F90089581E0EF81F885BB
:101EE00080838114910421F0E981FA8191828082BA
:101EF000A214B30420F4EB81FC81B182A082F7012B
:101F0000808191818C159D0510F4D182C08264146A
:101F1000750450F6ED81FE8171826082C5CF0F930A
:101F2000CF93DF93E02FDC01AC57BF4FFC91FF2331
:101F300009F460C02115310509F45CC02230310577
:101F400038F0023009F04AC06F5F7F4F621B730B9D
:101F50000E2F0170E0FD52C0FC01E25BFF4F0190CB
:101F6000F081E02D4E175F0708F444C0FC01E05BF0
:101F7000FF4F0190F081E02D4E175F07D8F5FC016F
:101F8000E45BFF4F0190F081E02DDC01A65BBF4FC9
:101F90000D90BC91A02D260F371F2617370738F557
:101FA0006E177F0718F59F0121503109A217B3075B
:101FB00008F56A177B0708F4BD012E173F0708F4E0
:101FC000F901E61BF70BEC01AEA9BFA914960D9021
:101FD000BC91A02D9F01FD0109950CC0033009F0B3
:101FE000B7CF4F5F5F4F421B530BB2CFBD016E1790
:101FF0007F07E0F2DF91CF910F910895FC01E65B3E
:10200000FF4F0190F081E02D6E177F0798F3FC01E0
:10201000E45BFF4F0190F081E02D6E177F0750F7D2
:10202000FC01E05BFF4F0190F081E02DDC01A25B41
:10203000BF4F0D90BC91A02D240F351F24173507DD
:10204000A8F44E175F0788F49F0121503109A217A9
:10205000B30780F64A175B0708F4AD012E173F0758
:1020600008F4F901E41BF50BAECFAD014E175F0785
:1020700008F6EDCF213069F038F0223079F0840F86
:10208000911D47FD9A950895860F911D67FD9A95BC
:102090000895841B910947FD93950895861B910926
:1020A00067FD93950895213069F038F0223079F07A
:1020B000861B910967FD93950895840F911D47FD37
:1020C0009A950895860F911D67FD9A950895841B32
:1020D000910947FD939508953F924F925F926F92B9
:1020E0007F928F929F92AF92BF92CF92DF92EF92A8
:1020F000FF920F931F93CF93DF937C01162F442EF3
:10210000EC01C25ADF4F5E806F806C018AE8C80E16
:10211000D11C78847518312E711608F4372C8C80F8
:102120009D800E85202F462D652D8A819B810E94E2
:102130003A105C01202F462D652DC4010E945310DA
:10214000AC01442079F08C85F6018083232D30E0AA
:10215000B501C7010E948F0F171548F01719639436
:10216000512CD7CF8B858111F7CF8D85EDCF150DF4
:102170001E836F82DF91CF911F910F91FF90EF909F
:10218000DF90CF90BF90AF909F908F907F906F9097
:102190005F904F903F900895DC011A964C911A97EA
:1021A000ED91FC911197249130E0042E02C03595F9
:1021B00027950A94E2F7842F860F883068F03196CD
:1021C0001196FC93EE93E49198E0941B01C0EE0FFE
:1021D0009A95EAF72E2B88501A968C938FEF9FEFE3
:1021E00001C0880F6A95EAF7809582230895FC0163
:1021F000E60FF11D849190E0982F88273196E491A5
:102200008E0F911D0895CF93DF932091A1053091FA
:10221000A2052817390709F490C0EC019093A20594
:102220008093A105FC0184918093B4053196E491DB
:10223000E093B505FE013296E491E093B605FE0108
:102240003396E491E093B705FE013496E491E09370
:10225000B805FE013596E491E093B905FE01369686
:10226000E491E093BA05FE013796E491E093BB0553
:10227000FE013896E491E093BC05FE013996E491A5
:10228000E093BD05FE013A96E491E093BE05FE01A0
:102290003B96E491E093BF05FE013C96E491E09308
:1022A000C005FE013D96E491E093C105FE013E9616
:1022B000E491E093C205FE013F96E491E093C305EB
:1022C000FE017096E491E093C40561E1CE010E94A5
:1022D000F7109093C6058093C50563E1CE010E9477
:1022E000F7109093C8058093C70565E1CE010E9461
:1022F000F7109093CA058093C9058091A10590912C
:10230000A205892BD1F08091C1058093CD05409124
:10231000C2054093CE059091CC05992371F0913080
:1023200079F49091C305891714F49093CD058091A9
:10233000C405841714F48093CE05DF91CF910895DE
:102340003091BE052091C005082E000C990B622F1C
:10235000022E000C770B630F711D37FD7A958617DF
:1023600097071CF4320F3093CD05241734F72093D0
:10237000CE05E3CF4F925F926F927F928F929F92A2
:10238000AF92BF92CF92DF92EF92FF920F931F9383
:10239000CF93DF93EC016B018A017901FC01E459D1
:1023A000FF4F8081813009F44BC008F43EC0823079
:1023B00009F451C0833009F459C0FE01E05AFF4FBF
:1023C000D182C082329611830083389780819181B7
:1023D00047962FEFE216F10411F008F0F2C0E1E6A3
:1023E000EE16F10408F44DC0FE01E058FF4F2081C5
:1023F0003181820F931F9C012F5F3F4FF901449160
:10240000411148C090E080E0DF91CF911F910F9182
:10241000FF90EF90DF90CF90BF90AF909F908F9004
:102420007F906F905F904F900895FE01E45AFF4FA8
:102430000190F081E02DCE010995080F191FBDCF45
:10244000FE01E45AFF4F0190F081E02DCE01099585
:10245000C81AD90AB2CFFE01E45AFF4F0190F081A9
:10246000E02DCE010995081B190BA7CFFE01E45AF8
:10247000FF4F0190F081E02DCE010995C80ED91EC5
:102480009CCFF1E4EF16F10408F4B5CFFE01E25859
:10249000FF4FADCFFC0144914E151F0409F08CC0D5
:1024A0000296009709F4AECF7E01FEE5EF0EF11C17
:1024B000F70191838083128673966081C7010E9421
:1024C000CC10F701808774966081C7010E94CC1000
:1024D000982EF70181875E01FAE8AF0EB11CF50175
:1024E0009081F701948781E0911180E0F701858761
:1024F000FE01ED58FF4FC0806C2DC7010E94CC102B
:10250000582EFE01EC58FF4FD0806D2DC7010E9460
:10251000CC10482EFE01EB58FF4F1081612FC701F0
:102520000E94CC109FEF910F01E010E0980101C0D4
:10253000220F9A95EAF7882E821AF7016084161402
:102540000CF0ADC0CA94C80101C0880FCA94EAF764
:10255000581A7684490CDA94A80101C0440FDA9421
:10256000EAF7F42FF4194F2E272D4F2F652DF70181
:10257000828193810E943A106C01F70193838283D8
:10258000272D442D652D848195810E945310F701DC
:1025900095838483F1E07F1609F485C07F1608F4E3
:1025A0003FC022E0721609F48DC0E3E07E1609F404
:1025B0009DC0BC0196013EC0F9012491820F911D7E
:1025C0001ACFFE01EE57FF4F00811181080F191F2E
:1025D000680160E0C6010E94F710080F191F62E051
:1025E000C6010E94F710F4E0CF0ED11C8E159F0596
:1025F00080F3F801849190E0982F88273196E49138
:102600008E2B009709F4FECEE816F90619F4C801DE
:10261000039647CFF8013296E4910E0F111DE9CFD2
:102620009601260D311D67FC3A95BC01690D711D9F
:1026300097FC7A958B01AC01B601CE010E94910EF8
:10264000882369F1F701168217828E0101591F4F05
:102650006E01F0E7CF0ED11CF8016081C7010E9426
:10266000CC10682EF6016081C7010E94CC10782E34
:1026700040E0662DCE010E946C1041E0672DCE0136
:102680000E946C1061E0C7010E94CC108111F0CF54
:10269000F7018781891504F38485F5018083882DEE
:1026A000880C990BB1CE0919110997FC1395960165
:1026B0002F5F3F4FBC01660D711D67FC7A95C00E00
:1026C000D11EB8CFA8014619510967FC5395960150
:1026D0002F5F3F4F0919110997FC1395BC016F5FDC
:1026E0007F4F800F911FC40ED51EA4CF9601290DD8
:1026F000311D97FC3A950619110967FC1395BC0129
:102700006F5F7F4F800F911F95CFCF92DF92EF9237
:10271000FF920F931F93CF93DF93EC018B011092E5
:102720005F057A01D12CC12CF70161917F01E09105
:102730004905F0914A0587E495E009958F3F980790
:1027400019F18E3F2FEF920779F39C01A801BE018A
:1027500087E495E00E94BA112091B305213059F029
:1027600038F0223059F0233061F0C80ED91EDCCF8A
:10277000C80FD91FFACF080F191FF7CFC81BD90BE5
:10278000F4CF081B190BF1CFC601DF91CF911F9138
:102790000F91FF90EF90DF90CF900895CF93DF934C
:1027A000EC016BAFEEA9FFA90190F081E02D099536
:1027B000EEA9FFA90280F381E02DCE01DF91CF9138
:1027C0000994AF92BF92CF92DF92EF92FF920F9354
:1027D0001F93CF93DF9300D000D01F92CDB7DEB709
:1027E0008C01DC01DA96AC90DA97DB96EC90DB9703
:1027F000ED91FC91B188FE2CD12CC12CD801ED912A
:10280000FC9111978089D8962D913C911C82FD8274
:102810008B83B8E08B9FC00111248C9DA0018D9DFE
:10282000500D9C9D500D1124240F351F3A83298390
:10283000D8011496ED91FC919E012F5F3F4F41E02E
:102840006FE0C8010995F3948F2D8E198A1528F42D
:10285000BFEFCB1ADB0AFB1488F20F900F900F909A
:102860000F900F90DF91CF911F910F91FF90EF90FC
:10287000DF90CF90BF90AF9008950F931F93CF93A9
:10288000DF938C01C62F642FCC32E8F4CA3208F0F3
:1028900041C0C83271F1C93209F442C080E0C0348D
:1028A000D0F1CF73F801EC0FF11D868D8F3F91F1C0
:1028B000C031E0F00E94900921E0892B09F420E06A
:1028C000F801218F27C0CD3289F140F384EB8C0FC2
:1028D000823020F7CF73C00FD12FD11D8E8D4111C3
:1028E00033C061E00E94E70960E08E8D0E94B90963
:1028F00011C0025E1F4FD0E0F80181918F018F3F20
:1029000031F061E0D03108F062E00E94E709DF5F5A
:10291000D63191F781E0DF91CF911F910F9108950A
:1029200070E090E080E00E943D0AF4CF85E090E006
:10293000433010F082E090E0880F991F880F991FB4
:1029400005970197F1F7E6CF62E00E94E709E2CF31
:102950002091B302260F3327331F21323105ECF4C7
:1029600020914F03FC0190E080E0243069F082E088
:102970000895A091B3022191AC014D565D4FA40F73
:10298000B52FB11D2C930196861798F38091B30251
:10299000680F6093B30280E0089581E0089510927B
:1029A0004F0381E080934E031092290361E082E19E
:1029B0000E94B90961E083E10E94B909E9EBF0E006
:1029C00080818E7F808380818D7F808388E4809367
:1029D000B80085E48093BC000895CF93DF9391E025
:1029E000909392028823B9F0C091B800D091BA00B8
:1029F0008091BC008A7B8093BC0060E082E10E94F1
:102A0000B90960E083E10E94B9090E94CF14D09314
:102A1000BA00C093B800DF91CF9108958F929F9232
:102A2000AF92BF92CF92DF92EF92FF920F931F93DC
:102A3000CF93DF93D0917803D13208F0D7C0182F0D
:102A4000C09177030E94180A6B017C0180914F03AB
:102A500081116BC082E080934F0310934E038FEF80
:102A600080934D0310924C03D0934B03A7E5B3E042
:102A7000EBE2F3E080E0D81391C010922A0380913A
:102A80002A03CC0FC82BC0932A03809129038130DD
:102A900009F088C0109229030E94180A6B017C017A
:102AA00080912A038093BB0080915103909152033F
:102AB000A0915303B0915403892B8A2B8B2BA1F047
:102AC0000E94180A00915103109152032091530360
:102AD000309154036C197D098E099F090617170759
:102AE0002807390708F442C08091BC0083FDD8CF85
:102AF00085EC8093BC000E94180A6B017C018091D8
:102B00004F03823009F450C080914D038F3F09F488
:102B10006FC080914D03803209F46CC080914D03E9
:102B2000803309F469C084E026C0809151039091FC
:102B30005203A0915303B0915403892B8A2B8B2B02
:102B400009F484CF0E94180A809051039090520398
:102B5000A0905303B09054036C197D098E099F090E
:102B600086169706A806B90608F070CF8091500324
:102B70000E94ED1485E01092560310927803109293
:102B80005503DF91CF911F910F91FF90EF90DF9050
:102B9000CF90BF90AF909F908F9008959D9191930B
:102BA0008F5F69CF85EEA5CF80915103909152033D
:102BB000A0915303B0915403892B8A2B8B2B09F4DA
:102BC0009ECF0E94180A0091510310915203209148
:102BD0005303309154036C197D098E099F09061720
:102BE00017072807390708F08ACFC0CF81E0C3CF85
:102BF00080E0C1CF82E0BFCF83E0BDCF0895E091F8
:102C0000F4028091F302E81730F4F0E0EB50FD4F4E
:102C1000808190E008958FEF9FEF08959091F402E6
:102C20008091F3022FEF3FEF981748F4E92FF0E07F
:102C3000EB50FD4F208130E09F5F9093F402C9017B
:102C40000895CF92DF92EF92FF920F931F93CF934D
:102C5000DF937C01CB018A0120915503222389F067
:102C6000EB016B01C40ED51ECC15DD0569F0699131
:102C7000D701ED91FC910190F081E02DC7010995FC
:102C8000F3CF642F0E94A814C801DF91CF911F9148
:102C90000F91FF90EF90DF90CF900895CF93DF9347
:102CA000EC01962F683109F445C0B901993130F42F
:102CB000943199F0973159F080E006C0993109F4C8
:102CC0005BC09032C9F781E0DF91CF91089550E069
:102CD0008CE194E00E942116F6CF8C859D85AE850F
:102CE000BF85892B8A2B8B2B71F4E881F981A5850F
:102CF000B0E020EA36E841E050E00E9432246C87E0
:102D00007D878E879F871092F4021092F3021092B3
:102D10005603109278030E94CF1488E19BE09093B1
:102D2000D8028093D70289E19BE09093DA028093E6
:102D3000D902C9CF2C853D854E855F8560E074E260
:102D400084EF90E00E94102420513109410951097B
:102D500056954795379527952093B8008E8990E032
:102D60009595879591E09093550380937703109202
:102D7000560310927803A7CF81E00E940E15A3CFCF
:102D8000CF93DF931F92CDB7DEB7698320915503B0
:102D90002223F9F020917803203258F021E030E02E
:102DA000FC013383228390E080E00F90DF91CF918C
:102DB000089580915603E82FF0E0E95AFC4F99817D
:102DC00090838F5F809356038093780381E090E037
:102DD000ECCF61E0CE0101960E94A814F7CFCF930B
:102DE000C82F81E080935503109277031092560309
:102DF0001092780361E08CE194E00E94C01662E0DA
:102E00008CE194E00E94C0166C2F8CE194E00E944B
:102E1000C0166DEF6C1B8CE194E00E94C01681E03F
:102E2000CF910C940E150F931F93CF93DF93082F20
:102E3000162FD72FC2E0C80FC60FC70F81E08093AF
:102E4000550310927703109256031092780362E0B4
:102E50008CE194E00E94C016602F8CE194E00E9407
:102E6000C016612F8CE194E00E94C0166D2F8CE19A
:102E700094E00E94C0166C2F61958CE194E00E9452
:102E8000C01681E0DF91CF911F910F910C940E1528
:102E9000CF92DF92EF92FF920F931F93CF93DF9326
:102EA0006C01EB017B01E40EF51E10E000E0CE1595
:102EB000DF0561F06991D601ED91FC910190F081FF
:102EC000E02DC6010995080F191FF1CFC801DF9148
:102ED000CF911F910F91FF90EF90DF90CF900895C9
:102EE000CF92DF92EF92FF920F931F93CF93DF93D6
:102EF000EC016C0124E0C20ED11CFC01E057FF4F35
:102F00000190F081E02DC60109958E3FEFEF9E07FD
:102F1000D8F48E010C561F4FF801408151817E017B
:102F2000F2E9EF0EF11CF701608171819C01C6018D
:102F30000E94BA11C059DF4F28812130C1F078F0CA
:102F40002230B9F02330E9F081E090E0DF91CF91B9
:102F50001F910F91FF90EF90DF90CF900895F701B0
:102F600020813181820F931F91838083EDCFF801FF
:102F7000F7CFF70120813181281B390B3183208362
:102F8000E3CFF801F7CF089590E080E00895FF9235
:102F90000F931F93CF93DF9309E713E0D0E0C0E0D6
:102FA000F801F1908F01CE010E94FA23F81621F06A
:102FB0006F2DCE010E9402242196C630D10581F7E3
:102FC00089E793E0DF91CF911F910F91FF900895D2
:102FD000CF92DF92EF92FF920F931F93CF93DF93E5
:102FE000C82F81E0809355038FE080937703109280
:102FF00056031092780362E08CE194E00E94C016C0
:103000006C2F8CE194E00E94C0166FEE6C1B8CE17B
:1030100094E00E94C01680E00E940E150E94180ADB
:103020006B017C0180914F03811165C081E0809329
:103030004F0380934E039FEF90934D0310924C03E8
:1030400094E090934B0380932A0380912A038E612E
:1030500080932A0380912903813009F08CC010925B
:1030600029030E94180A6B017C0180912A03809336
:10307000BB008091510390915203A0915303B091F2
:103080005403892B8A2B8B2BA1F00E94180A0091E4
:1030900051031091520320915303309154036C1942
:1030A0007D098E099F09061717072807390708F4B5
:1030B00043C08091BC0083FDD8CF85EC8093BC00D9
:1030C0000E94180A6B017C0180914F03813009F442
:1030D00054C080914C03C5E0853010F4C0914C037E
:1030E000ABE2B3E0E5EFF2E080E08C1751F19D91A7
:1030F00091938F5FFACF8091510390915203A091E9
:103100005303B0915403892B8A2B8B2B09F48ACF5C
:103110000E94180A00915103109152032091530309
:10312000309154036C197D098E099F090617170702
:103130002807390708F076CF809150030E94ED14DC
:10314000C0E01092F402C093F3028CE194E00E947C
:103150000E16D82F182F45E1E42E43E0F42E80916F
:10316000F402C81761F18CE194E00E940E16F70199
:1031700081937F01F4CF85EEA1CF8091510390918F
:103180005203A0915303B0915403892B8A2B8B2BAC
:1031900009F49ACF0E94180A00915103109152032A
:1031A00020915303309154036C197D098E099F09B6
:1031B000061717072807390708F086CFBDCF2091DB
:1031C000160380911503422F480F5527551F209154
:1031D0001703240F352F311D80911803280F311D3F
:1031E00080911903820F932F911D8D0F911D919541
:1031F0008195910940911A039C01332742171306C8
:1032000039F420911B03892F99272817190611F0EB
:103210001D2F1061812FDF91CF911F910F91FF9092
:10322000EF90DF90CF900895FB0101900020E9F727
:103230003197AF01461B570BDC01ED91FC910280E9
:10324000F381E02D09948F929F92AF92BF92EF92FB
:10325000FF920F931F93CF93DF93CDB7DEB7A19764
:103260000FB6F894DEBF0FBECDBF7C01FA01CB01D3
:1032700019A2223008F42AE08E010F5D1F4F822E22
:10328000912CB12CA12CBF01A50194010E94102406
:10329000F901CA016A300CF5605DD8016E938D01A9
:1032A000232B242B252B79F790E080E0109721F039
:1032B000BD01C7010E941419A1960FB6F894DEBF94
:1032C0000FBECDBFDF91CF911F910F91FF90EF9077
:1032D000BF90AF909F908F900895695CDECFCF92A2
:1032E000DF92EF92FF92CF93DF936B017C016DE24F
:1032F0008FE793E00E94BB0BEC0144275527BA01EE
:103300004C195D096E097F092AE08FE793E00E945E
:1033100023198C0F9D1FDF91CF91FF90EF90DF90CD
:10332000CF9008954F925F926F927F928F929F926B
:10333000AF92BF92CF92DF92EF92FF920F931F93C3
:10334000CF936B017C01742EAC019B010E948926F6
:1033500061EB71E0811126C046015701E894B7F88E
:103360002FEF3FEF4FE75FE7C501B4010E948926C9
:1033700081110CC02FEF3FEF4FE75FE7C501B401AC
:103380000E94BF2465EB71E0181664F02FEF3FEF49
:103390004FE75FE4C701B6010E9417261816ACF488
:1033A00069EB71E083E495E0CF911F910F91FF905D
:1033B000EF90DF90CF90BF90AF909F908F907F90D5
:1033C0006F905F904F900C9414192FEF3FEF4FE7E1
:1033D0005FECC701B6010E94BF2487FDE1CF20E06A
:1033E00030E0A901C701B6010E94BF2410E000E04F
:1033F00087FF0AC06DE283E495E00E9470178C019C
:10340000F7FAF094F7F8F094C0E060E070E080E044
:103410009FE37C1641F020E030E040E251E40E945E
:10342000C424CF5FF6CFA70196010E9453242B013D
:103430003C010E9436254B015C012AE0BC01A4013D
:1034400083E495E00E9423197C01E00EF11ECC2359
:10345000D1F1C501B4010E9465259B01AC01C301F6
:10346000B2010E9452244B015C016EE283E495E0BC
:103470000E947017E80EF91EC15028F120E030E0DC
:1034800040E251E4C501B4010E941C262B013C011D
:103490000E9436254B01B12CA12C2AE0B501A401D4
:1034A00083E495E00E942319E80EF91EC501B401DA
:1034B0000E9465259B01AC01C301B2010E94522408
:1034C0004B015C01D9CFC701CF911F910F91FF90A4
:1034D000EF90DF90CF90BF90AF909F908F907F90B4
:1034E0006F905F904F900895CF93DF93BC018FE76B
:1034F00093E00E941419EC016DEB71E08FE793E00B
:103500000E9414198C0F9D1FDF91CF9108950C9488
:103510001419FC01A081B18150962C9182AD38E044
:10352000839FC0011124289FA001299F500D1124C1
:1035300070E060E080AD91AD0C948E261F93CF9328
:10354000DF93EC010E94E1131BAD8AAD180FE881F7
:10355000F9818189181768F0EC81FD8130E020E065
:1035600040E060E1CE01099580E0DF91CF911F91AD
:103570000895FE01E557FF4F8081882319F0CE01A1
:103580000E94891A612FCE010E94CE1381E0EDCFF7
:10359000CF93DF93EC01FC01E557FF4F8081882337
:1035A00019F0CE010E94891A60E0CE01DF91CF911F
:1035B0000C94CE134F925F926F927F928F929F9254
:1035C000AF92BF92CF92DF92EF92FF920F931F9331
:1035D000CF93DF93182FEA0190E080E00E946525E9
:1035E00020E030E048EC52E40E94C4246B017C01EE
:1035F000BE0190E080E00E94652520E030E048ECCC
:1036000052E40E94C4242B013C0187E495E00E940F
:10361000C81AC8E7D8E089E2A82EB12C9FE3892E0A
:10362000912C87E497E00E940311D0934A05C09340
:10363000490540EC51E06EE070E090E080E00E94CF
:10364000851300E020E830E044E150E070E060E005
:1036500087E495E00E948F0F1092B0051092D60576
:103660001092D505B092D805A092D70569EC71E00B
:1036700083E495E00E94871A81E0113009F480E02C
:103680000E94F40820E030E040E251E4C701B601B6
:103690000E94BF2487FF06C063ED71E083E495E0DC
:1036A0000E94871A42E0C701B6010E94921981E088
:1036B0000E94F4086DEC71E083E495E00E94871AA3
:1036C0001092D6051092D5059092D8058092D70514
:1036D00061ED71E083E495E00E94871A81E0123089
:1036E00009F480E00E94F40820E030E040E251E478
:1036F000C301B2010E94BF2487FF06C063ED71E0E1
:1037000083E495E00E94871A42E0C301B2010E945F
:10371000921981E00E94F40865ED71E083E495E080
:103720000E94871A87E495E00E949E1A811179CF42
:10373000DF91CF911F910F91FF90EF90DF90CF908D
:10374000BF90AF909F908F907F906F905F904F90C1
:10375000089585ED8093BC008091510390915203B0
:10376000A0915303B09154030796A11DB11D23E00E
:10377000B695A795979587952A95D1F72091BC0086
:1037800024FD03C010924F030895409151035091BE
:1037900052036091530370915403452B462B472BE2
:1037A00069F30097A105B10541F02AE22A95F1F7E6
:1037B00000C00197A109B109E1CF809150030C9499
:1037C000ED141F920F920FB60F9211242F933F9377
:1037D0008F939F93AF93BF938091EB029091EC02F4
:1037E000A091ED02B091EE023091EA0223E0230FA6
:1037F0002D3758F50196A11DB11D2093EA02809343
:10380000EB029093EC02A093ED02B093EE02809154
:10381000EF029091F002A091F102B091F2020196B4
:10382000A11DB11D8093EF029093F002A093F102CD
:10383000B093F202BF91AF919F918F913F912F91E1
:103840000F900FBE0F901F90189526E8230F029639
:10385000A11DB11DD2CF1F920F920FB60F9211244E
:103860002F933F934F935F936F937F938F939F9388
:10387000AF93BF93EF93FF93E0910201F0910301A7
:103880000995FF91EF91BF91AF919F918F917F919A
:103890006F915F914F913F912F910F900FBE0F90BD
:1038A0001F9018951F920F920FB60F9211242F930D
:1038B0003F934F935F936F937F938F939F93AF93B8
:1038C000BF93EF93FF93E0910001F09101010995FF
:1038D000FF91EF91BF91AF919F918F917F916F91E8
:1038E0005F914F913F912F910F900FBE0F901F90BE
:1038F00018951F920F920FB60F9211242F933F939A
:103900004F935F936F937F938F939F93AF93BF93E7
:10391000EF93FF938FE793E00E94990BFF91EF9154
:10392000BF91AF919F918F917F916F915F914F91D7
:103930003F912F910F900FBE0F901F9018951F92DF
:103940000F920FB60F9211242F938F939F93EF93A3
:10395000FF93E0918F03F09190038081E0919503B4
:10396000F091960382FD1BC09081809198038F5F38
:103970008F7320919903821741F0E0919803F0E052
:10398000E158FC4F958F80939803FF91EF919F91A1
:103990008F912F910F900FBE0F901F9018958081DF
:1039A000F4CF1F920F920FB60F9211242F933F93D3
:1039B0004F935F936F937F938F939F93AF93BF9337
:1039C000EF93FF938091B900887F803609F44AC055
:1039D000F0F5883209F4A7C018F5803109F49BC0CE
:1039E000B8F4882309F4F9C0883009F494C0FF9131
:1039F000EF91BF91AF919F918F917F916F915F9167
:103A00004F913F912F910F900FBE0F901F901895DF
:103A1000883109F488C0803251F780934D0314C077
:103A2000803409F49DC040F48033B9F38833F9F64B
:103A300080934D0385ECB0C0803509F485C088358E
:103A400009F496C0883499F60E94A91BD0CF883912
:103A500009F48CC038F5883729F050F4883611F015
:103A6000803729F683E080934F031092D50257C028
:103A7000883809F47BC0803919F0803809F0B7CF55
:103A80008091D502803208F071C0E091D50281E0CA
:103A90008E0F8093D5028091BB00F0E0EB54FD4F78
:103AA00080833DC0803B39F0E0F4803A09F479C06E
:103AB000883A09F09CCF84E080934F031092B402BF
:103AC0001092B302E091D702F091D802099580914B
:103AD000B30281110FC081E08093B3021092930270
:103AE00009C0803C09F4A6CF883C09F4A3CF883BE9
:103AF00009F07DCFE091B40281E08E0F8093B40293
:103B0000F0E0ED56FD4F80818093BB009091B402B0
:103B10008091B30229C080912A038093BB0085EC79
:103B20008093BC0064CF90914C0380914B03981715
:103B300058F5E0914C0381E08E0F80934C03F0E048
:103B4000E55DFC4F8081E9CFE0914C0381E08E0F71
:103B500080934C038091BB00F0E0E55DFC4F8083D7
:103B600090914C0380914B039817C8F285E8D8CF09
:103B7000E0914C0381E08E0F80934C038091BB0059
:103B8000F0E0E55DFC4F808380914E0381115CCFB6
:103B900081E08093290384EA8093BC0010924F0354
:103BA00026CF85EC8093BC0010924F038091D50204
:103BB000803230F4E091D502F0E0EB54FD4F1082FA
:103BC0006091D50270E0E091D902F091DA0285EBC4
:103BD00092E009951092D5020ACF10924D0334CF8E
:103BE000CF93109282031092810388EE93E0A0E0BD
:103BF000B0E08093830390938403A0938503B093F4
:103C000086032FE731E03093800320937F0325EC78
:103C100030E030938C0320938B0324EC30E030931E
:103C20008E0320938D0320EC30E03093900320939B
:103C30008F0321EC30E0309392032093910322EC28
:103C400030E0309394032093930326EC30E03093DC
:103C50009603209395031092980310929903109263
:103C60009A0310929B0310921F0410921E048093DB
:103C7000200490932104A0932204B093230481E9AB
:103C800091E090931D0480931C04109246051092BD
:103C9000450588E798E09093D4058093D30510926A
:103CA000D6051092D5051092D8051092D70510921E
:103CB0005F0583EA91E09093440580934305109259
:103CC00048051092470510925C051092530510921A
:103CD000540510925505109256058FEF80935D059F
:103CE00080936105E5E6F5E08BE795E0CFEFC193C2
:103CF0008E179F07E1F78FEA9CE090934C05809325
:103D00004B0584EA9DE090934E0580934D058EE42B
:103D100096E19093500580934F058DE394E1909345
:103D200052058093510530E020E040E069E087E4EF
:103D300095E00E94AF0C1092A2051092A10582E8B6
:103D400098E090937C0580937B0588E294E09093C3
:103D5000800580937F0582E0809381051092820523
:103D60001092B0051092D0051092CC0581E080939E
:103D7000D1058093D2058BEA91E090937E058093E4
:103D80007D0587E495E00E943F0E10929A051092FF
:103D9000990510929E0510929D058FEF9FEF9093CD
:103DA0009C0580939B059093A00580939F05E091CF
:103DB0007D05F0917E050280F381E02D87E495E09A
:103DC000099581EF98E09093A4058093A305109244
:103DD000B305C0937005C0937105C093720583E06D
:103DE00090E0909329058093280582E090E09093DD
:103DF0002B0580932A0581E090E090932D05809318
:103E00002C0562E083E00E94E70962E082E00E9404
:103E1000E709809128050E949009C82F80912A0502
:103E20000E949009880F991F8C2B80932E05109269
:103E30002F05109230051092310510923205109224
:103E40003305109234051092350510923605109204
:103E50003705109238051092390510923A05CF9126
:103E60000895789484B5826084BD84B5816084BDF2
:103E700085B5826085BD85B5816085BD80916E0008
:103E8000816080936E001092810080918100826039
:103E90008093810080918100816080938100809176
:103EA00080008160809380008091B1008460809365
:103EB000B1008091B00081608093B00080917A0061
:103EC000846080937A0080917A00826080937A0087
:103ED00080917A00816080937A0080917A00806876
:103EE00080937A001092C1001092F4021092F302B3
:103EF00010925603109278030E94CF1488E19BE041
:103F00009093D8028093D70289E19BE09093DA02E4
:103F10008093D902E0918F03F091900382E0808337
:103F2000E0918B03F0918C031082E0918D03F0916E
:103F30008E0380E1808310929703E0919303F091C8
:103F4000940386E08083E0919103F0919203808155
:103F500080618083E0919103F09192038081886079
:103F60008083E0919103F091920380818068808347
:103F7000E0919103F091920380818F7D808362E0D4
:103F800084E00E94E70926E13BE03093030120939F
:103F9000020180916900837F846080936900E99ABF
:103FA0003093010120930001809169008C7F816032
:103FB00080936900E89A80E593ECA0E0B0E08093FC
:103FC000530590935405A0935505B0935605E09181
:103FD0004B05F0914C0530E020E040E06AE087E4DA
:103FE00095E0099587E495E00E94C81A87E495E07A
:103FF0000E949E1A8111FACF60E087E495E00E944A
:10400000CE1360E087E495E00E942F0C87E495E0F2
:104010000E94C81AC8E7D8E087E497E00E9403111D
:10402000D0934A05C093490549ED51E06EE070E038
:1040300090E080E00E94851388E690E00E940311E2
:10404000D0934A05C093490548EE51E06AE270E01A
:104050008AE090E00E94851387E495E00E949E1A12
:104060008111DACFC8EC80E00E94E8174091150377
:1040700050E070E060E02AE08FE793E00E942319AF
:104080006DEB71E08FE793E00E94141980911503A6
:104090008670863009F03EC184E00E94EF1609E781
:1040A00013E0D0E0C0E0CE010E94FA23F801819332
:1040B0008F012196C630D105B1F780917903909197
:1040C0007A0381319742A0F080EC92E190937A03D9
:1040D000809379038AE698E190937C0380937B0335
:1040E0008CE097E190937E0380937D030E94C71735
:1040F0006091790370917A038CE00E9413176091AC
:10410000790370917A0382E70E94131760917B0311
:1041100070917C038AE00E94131760917B03709179
:104120007C0384E70E94131760917D0370917E03E6
:104130008EE00E94131760917D0370917E0386E7E5
:104140000E94131782E00E94EF160E94700A60938B
:10415000E6027093E7028093E8029093E90248E751
:10416000242E48E0342E11E02FE3A22EB12C3AE6A3
:10417000832E38E1932EC0E0D0E084E00E949009C5
:10418000009709F0F2C00E94700A6093E6027093F3
:10419000E7028093E8029093E9028091E5028111A1
:1041A000C3C00E94700A6093E1027093E2028093A0
:1041B000E3029093E4021093E5021092E0020E9461
:1041C0007C0A8091330590913405A0913505B0911A
:1041D00036057C012091DD023091DE0282179307C3
:1041E00009F480C040913B0550913C0560913D052C
:1041F00070913E0540903F0550904005609041050C
:1042000070904205441955096609770942335105F2
:104210006105710588F4821B930B4AE0489F700189
:10422000499FF00C1124E20EF31EB7010F2C000C75
:10423000880B990B0E94FE080E94700A6093E602A8
:104240007093E7028093E8029093E9026DE272E0D6
:104250008FE793E00E94871AA7010F2C000C660BD2
:10426000770B77FF95C0CB01BA010E946F1962E30B
:1042700072E08FE793E00E94871A409137055091D2
:1042800038056091390570913A0580913305909118
:104290003405A0913505B091360584179507A6071A
:1042A000B7070CF07BC08091330590913405A09145
:1042B0003505B09136058093370590933805A09366
:1042C0003905B0933A056FEF7FEFCB010E946F196C
:1042D0006DEB71E08FE793E00E941419F092DE021B
:1042E000E092DD028091DB029091DC028130910549
:1042F00009F4B4C108F496C0029709F429C22097C2
:1043000009F43BCF0E94850B882309F42CCF0E942F
:10431000000029CF64E670E080E090E00E943D0A52
:10432000C15009F0A0CEBBCE8091E002811147CFF1
:104330000E94700AC090E102D090E202E090E30295
:10434000F090E4026C197D098E099F09683E734064
:104350008105910508F433CF85EF91E00E94741A2E
:104360001093E0021093DF022ACF019709F027CFC4
:104370008091E502882309F422CF1092E502809112
:10438000E00281111CCF81E192E00E94741AEACF11
:104390002AE08FE793E00E94231969CF4091370507
:1043A000509138056091390570913A058091330537
:1043B00090913405A0913505B091360548175907FD
:1043C0006A077B07E4F48091330590913405A0914E
:1043D0003505B09136058093370590933805A09345
:1043E0003905B0933A0541E050E0052E000C660B0C
:1043F000770B2AE08FE793E00E94231969CF809121
:10440000330590913405A0913505B0913605809320
:10441000370590933805A0933905B0933A0550E0DD
:1044200040E0E3CF0E94700A20910501C090E602AF
:10443000D090E702E090E802F090E9026C197D0963
:104440008E099F0961367A4E8105910578F0222305
:1044500009F455CF61E087E495E00E942F0C10929B
:10446000050188E392E00E94741A49CF21110BC024
:1044700060E087E495E00E942F0C1093050184E42E
:1044800092E00E94741A86E00E94E8176091160379
:1044900070E0762F662780911503680F711D072E37
:1044A000000C880B990B0E94672520E030E048EC57
:1044B00052E40E94C4242B013C0188E00E94E817CA
:1044C0006091160370E0762F662780911503680FC0
:1044D000711D072E000C880B990B0E94672520E0A8
:1044E00030E048EC52E40E94C4246B017C0187E474
:1044F00095E00E94C81A87E497E00E940311309269
:104500004A05209249054FE452E06EE070E090E0E9
:1045100080E00E94851300E020E830E044E150E0B4
:1045200070E060E087E495E00E948F0F1092D6055E
:104530001092D50589E290E09093D8058093D70535
:1045400069EC71E083E495E00E94871A20E030E096
:1045500040E251E4C301B2010E94BF2487FF06C0BC
:1045600063ED71E083E495E00E94871A42E0C301A5
:10457000B2010E9492196DEC71E083E495E00E9413
:10458000871A1092D6051092D505B092D805A09240
:10459000D70561ED71E083E495E00E94871A20E081
:1045A00030E040E251E4C701B6010E94BF2487FF1A
:1045B00006C063ED71E083E495E00E94871A42E053
:1045C000C701B6010E94921965ED71E083E495E0A0
:1045D0000E94871A87E495E00E949E1A81118BCF72
:1045E0008091DF02882309F48ACE8091E00288233B
:1045F000D1F080910401882361F084E00E94EF16DD
:1046000088E592E00E94741A109204011092DF0271
:1046100076CE82E00E94EF1683E692E00E94741A42
:1046200010930401F3CF6091790370917A0390E0C5
:1046300080E00E94FE088091330590913405A0919E
:104640003505B09136059093DE028093DD02E1E0FE
:10465000F0E0F093DC02E093DB02D8CF4091330529
:10466000509134056091350570913605493AF6E16F
:104670005F07C8F028EA36E130937A032093790384
:1046800068EA76E180E090E00E94FE0880913305C0
:1046900090913405A0913505B09136059093DE02D6
:1046A0008093DD0209C0403E30E1530708F445C065
:1046B00050937A034093790340917B0350917C039C
:1046C0006091790370917A0381E00E94DA1A609117
:1046D000790370917A038CE00E9413178091DF02B6
:1046E000882309F40CCE8091E002882349F0609180
:1046F000790370917A0382E70E9413170E94C7170B
:1047000060917B0370917C0390E080E00E94FE0842
:104710008091330590913405A0913505B09136050F
:104720009093DE028093DD021092DF02E2E0F0E07F
:10473000F093DC02E093DB02E2CD80EE90E1909317
:104740007A038093790360EE70E180E090E09CCF83
:104750008091330590913405A0913505B0913605CF
:104760008B36F8E19F0778F590937C0380937B0369
:1047700040917B0350917C036091790370917A039F
:1047800082E00E94DA1A60917B0370917C038AE0D8
:104790000E9413178091DF02882309F4B0CD809125
:1047A000E002882349F060917B0370917C0384E7E9
:1047B0000E9413170E94C7171092DF021092DC02AA
:1047C0001092DB029CCD90927C0380927B036AE680
:1047D00078E180E090E00E94FE088091330590919E
:1047E0003405A0913505B09136059093DE02809393
:1047F000DD02BECFF999FECF92BD81BDF89A99270F
:1048000080B50895262FF999FECF1FBA92BD81BDBC
:1048100020BD0FB6F894FA9AF99A0FBE0196089542
:10482000A1E21A2EAA1BBB1BFD010DC0AA1FBB1FB4
:10483000EE1FFF1FA217B307E407F50720F0A21B26
:10484000B30BE40BF50B661F771F881F991F1A9493
:1048500069F760957095809590959B01AC01BD01BD
:10486000CF0108950E944324A59F900DB49F900D01
:10487000A49F800D911D11240895EE0FFF1F059038
:10488000F491E02D0994A29FB001B39FC001A39FB2
:10489000700D811D1124911DB29F700D811D112479
:1048A000911D08955058BB27AA270E946A240C9492
:1048B000DD250E94CF2538F00E94D62520F039F45E
:1048C0009F3F19F426F40C94CC250EF4E095E7FBF9
:1048D0000C94C625E92F0E94EE2558F3BA176207FB
:1048E00073078407950720F079F4A6F50C94102639
:1048F0000EF4E0950B2EBA2FA02D0B01B9019001FB
:104900000C01CA01A0011124FF27591B99F0593F3E
:1049100050F4503E68F11A16F040A22F232F342F86
:104920004427585FF3CF469537952795A795F040D4
:104930005395C9F77EF41F16BA0B620B730B840BE9
:10494000BAF09150A1F0FF0FBB1F661F771F881FA1
:10495000C2F70EC0BA0F621F731F841F48F48795F9
:1049600077956795B795F7959E3F08F0B0CF9395EB
:10497000880F08F09927EE0F9795879508950E9464
:10498000A22508F481E008950E94D8240C94DD2526
:104990000E94D62558F00E94CF2540F029F45F3FB1
:1049A00029F00C94C62551110C9411260C94CC2599
:1049B0000E94EE2568F39923B1F3552391F3951BDB
:1049C000550BBB27AA2762177307840738F09F5F30
:1049D0005F4F220F331F441FAA1FA9F335D00E2E9D
:1049E0003AF0E0E832D091505040E695001CCAF70A
:1049F0002BD0FE2F29D0660F771F881FBB1F2617CD
:104A000037074807AB07B0E809F0BB0B802DBF01A3
:104A1000FF2793585F4F3AF09E3F510578F00C9472
:104A2000C6250C9411265F3FE4F3983ED4F3869597
:104A300077956795B795F7959F5FC9F7880F911D93
:104A40009695879597F90895E1E0660F771F881F7F
:104A5000BB1F621773078407BA0720F0621B730B32
:104A6000840BBA0BEE1F88F7E09508950E94F62597
:104A700088F09F5798F0B92F9927B751B0F0E1F01F
:104A8000660F771F881F991F1AF0BA95C9F714C0CF
:104A9000B13091F00E941026B1E008950C941026D8
:104AA000672F782F8827B85F39F0B93FCCF3869508
:104AB00077956795B395D9F73EF490958095709565
:104AC00061957F4F8F4F9F4F0895E89409C097FBE2
:104AD0003EF490958095709561957F4F8F4F9F4FD5
:104AE0009923A9F0F92F96E9BB279395F695879519
:104AF00077956795B795F111F8CFFAF4BB0F11F4DC
:104B000060FF1BC06F5F7F4F8F4F9F4F16C0882382
:104B100011F096E911C0772321F09EE8872F762FB8
:104B200005C0662371F096E8862F70E060E02AF0F9
:104B30009A95660F771F881FDAF7880F96958795E5
:104B400097F90895990F0008550FAA0BE0E8FEEFBA
:104B500016161706E807F907C0F012161306E40741
:104B6000F50798F0621B730B840B950B39F40A263A
:104B700061F0232B242B252B21F408950A2609F418
:104B8000A140A6958FEF811D811D089597F99F671C
:104B900080E870E060E008959FEF80EC08950024C5
:104BA0000A941616170618060906089500240A9492
:104BB00012161306140605060895092E0394000C18
:104BC00011F4882352F0BB0F40F4BF2B11F460FFA7
:104BD00004C06F5F7F4F8F4F9F4F089557FD9058D0
:104BE000440F551F59F05F3F71F04795880F97FBB1
:104BF000991F61F09F3F79F087950895121613066B
:104C00001406551FF2CF4695F1DF08C01616170699
:104C10001806991FF1CF86957105610508940895CE
:104C2000E894BB2766277727CB0197F908950E9460
:104C3000A22508F48FEF08950E942F260C94DD25FD
:104C40000E94CF2538F00E94D62520F0952311F040
:104C50000C94C6250C94CC2511240C9411260E948A
:104C6000EE2570F3959FC1F3950F50E0551F629F9D
:104C7000F001729FBB27F00DB11D639FAA27F00DB5
:104C8000B11DAA1F649F6627B00DA11D661F829FDC
:104C90002227B00DA11D621F739FB00DA11D621FC1
:104CA000839FA00D611D221F749F3327A00D611DDE
:104CB000231F849F600D211D822F762F6A2F1124C0
:104CC0009F5750409AF0F1F088234AF0EE0FFF1FF3
:104CD000BB1F661F771F881F91505040A9F79E3F4A
:104CE000510580F00C94C6250C9411265F3FE4F327
:104CF000983ED4F3869577956795B795F795E795A0
:104D00009F5FC1F7FE2B880F911D9695879597F9A8
:104D100008950E94A225880B990B0895DC0101C01B
:0E4D20006D9341505040E0F70895F894FFCF96
:104D2E001A0B1A0B01011815A015C019FF1815A1A1
:104D3E0015C819FF1815AE19FF1815AF19FF18155C
:104D4E00AE15D5168015A8163F15D31600154015AD
:104D5E008D16141520160015A115C815DA16121584
:104D6E008116CF15D916F115DB1640152E15A41583
:104D7E00A619FF0001140A6464323200127A000090
:104D8E00042896100800008000400000FF0100017A
:104D9E000000FFFF0000010001FF0000000000BB4B
:104DAE000B1B0B480B080C790B570B6B0B00000001
:104DBE0000C0162116C417FE15F7080E16FF1500B3
:104DCE0000000070174817C417C3173F0ECA0E0E07
:104DDE000E6E616E00696E66006F7666000D0A00DB
:104DEE0053657474696E677300553A20002056201F
:104DFE0000493A2000204120004650322D436F6E6C
:104E0E0074726F6C6C65720056657273696F6E208A
:104E1E00312E3130004C616E6765722054617374AF
:104E2E00656E647275636B2065726B616E6E742E47
:104E3E00004B75727A65722054617374656E64727C
:104E4E0075636B2065726B616E6E742E00706F737E
:104E5E003A00206469723A00446973706C6179207B
:104E6E006F666600446973706C6179206F6E0052D4
:104E7E00656164696E677300537769746368204F68
:0E4E8E00666600537769746368204F6E0000FB
:00000001FF
